S01A0000687474707372765F7477726B36306E3531322E737265635C
S1130000F0FE00202104000017B7010017B701001B
S113001017B7010017B7010017B70100000000006F
S11300200000000000000000000000003FB60100D6
S113003017B7010000000000B5B6010017B70100B2
S113004017B7010017B7010017B7010017B7010070
S113005017B7010017B7010017B7010017B7010060
S113006017B7010017B7010017B7010017B7010050
S113007017B7010017B7010017B7010017B7010040
S1130400FFFFFFFFFFFFFFFFFFFFFFFFFEFFFFFFF9
S107041000000000E4
S11304200E480F490F4A4FF0080333B140F8042B2C
S113043041F8042BA3F10103F7E7EFF3088080F3FD
S11304400988EFF3148040F0020080F31488BFF3AE
S11304506F8F00F009B880F30888704780E100E0EE
S113046080E200E0FFFFFFFFC046C046C046C04632
S113047000F000F800F009F8002801D000F00AF8B4
S1130480002000F01BF800F021F880B500F0B6F869
S1130490012002BD10B5074979441831064C7C444B
S11304A0163404E0081D0A68511888470146A14221
S11304B0F8D110BD78B30100ACB3010080B5024897
S11304C000F0D0F8002002BD60A5020000F0F4BAEC
S11304D059484CF22051C1814DF62811C18101883F
S11304E04FF6FE7211400180704710B45349544ACC
S11304F011F582531B6853F0010311F582542360F4
S113050041F204035B5853F4407341F20404635012
S11305104C4B18004FF4A06383624FF4A063C36292
S11305204FF4A06303644FF4A06343644FF4A063E7
S113053083644FF4A063C3644FF4A06303654FF472
S1130540A06343654FF4A06383654FF4A063C36560
S11305503D4B18004FF4A06303604FF4A063436065
S11305604FF4A06383604FF4A063C3604FF4A063AF
S113057003614FF4A06343614FF4A06383614FF4BC
S1130580A063C3614FF4A06303624FF4A0634362AA
S11305904FF4A06383624FF4A063C3624FF4A0637B
S11305A003634FF4A06343634FF4A06383634FF486
S11305B0A063C363254B18004FF4A06303604FF49A
S11305C0A06343604FF4A06383604FF4A063C360EF
S11305D04FF4A06303614FF4A06343614FF4A0633D
S11305E083615FF08053136610BC70471449086040
S11305F04FF416628A60164A4A60704780B51548FF
S11306000068C0F3033000280BD11348006830F0B1
S11306101900114908601148006830F019000F49A9
S1130620086000F0AFFE00F0D7FFFFF75EFF0C4854
S1130630FFF7DCFF01BD000000200540007004400E
S113064000C0004000A0044000B0044000C00440CA
S1130650010007002480044004F0014008F0014038
S1130660000000702DE9F04F83B08246DAF80400F0
S11306700F30000900010400DFF820040460DFF8F3
S113068020042060DFF81C0420604FF45172002124
S1130690200000F0CDFF14F5D4705146302200F054
S11306A0F9FFC4F8AC41D4F8B00100090001C4F862
S11306B0B00100F082F901F0A9FA0700002F02D07E
S11306C0380000F0AFF8D4F8D001002806D0D4F8F0
S11306D0D0018046D4F8B401070018E0D4F8B4017E
S11306E0D82802D2D820C4F8B401D4F8B401103008
S11306F00700380001F07AFA8046B8F1000F02D101
S1130700042000F08FF80221404601F0DBFA3900A2
S1130710404601F0CAFE17EB0800401E0009000124
S1130720E063D8200700380001F060FA8146B9F18F
S1130730000F02D1042000F075F80121484601F0B1
S1130740C1FA17EB0900401E00090001834614F1A9
S113075050000600BBF164007061C6F810B019F1D6
S11307600F0000090001B0617069DFF83C130860F4
S113077001F086FF0700002F02D0380000F052F885
S1130780012114F5EC7001F0E9FF012114F5A670C4
S113079001F0E4FF02F01CF90700002F02D038003A
S11307A000F040F8D4E9BF010A3051F10001C4E976
S11307B0BF01002001900020009001230022E06985
S11307C0C16814F5367001F09BFD0600002E02D1BD
S11307D0042000F027F8300001F071FED4F8B801CD
S11307E005002868002818D0287DC00713D50020EC
S11307F00190002000900023AA69E069C1682800E4
S113080001F07EFD0600002E02D1042000F00AF85B
S1130810300001F054FE2035E3E71AF0F9FE002021
S1130820BDE8FE8F040002F090F99C4800680500C2
S1130830FEE79A4A126811000881704738B504002F
S1130840964800680500082C04D30C2001F0E3FC52
S1130850002003E015EB8400D0F8A80232BDF8B5FF
S113086004000D008D4800680600082C04D30C20F9
S113087001F0D1FC002016E002F067F916EB8400C9
S1130880D0F8A8020700002F04D116EB8400C0F8AA
S1130890A85205E0002D03D116EB8400C0F8A8523D
S11308A002F064F93800F2BD2DE9F84F04000D00A0
S11308B01600B6EB050B794800688046082C03D275
S11308C0002D01D0002E04D10C2001F0A4FC0C203A
S11308D02BE002F03AF918EB8400D0F8A802A84201
S11308E003D102F043F919201FE018EB8400D0F87B
S11308F0A8028146B9F1000F0AD05BF809008246CC
S1130900AA4503D102F032F919200EE0D146F1E7ED
S113091018EB8400D0F8A802070018EB8400C0F894
S1130920A852376002F022F90020BDE8F28F2DE9C9
S1130930F84F04000D001600771B5FF0190B5748A1
S113094000688246082C03D2002D01D0002E04D169
S11309500C2001F060FC0C202DE002F0F6F81AEBFC
S11309608400D0F8A802A84209D11AEB840079596E
S1130970C0F8A812002078510020834618E01AEB32
S11309808400D0F8A8028046B8F1000F10D057F8C0
S113099008008146A94509D157F8090047F808001D
S11309A0002047F809000020834601E0C846EBE731
S11309B002F0DCF85846BDE8F28F2DE9F0413748E3
S11309C00068040043F6F83020824FF4D57060824A
S11309D008202060012060600220E0810F206081F7
S11309E00F20A081D4F8B801002802D10120FFF71C
S11309F019FF0120C4F8F8020120C4F81C0101F019
S1130A000FFE14F150000600E661E08A6083E08A7C
S1130A10B084D4F8A801000440F47F4050F0FF00F3
S1130A20F0600320B060002114F5A07002F0D0F94A
S1130A30002114F5C07002F0CBF900200700D4F8AF
S1130A40B801050000208046286800280CD04FF625
S1130A50FF70804508D2E868874201D2E868070041
S1130A6018F101082035EFE7C4F8187114F5367051
S1130A7005000E482860E020A8600D4828610D4854
S1130A806860781CE860002114F5907002F0A0F909
S1130A900120C4F82C01BDE8F08100003800FF1FDC
S1130AA0789E02007C9E02003401FF1F0300008038
S1130AB0689E02000D3501000746384602F0EAF947
S1130AC0FBE750F8041B61B150F8042BD30744BF73
S1130AD0A9F101039A18002342F8043B091FFAD133
S1130AE0EFE7704770470100DFF8D007007801286E
S1130AF017D1C9B2002908D1DFF8C4071E22027039
S1130B00DFF8C0070A22027007E0DFF8B4071F22EB
S1130B100270DFF8B00780220270C9B2002907D141
S1130B2001E0012015E0DFF8A0078022027003E055
S1130B30DFF89407C0220270DFF88C070078000603
S1130B40FAD4DFF884070078800601D4002000E09E
S1130B501B207047C0B2002824D1DFF87017002290
S1130B600A70DFF86C17096849084900DFF8602744
S1130B701160DFF8601728220A70DFF85C17212261
S1130B800A70DFF8581738220A70DFF85417582211
S1130B900A70DFF850170978C9B211F00C010C295A
S1130BA0F7D1FFE77047C0B2002802D001282AD04D
S1130BB053E0DFF8181700220A70DFF814170968E9
S1130BC049084900DFF808271160DFF80817A82250
S1130BD00A70DFF8041721220A70DFF800173822A0
S1130BE00A70DFF8FC1658220A70DFF8F816097844
S1130BF0C9B211F00C010829F7D1DFF8E816097819
S1130C004906FAD529E0DFF8C41600220A70DFF895
S1130C10C016096849084900DFF8B4261160DFF8F6
S1130C20B416AB220A70DFF8B01621220A70DFF87E
S1130C30AC160D220A70DFF8A81640220A70DFF8FD
S1130C40A4160978C9B211F00C010829F7D1DFF80C
S1130C50941609784906FAD5FFE77047C0B2002810
S1130C6002D0012832D063E0DFF8601600220A7057
S1130C70DFF85C16096849084900DFF8542611605A
S1130C80DFF8541621220A70DFF84816A8220A70E9
S1130C90DFF85416097811F01F01DFF84C261170A3
S1130CA0DFF8381638220A70DFF8341618220A7072
S1130CB0DFF830160978C906FAD4DFF8281609785F
S1130CC0C9B211F00C010829F7D131E0DFF8FC15A5
S1130CD000220A70DFF8F815096849084900DFF8AE
S1130CE0F0251160DFF8F01521220A70DFF8E41511
S1130CF0AB220A70DFF8F015097811F01F01DFF854
S1130D00E8251170DFF8D41500220A70DFF8D01539
S1130D1000220A70DFF8CC150978C906FAD4DFF886
S1130D20C4150978C9B211F00C010829F7D1FFE7FD
S1130D307047C0B2012816D1DFF8981547220A700F
S1130D40DFF8941523220A70DFF8801500220A7058
S1130D50DFF890150978C906FAD5DFF888150978FF
S1130D60C907FAD5FFE77047C0B2002802D00128AE
S1130D7032D063E0DFF85C1544220A70DFF85815BE
S1130D8021220A70DFF86015097811F01F01DFF8DD
S1130D9058251170DFF8341500220A70DFF8301579
S1130DA0096849084900DFF828251160DFF82C1587
S1130DB038220A70DFF8281518220A70DFF8241583
S1130DC00978C906FAD5DFF81C150978C9B211F0FB
S1130DD00C010429F7D131E0DFF8F81447220A7036
S1130DE0DFF8F41421220A70DFF8FC14097811F0FA
S1130DF01F01DFF8F4241170DFF8D01400220A7008
S1130E00DFF8CC14096849084900DFF8C4241160EC
S1130E10DFF8C81400220A70DFF8C41400220A7034
S1130E20DFF8C0140978C906FAD5DFF8B8140978D0
S1130E30C9B211F00C010429F7D1FFE7704770B56E
S1130E4004000025E4B2002C02D0012C03D005E0FC
S1130E500420050002E001200500FFE700F031F85E
S1130E600600EDB2F6B20520DFF8801400FB061090
S1130E702E5CF6B2002E06D0022E0ED008D3042E1D
S1130E8015D00FD318E02000C0B2FFF76DFF13E0B8
S1130E902000C0B2FFF74DFF0EE02000C0B2FFF704
S1130EA0DDFE09E02000C0B2FFF77DFE04E0200073
S1130EB0C0B2FFF74FFEFFE7EDB2F6B2B542D0D1B4
S1130EC070BDDFF810040078C0B210F0C000002834
S1130ED004D0402804D080280BD013E0042012E072
S1130EE0DFF8F4030078800701D400200BE0012030
S1130EF009E0DFF8EC030078400601D4022002E0A8
S1130F00032000E00020704710B50400E4B2032C75
S1130F1001D30220B6E0E4B2002C03D0022C7BD033
S1130F203DD3A7E0DFF894030078022817D1DFF857
S1130F30B003007810F0DF00DFF8A4130870DFF8C6
S1130F40B003DFF8B01301600020FFF778FFDFF88B
S1130F509003007850F02000DFF884130870DFF865
S1130F609003DFF894130160DFF89003006830F019
S1130F700D0050F00200DFF884130860DFF850031E
S1130F80006850F48030DFF848130860DFF870031D
S1130F90006850F40020DFF8681308606AE0DFF8A6
S1130FA01C030078022817D1DFF83403007810F00E
S1130FB0DF00DFF82C130870DFF83403DFF8341394
S1130FC001600020FFF73BFFDFF81403007850F0C6
S1130FD02000DFF80C130870DFF81403DFF8241383
S1130FE00160DFF81803006830F00D0050F00200D3
S1130FF0DFF808130860DFF8D802006850F4803086
S1131000DFF8CC120860DFF8F802006850F4002022
S1131010DFF8EC1208602DE0DFF8C402007810F06D
S1131020DF00DFF8BC120870DFF8C402DFF8C41276
S113103001600120FFF703FFDFF8B4025FF44031E1
S11310400160DFF8B802006800090001DFF8AC12A3
S11310500860DFF87C02006850F48030DFF870121A
S11310600860DFF89C02006850F40020DFF890125A
S11310700860FFE72000C0B2FFF734FDDFF83C0250
S11310800470002010BDDFF83402007870470000BF
S113109080B5FFF71DFA9C48006850F400709A4927
S11310A0086040F2FF300078C0B2FF2810D09748A3
S11310B040F2FF31097801708B48007810F0E000AD
S11310C040F2FE31097811F01F0108438649087087
S11310D08748894901608948006830F00D0050F064
S11310E00200864908607A48006850F480307849E4
S11310F008608348006850F40020814908608448EF
S113110000688449084082490860704800210170E1
S11311106F480068400840006D4908606E4821210E
S113112001706C48A82101706F48007810F01F000E
S11311306D490870694838210170694818210170A7
S113114068480078C006FBD466480078C0B210F046
S11311500C000828F8D15D48002101705C48006843
S1131160400840005A4908605A48A82101705A486A
S113117021210170594838210170594858210170C2
S113118058480078C0B210F00C000828F8D155482F
S113119000784006FBD54D48002101704C4800689A
S11311A0400840004A4908604A48282101704A48DA
S11311B021210170494838210170494858210170A2
S11311C048480078C0B210F00C000C28F8D144480C
S11311D0007850F020004249087001BD4E480021BB
S11311E001604E48007810F0DC0050F050004B498C
S11311F008704B48007810F0DC0050F0400048497B
S113120008704848007810F0EC00464908704648D9
S1131210006850F08050444908604448002101703F
S113122043480021017043480021017042480021D5
S113123001704248007810F0600050F020003F49EF
S113124008703F48007810F0FC0050F084003C49DE
S113125008703C4830210170704770B504000026C6
S11312602000C0B2FFF750FE0600B6B2002E02D036
S1131270300080B20AE000212000C0B201F018FE64
S11312800500C821280001F081FB002070BD80B555
S1131290FFF7F9FE02BD0200D2B2032A0BD2C9B293
S11312A01E2908D2C9B2D2B22820274B00FB023033
S11312B050F8210000E00020704700009C01FF1F4F
S11312C00A4006400B4006400840064000500640D5
S11312D004800440004006400140064004400640AB
S11312E005400640064006400340064064A4020050
S11312F0448004400000330100001301488004408E
S113130000700440000077773880044002400640B3
S113131048900440FFF8FFFE1480044000D00740CA
S113132001D0074002D007403480044000C0074089
S113133001C0074002C0074003C0074004C0074083
S113134008C0074002E0074080A4020010B5002452
S11313500020FFF7C8FB0400A4B2002C02D0200038
S113136080B20AE00120FFF7BEFB0400A4B2002C07
S113137002D0200080B200E0002010BD80B5FFF74D
S11313802DFF01BD80B5FFF783FE01BD30B402001F
S1131390DFF88032D2B2002A0AD0022A54D02DD3E8
S11313A0042A00F09D8075D3052A00F0BF80E3E095
S11313B0DFF864020400C80705D54FF45070A0613B
S11313C04FF45070E061880703D50020A06100202D
S11313D0E061480707D541F23400C05850F48060FA
S11313E041F23405E850080707D541F23400C058EB
S11313F030F4806041F23405E850C0E0DFF81C02AC
S11314000400C80705D54FF45070E0604FF45070E5
S11314102061880703D50020E06000202061480790
S113142007D541F23400C05850F4006041F234054D
S1131430E850080707D541F23400C05830F4006082
S113144041F23405E8509AE0DFF8CC010400C80703
S113145005D54FF45070A0604FF45070E0608807D9
S113146003D50020A0600020E060480707D541F2C2
S11314703400C05850F4805041F23405E850080755
S113148007D541F23400C05830F4805041F234059D
S1131490E85074E0DFF884010400C80705D54FF470
S11314A0507020644FF450706064880703D50020A6
S11314B0206400206064480707D541F23400C05816
S11314C050F4005041F23405E850080707D541F2C2
S11314D03400C05830F4005041F23405E8504EE076
S11314E0DFF83C010400C80705D54FF4507060666E
S11314F04FF450702066880703D5002060660020F2
S11315002066480707D541F22800C05850F480608F
S113151041F22805E850080707D541F22800C058D1
S113152030F4806041F22805E85028E0DFF8F0004C
S11315300400C80705D54FF4507020624FF4507072
S11315406062880703D5002020620020606248079B
S113155007D541F22800C05850F4006041F2280534
S1131560E850080707D541F22800C05830F400605D
S113157041F22805E85002E05FF0FF3000E000206F
S113158030BC704710B40100224B264802004FF4CF
S1131590806010634FF4806050634FF48060906308
S11315A04FF48060D0634FF4806010644FF4806027
S11315B050641D4802004FF4846010604FF4806052
S11315C0506041F22C00C05850F0010041F22C044C
S11315D0E050002010BC70471448006850F4785064
S11315E0124908600020704701000800032802D057
S11315F0042806D00BE0094802004FF440709064C0
S113160005E0074802004FF44070D066FFE7002071
S1131610704700000070044000C0044000B0044063
S113162000D004400090044000A0044038800440EE
S113163070B504000D0016002A003100200001F0EE
S113164041FC200070BD10B450F8041B81B1026845
S11316501218001D50F8043BDC0744BFA9F1010433
S1131660E31852F8044B43F8044B091FF9D1EBE794
S113167010BC704762B38B0708D0521E11F8013BAF
S113168000F8013B00F024808B07F6D1830740F07B
S1131690208000BF103A07D330B4B1E83810103AB4
S11316A0A0E83810F9D230BC530724BFB1E80810C1
S11316B0A0E8081044BF51F8043B40F8043BD207AB
S11316C024BF31F8022B20F8022B44BF0B7803709F
S11316D07047083A07D3B1E80810083A40F8043BC9
S11316E040F804CBF7D25307E4E700002DE9F74FA5
S11316F004001D005FF00008DDF808B0DBF8080006
S1131700DFF83416884204D0382000F084FD00202D
S113171078E00C34102C01D21020040014F10F00D6
S11317200409240101F011FADBF814000600002E6C
S113173062D0CBF8186001F019FA01F006FADBF870
S113174018000600002E57D0DBF81400864200D1A2
S1131750B04630688146A1454BD3B9EB04008246BC
S1131760BAF1100F0AD3A0190700C7F800A0C7F8F0
S113177004B0B068B860B760346002E04C46B0684A
S11317800700DBF81400864202D1CBF8147001E0A4
S1131790C8F80870DBF81400CBF81800DBF8140064
S11317A0CBF81C00DBF81400CBF82000DBF80C00AD
S11317B0CBF82400DBF80C00CBF828000198C068B3
S11317C0308100207081C6F804B0DBF82C00B042F0
S11317D001D2CBF82C6001F0C9F9002D06D0B4F188
S11317E00C02002116F10C00FFF722FF16F10C0089
S11317F008E0B046B6689AE701F0B8F9042000F0B2
S11318000AFD0020BDE8FE8F2DE9FC4F83B083461E
S11318100C005FF00008DDF810A0DAF80800DFF82B
S11318201815884204D0382000F0F5FC00208BE025
S11318301BF10C0BBBF1100F01D2102083461BF1DE
S11318400F005FEA101B5FEA0B1B01F07EF9DAF868
S113185014000500002D71D0CAF8185001F086F963
S113186001F073F9DAF818000500002D66D0DAF8F3
S11318701400854200D1A84628688146B4F10C00C2
S113188015F11001884256D319EB05001BEB040136
S11318900C3988424FD3B4F10C000600701B019040
S11318A0B9EB0B000199401A009001982860009848
S11318B010280AD31BEB0600070000983860C7F80D
S11318C004A0A868B860AF6004E0009810EB0B0BAC
S11318D0A8680700C6F800B0B760DAF81400CAF8C0
S11318E01800DAF81400CAF81C00DAF81400CAF870
S11318F02000DAF80C00CAF82400DAF80C00CAF860
S113190028000398C068308100207081C6F804A0C4
S1131910DAF82C00A84201D2CAF82C5001F026F9BA
S11319200E98002805D0BBF10C0200212000FFF71F
S11319307FFE200008E0A846AD688BE701F016F9A9
S1131940042000F068FC002005B0BDE8F08F70B5FD
S11319500400DFF8E803006805000023D5F8142329
S1131960E9692000FFF7C2FE0600300070BDF8B53B
S113197004000D00DFF8C403006806000020009096
S1131980D6F81433F26929002000FFF73DFF070061
S11319903800F2BDF8B504000D00DFF8A0030068BC
S11319A0060000232200F1692800FFF79FFE0700CC
S11319B03800F2BD70B50400DFF88003006805004C
S11319C00123D5F81423E9692000FFF78FFE0600F0
S11319D0300070BDF8B504000D00DFF86003006846
S11319E0060001232200F1692800FFF77FFE0700AB
S11319F03800F2BD2DE9F84304000D001600DFF8AD
S1131A003C0300680700701981465FEA1910000161
S1131A10206115F10F00000900018046C4F80C8014
S1131A20C4F82C802069B0EB0800C8F8000000203E
S1131A30C8F80800C8F80440C4F81480C4F8188032
S1131A40C4F81C80C4F8208001F07FF8D7F808039C
S1131A50002804D1002117F5427001F0B9F92100E2
S1131A6017F5427001F0BAF901F080F8DFF8C80206
S1131A70A0602000BDE8F2832DE9F8430400DFF8FC
S1131A80BC0200680500002C04D1012000F0C3FB57
S1131A90012099E0B4F10C00060070688046D8F883
S1131AA00800DFF89412884204D0382000F0B3FB19
S1131AB0382089E03089E969C96889B2884209D047
S1131AC030894FF6FF71884204D0032000F0A3FB55
S1131AD0032079E001F039F8D8F814000700D8F8A9
S1131AE01400002803D0D8F81400864218D2D8F87D
S1131AF01400070030688019B8420BD13068396887
S1131B0008183060B868B0600C2200213800FFF774
S1131B108FFD00E0B760C8F814600020814613E030
S1131B20B868864202D3B868002802D101208146F1
S1131B300AE0BF68C8F81C7001F018F801F005F855
S1131B40D8F81C000700CAE7B9F1000F25D03068A7
S1131B508019B96888420DD13068B96809680818D5
S1131B603060B8688068B0600C220021B868FFF764
S1131B705FFD01E0B868B0603868C019B0420BD1AD
S1131B803868316808183860B068B8600C220021E1
S1131B903000FFF74DFD00E0BE60D8F81400C8F82F
S1131BA01800D8F81400C8F81C00D8F81400C8F8B5
S1131BB02000D8F80C00C8F82400D8F80C00C8F8A5
S1131BC0280000F0D3FF0020BDE8F283F8B504003C
S1131BD00D005A48006806000023220016F1500147
S1131BE02800FFF783FD07003800F2BD70B504003C
S1131BF05248006805000023D5F8142315F150015C
S1131C002000FFF773FD0600300070BD70B54B482F
S1131C100068040014F5517006003500C4F814532C
S1131C203036D4F8B001821B31002800FFF7E2FE01
S1131C30002070BD2DE9F84304000D00A8463F487C
S1131C4000680600B8F1000F05D1D6F814030700A8
S1131C50F868804609E0B5F10C008046D8F8040025
S1131C600700D8F8000010EB080800F06EFF786950
S1131C7081463869804519D2B8F80800E16889B20C
S1131C8088420ED1B9F1000F04D0C14502D2D9F86F
S1131C900890F7E7C14504D000F068FF18F10C0084
S1131CA00EE0D8F8000010EB0808E2E73F68F86897
S1131CB08046D6F814038742D9D100F057FF00209C
S1131CC0BDE8F2830200002A05D0B2F10C00030043
S1131CD05981012000E00020704718490968080074
S1131CE0D0F81403C06A7047B0F10C031A00CB6833
S1131CF013817047F8B504000D0010480068060011
S1131D000123220016F150012800FFF7EFFC070021
S1131D103800F2BD70B504000848006805000123CE
S1131D20D5F8142315F150012000FFF7DFFC06005D
S1131D30300070BD0000000070656D6C3800FF1F3E
S1131D402DE9F04782B004000D0016001F005FF07B
S1131D50000ADFF8A80500688046002D04D5152088
S1131D6000F059FA002031E0A4B2002C03D1D8F8D5
S1131D70A801040012E0A4B2B4F5807F04D31320B8
S1131D8000F049FA002021E0A4B2D8F8A801844266
S1131D9004D0132000F03FFA002017E0009700233E
S1131DA000223100280000F051FA8146B9F1000FF9
S1131DB00BD0D9F80C00824600F0C7FE484600F06C
S1131DC07EFB00F0D3FE19F027FC5046BDE8F687F1
S1131DD070B504000D001600002332002900200015
S1131DE080B2FFF7ADFF70BD2DE9F34F83B0DFF88C
S1131DF00C0500688246039800280CD00398000C58
S1131E00ADF80200BDF80200DAF8A81189B28842E0
S1131E1001D012202AE1039800F0D2F98346BBF1E5
S1131E20000F03D01AF15000834501D112201DE1A7
S1131E301AF5A67000F06BFD00F087FEDBF80800D1
S1131E40092807D100F092FE1AF5A67000F021FDD2
S1131E5000200BE1DBF8080002280CD1DAF81C00A2
S1131E6083453DD0DBF804100800DBF800100C00BB
S1131E700460606034E0DBF80800C0051DD5DBF8C1
S1131E800800C0052CD5DBF804100800DBF80010AE
S1131E900D0005606860BAF88801401EAAF8880140
S1131EA0DBF8080030F48070CBF80800DBF8080099
S1131EB050F00300CBF8080012E0DBF808008005BE
S1131EC00ED5DBF804100800DBF800100E000660E5
S1131ED07060DBF838000089401EDBF83810088198
S1131EE0DBF8080040050ED5DBF840100800DBF8ED
S1131EF03C100F0007607860DBF838000089401E52
S1131F00DBF8381008810920CBF8080000F02EFE19
S1131F1000200400102C0DD21AEB8400D0F83402F7
S1131F20002805D058461AEB8401D1F834128847AA
S1131F30641CEFE7DBF80C00ADF80000DAF81C00D5
S1131F4001909BF8280080061ED400215846FFF714
S1131F5071FE0400002C17D021005846FFF76AFEDA
S1131F6005000198584504D01AF150012000FFF7EC
S1131F70BBFE5C4506D0DBF88C00844202D0200016
S1131F80FFF77AFD2C00E5E75FF00040CBF80C008A
S1131F90BAF82801012806D10120CAF82C01002032
S1131FA0CAF830010EE0BDF80000DAF82C118842BE
S1131FB008D2BDF80000CAF82C01DBF870006C38B8
S1131FC0CAF83001DBF870100800DBF86C108846A2
S1131FD0C0F80080C8F80400BAF82801401EAAF826
S1131FE028011AF5A67000F054FC019883452AD103
S1131FF000F0ABFDDBF804100800DBF800108946A4
S1132000C0F80090C9F80400584600F08EFF9BF811
S11320102800800615D4DBF88C00002809D01AF1BA
S11320205001DBF88C00FFF75FFEDBF88C00FFF754
S113203023FD1AF150015846FFF756FE5846FFF7A4
S11320401BFD19F0E7FA584600F06FFF9BF82800D3
S113205080060AD4DBF88C00002803D0DBF88C005F
S1132060FFF70AFD5846FFF707FD002005B0BDE85D
S1132070F08F10B5040000212000FFF7B5FE10BD5D
S1132080F8B50400DFF874020068050015F5A670C1
S113209000F03DFCD5F820016C380600B5F82801A5
S11320A00700002F14D0002E12D032222100B06E6F
S11320B0006900F03BFF002805D115F5A67000F07B
S11320C0E8FBF06809E07F1EF06EB0F16C06E8E70B
S11320D015F5A67000F0DDFB0020F2BD38B5040054
S11320E0200000F06DF80500002D01D0A86E00E07E
S11320F0002032BD38B50400200000F061F805006E
S1132100280000F001F832BD38B50400200000F0CA
S113211022FF0500A86D32BD70B504002600DFF86B
S1132120DC0100680500F068000C80B2D5F8A81145
S1132130884203D0122000F06EF811E000F005FD93
S1132140B068022805D100F011FD112000F063F8F9
S113215006E0300000F0B3F900F008FD19F05CFA75
S113216070BD81B000208DF8000064480068010053
S113217000A8CA699269904201D2012000E00020BF
S113218001B070475D4909680800018B002902D03D
S1132190406BC06801E0C069C06D70475749096869
S11321A00800018B002902D0406B0C3001E0C069AB
S11321B05C307047514909680800C069C0687047BD
S11321C0F8B504004D4800680700002C01D1F869F7
S11321D020E0F86D844202D117F150001AE000F0BB
S11321E0B4FCD7F820016C380500B7F828010600C4
S11321F03000461E00280AD0E868A04203D100F04F
S1132200B5FC280006E0E86EB0F16C05F0E700F0DC
S1132210ADFC0020F2BD0100384B1B681A00138B83
S1132220002B03D0536BDB68180002E0D369DB6D2D
S11322301800002901D0002807D1138B002B02D0ED
S1132240536BD96001E0D369D96570472DE9F74F25
S113225004000D001E00294800680700002C17D058
S113226000208246AB46D7F8B8018146D9F8000071
S1132270002806D0D9F80000A04202D019F12009A4
S1132280F4E7D9F80000002808D10020814605E0D1
S1132290A946D9F81800834601208246B9F1000FF7
S11322A004D11020FFF7B7FF002013E017F5A67044
S11322B000F02DFB01960298009053465A46F869A7
S11322C0C168484600F01CF8804617F5A67000F077
S11322D0E0FA4046BDE8FE8F38B5CA4800680400FD
S11322E0E0690500D5F88400002802D0D5F8840000
S11322F080470020FFF7BDFE31BD00003800FF1FFE
S11323002DE9F64F85B004009B46DDF840907B48EC
S113231000688046D8F81801E168884208D218F5A8
S11323203670844204D00E20FFF775FF0020B9E018
S1132330B9F1000F17D011980700B7F5CA7F04D878
S11323400220FFF768FF0020ACE000234A4602A900
S1132350380000F0D5F8050002983F1ABBF1000FD1
S113236018D0203F16E0A0680700D92F01D2D8204A
S1132370070017F10F0007093F01BBF1000F02D05E
S113238017F1200000E038000023002202A900F029
S1132390B7F80500002D04D10A20FFF73CFF002008
S11323A080E00320A860D5F88C00002803D0D5F87D
S11323B08C00060002E0029840190600BBF1000FF1
S11323C00CD003962036039821002022FFF762F9EF
S11323D003980400206850F0004020603900300069
S11323E000F063F8E0687FF00F01D8F8202001FBCB
S11323F000208246C5F81CA0C5F820A0BAF80C003D
S1132400A8846069A862B9F1000F03D0A86A50F0EB
S11324102000A86206980190BAF80C0000902300EE
S11324203A003100280000F099FD002801D1002075
S113243038E0AC6620686866E069002808D0D5E911
S11324402923E069002110185941C5E9290109E04F
S113245015F1A40018F53F71B1E80C10A0E80C10B8
S11324600C390C38D8F8F802022803D1A86A50F0C5
S11324700400A862D8F89C026867D8F8A002A8678C
S1132480D8F8A402E86705982866B9F1000F08D1C6
S113249029002800FFF728FC2900D5F88C00FFF755
S11324A023FC280007B0BDE8F08F8908491C491EA9
S11324B0002903D0544A0260001DF8E7704710B4A5
S11324C0504C24682100C4692200546823004C6ADB
S11324D0944200D24A620224846043601C6804600F
S11324E0186050600024C0F8B0400024C0F8B44024
S11324F00024C0F8B84010BC704700003800FF1F2B
S11325002DE9FB4F82B014005FF0BC093D48006820
S11325100500B5F828014FF6FE71884201D300206A
S11325206CE00398C0F80090002C06D0A3464A46FD
S113253000215846FFF77CF822E04846FFF73AFAB4
S11325408346BBF1000F04D00298FFF700FACBF8E2
S11325508C00BBF1000F01D158464FE0DBF88C0032
S1132560002804D15846FFF787FA002046E02421CA
S11325705846FFF7A7FB2521DBF88C00FFF7A2FBE9
S1132580D5F82C018246D5F830010600D5F8A8010B
S11325901FFA8AFA5AEA0040CBF80C00002E03D145
S11325A015F59070009002E016F16C0000901BF19C
S11325B06C02009915F5907000F04AFCD846464626
S11325C0F06E6C380700B8461AF1010A1FFA8AFA4D
S11325D0BAF1000F01D10120824615F590708742AF
S11325E005D0F86880B21FFA8AFA5045E7D0C5F8DA
S11325F030611FFA8AFAC5F82CA1584605B0BDE827
S1132600F08F00003800FF1F6B6174730200D36DFC
S11326101800002901D0002800D1D16570470000BE
S113262030B4324C2468200010F5D47421004C6975
S11326302200082A04D30724220007244C6105E061
S1132640002A03D10124220001244C61540114F016
S1132650E004C482002423006A2B04D2244CC02545
S11326601D555B1CF8E7234C00252B00042B05D2D9
S11326705FF0FF3544F823505B1CF7E730BC70472C
S1132680F8B51A480068040000202062D4F8180144
S1132690801C06003001FFF78DF90500002D01D1E3
S11326A0042022E005212800FFF70CFB3700380046
S11326B0471E002816D02D606D60EF81D4F8BC0150
S11326C0C019072807D2D4F8BC01C019400110F082
S11326D0E000A88101E0C020A881206AA8602562EA
S11326E01035E4E7206A60620020F2BD3800FF1F65
S11326F000E400E080E100E02DE9F84304000D006F
S113270016001F00DFF87C0200688046A5610021E6
S113271014F1080000F05CFB00F017FA002E15D14C
S1132720D8F84001814618F5A070814509D0A1452B
S113273004D100F01BFA4FF482600DE0D9F8009048
S1132740F1E7210018F5A07000F048FBDFF838022B
S1132750606100F00BFA0020BDE8F28338B5040094
S11327600D000023002229002000FFF7C5FF32BD21
S113277038B504000D000023012229002000FFF7D2
S1132780BBFF32BD2DE9F04704000D00DFF8F40172
S11327900068060000F0D9F96069DFF8EC1188429E
S11327A003D000F0E3F91F204CE000206061208A90
S11327B0002829D014F1080000F030FB8146B9F15B
S11327C03C09D9F80800C0051AD5D9F80410080046
S11327D0D9F800108A46C0F800A0CAF80400B6F878
S11327E08801401EA6F88801D9F8080030F48070EA
S11327F0C9F80800D9F8080050F00300C9F8080027
S11328004846FFF75CFED2E7D6F84001070016F50C
S1132810A070874211D0A7420DD1616808002168D9
S11328208846C0F80080C8F80400B6F84801401E85
S1132830A6F8480101E03F68E9E700F097F918F0CD
S1132840EBFE0020BDE8F08710B504000021200055
S1132850FFF798FF10BD70B50400DFF82801006889
S113286005006069DFF82011884201D000200FE0E4
S113287000F06BF9A069012802DA0020060004E0E8
S1132880A069401EA0610120060000F06FF930002D
S113289070BDF8B505003B480068060068693A4910
S11328A0884201D01F2031E000F04FF9A8690028C8
S11328B026D4288A002823D015F1080000F0AEFAA7
S11328C007003C3FB868C00512D57968080039682C
S11328D00C0004606060B6F88801401EA6F8880108
S11328E0B86830F48070B860B86850F00300B8601D
S11328F00020B8633800FFF7E2FD18F08DFE02E017
S1132900A869401CA86100F031F90020F2BDF8B5B7
S113291004001C4800680500288B002801D00D2005
S11329202FE060691849884201D01F2029E000F097
S11329300CF9A069012816DAE869060040F22B4078
S1132940B06014F10800B0637168080031680F00CA
S11329500760786016F13C0114F1080000F03EFABB
S113296018F068FE02E0A069401EA0616069064993
S1132970884203D000F0FAF81F2002E000F0F6F8D5
S11329800020F2BD3800FF1F6D73776CB0FBF1F2CD
S1132990521E544B1A60704710B500F085FA00219E
S11329A0C0B200F085FA0400C8212000FFF7EEFF52
S11329B04D48072101604D48006850F080504B4954
S11329C008604B48006850F080404949086010BDD9
S11329D070B548480068040042F26200FDF729FF20
S11329E05FF000510020FEF7C2FFFA21002000F042
S11329F0F5FA0500002D01D028004CE03E4800F017
S1132A00FBFA06000F2000F0C4FC00220FF289013B
S1132A100F2000F02FF9002801D126203BE0FEF71B
S1132A20ADFCFFF7B9FF0120FEF717FC002801D029
S1132A30262030E0FEF78AFC002801D026202AE078
S1132A400020FEF70AFC002801D0262023E02948B4
S1132A50006804002948C4F89801C82000F093FCD9
S1132A60D4F8980100F0A3FC00210FF2390000F023
S1132A7096FC00F0A7FC00F0AFFC0500002D01D08F
S1132A80280008E01E4802681D491E4800F0F2FCB8
S1132A9000F0B4FF002070BD10B5040000F0C3FBCB
S1132AA010BD000010B40100002423000D4C246864
S1132AB02402240A641C2000134C24682402240ADF
S1132AC02200124C2468640105D50F4C24682402AA
S1132AD0240A22000300002A00D10200801A1818D8
S1132AE010BC704714E000E010E000E01CED00E0D2
S1132AF020ED00E03800FF1F000000000053070035
S1132B00F8A40200BCA3020018E000E004ED00E019
S1132B10F8B50500DFF8A80200680600F0690700B0
S1132B2000F013F8B8680B280CD00B20B860BD6314
S1132B3041213800FFF76AFD7968080039680C0004
S1132B400460606000F012F8F1BDDFF874120968E7
S1132B500800C169496D002902D1C18A81F3118835
S1132B60C169496D491CC26951657047DFF850124B
S1132B7009680800C169496D002911D0C169496D0E
S1132B80491EC269516500290AD1018B002904D06C
S1132B90416B896881F3118802E0418B81F31188CC
S1132BA0704770B50400DFF8180200680500A86BD0
S1132BB0002804D11820FFF72EFB002021E0E86A4A
S1132BC0844202D3286BA04204D21420FFF723FBD3
S1132BD0002016E0FFF7B9FFE86A201AC008A96BC5
S1132BE051F820000600002E04D03068A04201D025
S1132BF03669F8E7FFF7BAFF002E01D0706800E0ED
S1132C00704870BD70B504006D4800680500A86B7D
S1132C10002804D11820FFF7FEFA002021E0E86A1A
S1132C20844202D3286BA04204D21420FFF7F3FAA3
S1132C30002016E0FFF789FFE86A201AC008A96B94
S1132C4051F820000600002E04D03068A04201D0C4
S1132C503669F8E7FFF78AFF002E01D0F06800E03C
S1132C60002070BD0100564B1B681A00936A1800BF
S1132C70916270472DE9F84304000D001600504896
S1132C8000680700B86B002804D11820FFF7C3FAC6
S1132C9000204FE0F86A844202D3386BA04204D289
S1132CA01420FFF7B8FA002044E0FFF74EFFF86A5B
S1132CB0201AC008B96B51F820008046B8F1000F03
S1132CC006D0D8F80000A04202D0D8F81080F5E76A
S1132CD0B8F1000F22D11420FEF788FF8046B8F126
S1132CE0000F06D1FFF742FF0420FFF794FA0020FB
S1132CF020E023214046FEF7E5FFF86A201AC008C9
S1132D00B96B51F82000C8F81000F86A201AC008FE
S1132D10B96B41F820802B48814602E0D8F80400C2
S1132D208146C8F80040C8F80450C8F80C60FFF7A2
S1132D301DFF4846BDE8F28310B521480068040031
S1132D40A08A4FF6FE710840A0821F48FFF78AFF51
S1132D5010BD2DE9F04104000D00A54201D20C2064
S1132D602BE01748006806001848C6F80C011548FF
S1132D70B062281B401CC008401C80465FEA8800E3
S1132D80FEF7C8FF0700002F01D1042015E003213E
S1132D903800FEF797FFB763F4623563A6F8408303
S1132DA00320A6F842034046B0F10108002803D0EE
S1132DB0002047F82800F6E70020BDE8F081000075
S1132DC03800FF1F112B0000CD2D010017B70100A3
S1132DD000604060002202814181704738B50400E0
S1132DE00D00FFF7B2FE6089002807D020896189B1
S1132DF0884203D3FFF7BAFE00200EE06168096839
S1132E000800286061680D60616869604560208918
S1132E10401C2081FFF7AAFE012032BD70B50400DA
S1132E20FFF793FE2089002803D1FFF79FFE0020BF
S1132E300DE0206805006968080029680E00066036
S1132E4070602089401E2081FFF790FE280070BD2D
S1132E5070B504000D001600002D00D12500FFF709
S1132E6074FE6089002807D020896189884203D3D1
S1132E70FFF77CFE00200BE02968080030602E601C
S1132E80756046602089401C2081FFF76FFE012099
S1132E9070BD0000C046C046024A11001820ABBEF7
S1132EA0FBE700BF2600020080B5FEF7F0F902BD83
S1132EB038B504000D002900C9B22000C0B2FEF7E5
S1132EC0EAF932BD62F30F2262F31F42401810F098
S1132ED0030308D0C91A1FD3DB0748BF00F8012D2C
S1132EE028BF20F8022D130030B4144615461039BB
S1132EF028BF20E93C00FAD8490728BF20E90C0084
S1132F0048BF40F8042D890028BF20F8022D48BF8F
S1132F1000F8012D30BC7047C91818BF00F8012D06
S1132F20CB0728BF00F8012D7047704701E0491C0A
S1132F30521E72B10B7890F800C09C4505D002D2A5
S1132F404FF0FF3070470120704710F8013B002B11
S1132F50EDD1002070470069643870472DE9F44FC3
S1132F6004000D001E000A9FDDF82C805FF0010BA9
S1132F7000984019401E000900018146B9F164001F
S1132F808246C4F8109015F10F0000090001A061F9
S1132F90C4F814A0642200215046FEF749FB0E48F1
S1132FA0CAF84000CAF82C80706850F00100CAF8D2
S1132FB044005FF08070CAF84800CAF858800020C6
S1132FC0CAF80000CAF804707FF00200CAF82800AA
S1132FD05846BDE8F28F00BFD922000070B5040046
S1132FE00D0029002000FFF7B4FE0600002E01D1D9
S1132FF000F020FD300070BD0100034A126810008B
S1133000014A11607047000008ED00E070B504004B
S1133010DFF8A80300680500002C15D0E869060055
S113302016F14401200000F00FFDFFF78EFD16F1AC
S1133030440215F5B47116F1440000F049FD300066
S113304000F020F8FFF792FD70BD70B50400DFF8C2
S11330506C0300680500002C03D10C20FFF7DBF89B
S11330600FE0E8690600FFF770FD16F1440215F55C
S1133070B471200000F02CFD300000F003F8FFF7DD
S113308075FD70BD2DE9F8430400DFF830030068D6
S1133090804618F5C0708146B8F88801002826D00B
S11330A0D8F880010500B8F88801401C0600761E97
S11330B0002E1CD0D4E91123D5E911018B4204D888
S11330C001D3824201D201270CE0D5E91123D4E9CE
S11330D011018B4205D801D3824202D25FF0FF373F
S11330E000E00027002F02D5A9462D68DFE76168BC
S11330F0080021688C46C0F800C0CCF80400220007
S1133100494618F5C070FFF7A3FEA06850F480701C
S1133110A06018F08FFABDE8F18370B50400DFF801
S1133120A00200680500002C03D10C20FFF773F8FF
S11331300EE0E869060016F144000ECC0EC00C3C0B
S11331400C38FFF702FD3000FFF79CFFFFF70EFD80
S113315070BD10B584B00400002C06D000A800F0A7
S113316005F8210000A800F0DDFC1FBD38B50400FF
S1133170002C1AD0DFF8480200680500FFF7E5FCD0
S113318015F5B4700EC80EC40C380C3CD5F8A0016B
S1133190002805D0D5F8A401D5F8A0118847A0606F
S11331A0FFF7E4FC200000F00FFD31BD10B584B042
S11331B0040000A800F011F8210000A800F0B2FCFF
S11331C01FBDDFF8FC2112681100D1F89421100012
S11331D04FF47A72B2FBF0F0704738B50400002C5B
S11331E020D0DFF8DC0100680500FFF7AEFC15F520
S11331F0B4700EC80EC40C380C3CD5F8A0010028DD
S113320005D0D5F8A401D5F8A0118847A060220004
S113321015F5BA71200000F05BFCFFF7A7FC200055
S113322000F0D2FC31BD2DE9F84FDFF894010068BD
S11332300400D4E95A01401C51F10001C4E95A01C7
S1133240FFF783FCD4F8A001002806D0D4F8A40129
S1133250D4F8A0118847C4F8700114F5B47000F0D4
S1133260B3FCB4F888010600002E4CD0D4F88001D9
S11332700500761C761E002E45D028688346D5E9C5
S11332801123D4E95A018B4204D801D3824201D2DA
S113329001270CE0D4E95A23D5E911018B4205D862
S11332A001D3824202D25FF0FF3700E00027002FF3
S11332B029D4B4F88801401EA4F88801696808007C
S11332C029688A46C0F800A0CAF80400A86830F447
S11332D08070A860A868400510D5A86830F48060A4
S11332E0A860296C0800E96B8946C0F80090C9F809
S11332F00400A86B0089401EA96B08812800FFF711
S1133300DEF85D46B6E7E069050095F82800400759
S11333102ED5D5E92C01401C51F10001C5E92C0141
S1133320A86AC00424D4D5E92923D5E92C018B4209
S113333004D801D3824201D201270CE0D5E92C2321
S1133340D5E929018B4205D801D3824202D25FF02C
S1133350FF3700E00027002F0AD4696808002968B5
S11333608846C0F80080C8F804002800FFF7A7F8D2
S1133370FFF7FCFBD4F83C03002802D0D4F83C034C
S11333808047BDE8F18F0E4A12681100C1F894011C
S113339070470B4A12681100C1F88C017047084B42
S11333A01B681A00C2F8A001C2F8A4117047044AAD
S11333B012681100C1F89C01704700003800FF1F1B
S11333C03800FF1F034800684008400001490860B6
S11333D00020704700D0004010B507480068040082
S11333E0002114F52470FFF7F3FC012114F51D707E
S11333F0FFF7B4F910BD00BF3800FF1F70B403001D
S11334000025002400291AD0002A18D01001B1FB8D
S1133410F0F00500002D0DD0280100FB1210560815
S113342016EB4000B0FBF2F00400202C02D36D1C1C
S113343000200400B5F5005F01D316200EE0280A31
S113344010F01F0018705D70987A10F0E000987208
S1133450987A14F01F0630439872002070BC7047AD
S1133460C17851F00C01C1707047C17811F0F301BB
S1133470C170704770B586B004000D001600049644
S113348003950FF2E11002900FF2791001900FF200
S1133490611000900FF245130FF211120FF20D019B
S11334A0200000F0ADFB06B070BD00002DE9F84F20
S11334B004000D001600606881464846C0B200F062
S11334C071FE0700002F01D12B206CE05820FEF77D
S11334D021FC8046B8F1000F01D1042063E0C5F857
S11334E00080C8F82070404621002022FEF7D2F860
S11334F00120C8F83000D8F8080082461520834619
S11335005946C9B24846C0B2FDF740FF04214846B7
S1133510C0B2FDF73BFFD8F80C2051463800FFF746
S11335206DFF0020B870F87810F0FD00F870B87ADC
S113353010F03F00B872002038720020787200202A
S1133540B871387CC0F30210C0B2002802D1002048
S1133550F87407E00120397CC1F30211491C88404A
S1133560401EF87401207875F87810F0F300F870B4
S1133570387C50F088003874787C50F0C00078743F
S11335805FEACB6003D53800FFF76AFF02E038003A
S1133590FFF76BFF5FEA0B7004D508214846C0B201
S11335A0FDF7F4FE0020BDE8F28F000070B50400C2
S11335B00D00042604216068C0B2FDF7E7FE286A06
S11335C00021C170300704D508216068C0B2FDF73E
S11335D0DDFE2800FEF750FA002070BD0100086AE5
S11335E002799206FCD58A6B521C8A63C0797047B3
S11335F0026A13791B06FCD5D171C36B5B1CC363D0
S11336007047000030B401000A000B6A1C792007DF
S113361002D5D06C401CD064E00702D5506C401C2D
S11336205064600702D5506D401C5065A00702D558
S1133630906C401C90640A2004420BD0D8799D7C85
S1133640ED0707D5587C50F040005874987C50F032
S113365001009874987C400601D4012000E0002009
S113366030BC70472DE9F04104000D001600276AB4
S11336702800C01E00F0708140F6FF41401A00F09F
S11336803781401E70D0401E71D0401E00F07F80F4
S1133690401E00F09580801F2ED0401E18D0401E82
S11336A000F06B81401E00F05E81401E00F0B78088
S11336B0401E00F0A480001F00F09380401E00F024
S11336C09780401E00F03481401E00F03E818FE15F
S11336D008208046B878C0060BD594F83000C0079F
S11336E007D5B878800702D5B87A800601D518F1D5
S11336F00108C6F800807EE13068082804D03068EC
S1133700092801D00C2077E13068082814D194F8F6
S11337103000C00727D5B87A10F0DF00B872B87847
S1133720800704D5B87850F01000B8701BE0B87862
S113373010F0EF00B87016E094F83000C00710D510
S1133740B87850F01000B870B878800704D5B87A0B
S113375050F02000B87206E0B87A10F0DF00B872BA
S113376001E0162048E146E1E068306043E1A068EA
S11337708046326841463800FFF740FE8046B8F183
S1133780000F01D0404637E13068E06033E1606B00
S11337903060361DA06B3060361DE06B3060361D26
S11337A0206C3060361D606C3060361DA06C30605B
S11337B0361DE06C3060361D206D3060361D1AE118
S11337C0002060630020A0630020E06300202064E8
S11337D0002060640020A0640020E06400202065D4
S11337E009E13879C0F3C01010F00100306002E143
S11337F03879C0F3401010F001003060FBE0012084
S11338008046B878800707D5B878C00702D502206B
S1133810804601E003208046C6F80080EBE0306873
S1133820012804D061D3032838D014D35DE0B878DC
S113383080070FD5B87810F0FC00B870B87A80060D
S113384004D5B87A10F0DF00B87203E0B87810F04D
S1133850EF00B8704BE094F83000C00701D4162094
S1133860CAE0B878800704D5B87850F00100B87081
S113387013E0B87850F00300B870B878C00604D5E7
S1133880B87A50F02000B87207E0B87A10F0DF0080
S1133890B872B87850F01000B87028E094F830008E
S11338A0C00701D41620A7E0B878800704D5B878FB
S11338B010F0FE00B87017E0B87850F00200B8704D
S11338C0B87810F0FE00B870B878C00604D5B87A9D
S11338D050F02000B87207E0B87A10F0DF00B87238
S11338E0B87850F01000B87001E00C2084E082E059
S11338F0307880060BD56068FDF776FE787B10F093
S1133900F6007873787B50F0020078730FE030781B
S1133910000708D5787B10F0FD007873787B50F0B1
S11339200900787303E0787B10F0F400787362E0A8
S11339303068012804D1F87810F0FB00F87003E037
S1133940F87850F00400F87055E03879002801D177
S1133950012000E000204EE0B87C0006FCD5387958
S11339604006FCD547E094F83000C00702D501209A
S1133970306001E0032030603DE03068012814D15C
S113398094F83000C00732D4B87A10F0DF00B8726F
S1133990B87810F0EF00B870B87910F0BF00B871C3
S11339A0206B50F00100206321E0306803281CD113
S11339B094F83000C0071AD5B878C00602D4B87895
S11339C0800701D5162017E0B87A10F0DF00B8722E
S11339D0B87850F01000B870B87950F04000B87161
S11339E0206B40084000206301E00C2004E002E06A
S11339F040F6092000E00020BDE8F08110B50C4835
S1133A0000680400D4F8C80100280FD0D4F8CC1101
S1133A10D4F8C80100F0F4FBC4F89C02D4F89C026A
S1133A20C4F8A002D4F89C02C4F8A40210BD00BFDC
S1133A303800FF1F034909680800C16B81F3088837
S1133A40704700BF3800FF1F70B504000D00002050
S1133A50A8601C480068012807D11B480068B4FB13
S1133A60F0F00021C5E900012AE0184800680600CA
S1133A701448006802280BD1D6F89401A0FB040175
S1133A804FF47A72002300F041FCC5E9000117E00D
S1133A904FF47A70D6F89411B0FBF1F00A4908603B
S1133AA009480068D6F894114843B0F57A7F03D1E9
S1133AB0044801210160D0E7024802210160DBE7EC
S1133AC070BD00BF3C01FF1F3801FF1F3800FF1FFE
S1133AD0F0B58646DEE90067D1E9004534197D4139
S1133AE0C2E90045DEF8084020008C6823000C4C35
S1133AF02468D4F89C41A446BCEB0304A0420BD335
S1133B00D2E90045641C55F10005C2E900451C18C2
S1133B10B4EB0C04946001E01C189460F0BD00BF89
S1133B203800FF1F2DE9F04F05000C002548006800
S1133B308346DBF894018246D5E90001524600230E
S1133B4000F0E4FB01290AD301D8002807D35FF071
S1133B50FF30206040F2E7306060002030E0D5E9BB
S1133B6000234FF47A700021A0FB028900FB039923
S1133B7001FB0299A8684FF47A714843DBF89C1161
S1133B80B0FBF1F0002118EB000059EB0101060035
S1133B900F00300039005246002300F0B7FB060046
S1133BA00F00300039004FF47A72002300F0AEFBAE
S1133BB0206020684FF47A7101FB1060606001207E
S1133BC0BDE8F08F3800FF1FD0B40C4A1268110012
S1133BD0D1F89C2114008268A2420DD38268B2FB02
S1133BE0F4F2D0E900670023B6185F41C0E900672A
S1133BF0836804FB12328260D0BC70473800FF1F18
S1133C002DE9F74F84B01C00109D119E129FDDF822
S1133C104C80DDF850903020FEF77CF88246BAF1F3
S1133C20000F01D1042029E040F2F9315046FEF79B
S1133C3049F80598CAF800000698CAF80400CAF8BA
S1133C400840CAF80C50CAF81060CAF81470CAF8D0
S1133C501880CAF82090CDF808A00FF2994001907E
S1133C600FF2513000900FF255130FF219120FF2A8
S1133C701501049800F0C1FB8346584607B0BDE81F
S1133C80F08F00002DE9F84304000D0016005FF0EA
S1133C90000920680700786A8046D8F824000028C4
S1133CA009D0D8F82400401CC8F82400D8F828000B
S1133CB0A060484663E0D8F820001030FDF796FF76
S1133CC0C8F82C00D8F82C00002801D1042056E0B4
S1133CD04FF47F71D8F82C00FDF7F4FFD8F82C00CE
S1133CE0D8F820100160D8F82C0000214160D8F8E1
S1133CF02C0000218160D8F82C000021C160C8F894
S1133D002860A6602A0018F11C01D8F81800D8F819
S1133D10003098478146B9F1000F23D1D8F8140038
S1133D20002808D0009600AA40F60251D8F81C00DA
S1133D30D8F8143098473000C00613D516F00700A1
S1133D40002802D00C2081460CE0D8F8140000288A
S1133D5008D000AA40F61551D8F81C00D8F8143041
S1133D6098478146B9F1000F05D0D8F82C00FDF72B
S1133D7083FE484603E00120C8F824004846BDE815
S1133D80F2830000F8B50400002720680500686A83
S1133D900600706A401E706200280CD1706800280A
S1133DA004D0F169B069726890470700F06AFDF7C2
S1133DB063FE0020F0623800F2BD00002DE9F84FE8
S1133DC004000D001600B246206800900098406A76
S1133DD00700B86A8146F8698346BAF1000F00F01B
S1133DE0E5805FEAC9705FD5F86A4068F96A0968D6
S1133DF0884280F08680584639698847002800F058
S1133E0080805846B968884780465FFA88F8B8F1D8
S1133E10130F2BD15FFA88F8B8F1110FE4D058468C
S1133E20B968884780465FFA88F8B8F1110FF1D075
S1133E30F86A4068F96A09688842EBD2F86AC0688F
S1133E40F96A421CCA60F96A401880F81080F86A5E
S1133E50C068F96A0968884202D1F86A0021C16021
S1133E60F86A4068401CF96A4860D3E7F86A406819
S1133E70F96A09688842B7D2F86AC068F96A421CCC
S1133E80CA60F96A401880F81080F86AC068F96A54
S1133E900968884202D1F86A0021C160F86A406862
S1133EA0401CF96A48609FE7F86A4068F96A096843
S1133EB0884226D2584639698847002821D0584676
S1133EC0B96888478046F86A4068F96A0968884290
S1133ED0EAD2F86AC068F96A421CCA60F96A4018F2
S1133EE080F81080F86AC068F96A0968884202D1CB
S1133EF0F86A0021C160F86A4068401CF96A4860A9
S1133F00D2E7F86A406800284AD0F86A4068002876
S1133F1016D0F86A4068401EF96A4860F86A8068FA
S1133F20F96A421C8A60F96A4018007C8046F86A83
S1133F308068F96A0968884202D1F86A00218160C0
S1133F405FEA89701ED55FFA88F8B8F10D0F09D1C0
S1133F505FEA497003D50D215846FA6890470A2054
S1133F6080460FE05FFA88F8B8F1080F0AD15FEADB
S1133F70497007D508215846FA68904720215846C9
S1133F80FA6890475FEA497004D54146C9B2584679
S1133F90FA68904785F800806D1CBAF1010A1CE7A5
S1133FA05FEAC9607FF519AFB6EB0A063000BDE8D9
S1133FB0F28F00002DE9F04F83B004000D001600CD
S1133FC016F1010A206801900198406A0700B86A56
S1133FD08146F8698346BAF1010ABAF1000F00F08C
S1133FE085805FEAC9705DD5F86A4068F96A096836
S1133FF0884257D2584639698847002852D05846D3
S1134000B968884780465FFA88F8B8F1130F2BD156
S11340105FFA88F8B8F1110FE6D05846B9688847B6
S113402080465FFA88F8B8F1110FF1D0F86A406859
S1134030F96A09688842EBD2F86AC068F96A421CD6
S1134040CA60F96A401880F81080F86AC068F96A92
S11340500968884202D1F86A0021C160F86A4068A0
S1134060401CF96A4860D3E7F86A4068F96A09684D
S11340708842B9D2F86AC068F96A421CCA60F96A0F
S1134080401880F81080F86AC068F96A09688842A4
S113409002D1F86A0021C160F86A4068401CF96ADC
S11340A04860A1E75FEA897006D528780A2803D119
S11340B00D215846FA6890475FEAC96010D57869BF
S11340C000280DD000AA40F61551F8697B6998477D
S11340D0002805D10098002802D1B6EB0A0605E0B5
S11340E02978F869FA6890476D1C74E73000BDE8D8
S11340F0FE8F00002DE9F84F04000D0016005FF05C
S11341000008B346206800900098406A0700280021
S1134110801F09D0C01E01282BD940F6F841401A4F
S113412011D0401E14D030E0B146F86A406800282F
S113413003D00120C9F8000004E0F8693969884710
S1134140C9F800002AE0B246B86ACAF8000025E0BF
S1134150B246DAF80000B862DAF80000A0607869C4
S1134160002805D032002900F8697B699847804609
S113417014E00F20CBF800000020CBF804004C2002
S1134180CBF808000020804608E07869002805D0B4
S113419032002900F8697B69984780464046BDE8AB
S11341A0F28F00000100C9B2002908D002290CD006
S11341B008D304290FD00BD305290FD011E00A4AE4
S11341C0100010E0094A10000DE0094A10000AE04E
S11341D0084A100007E0084A100004E0074A1000EB
S11341E001E000221000704700A0064000B0064025
S11341F000C0064000D0064000A00E4000B00E40B3
S11342002DE9F84F04000D002E480068060016F54D
S11342101D70FEF77CFBD6F89002804616F52470DC
S113422080451DD0D8F808008146A2469AF80000BF
S113423000280ED099F8000000280AD09AF800004F
S113424099F80010884204D11AF1010A19F1010900
S1134250ECE799F80000002802D0D8F80080DDE7E8
S113426016F51D70FEF715FB16F52470804501D177
S1134270002024E02020FDF74DFD0700002F01D190
S113428000201CE010213800FDF71CFDC7F8008059
S1134290D8F80C00002811D02A0021003800D8F8E2
S11342A00C3098478346BBF1000F07D05846FDF702
S11342B0B2FF3800FDF7E0FB002000E03800BDE865
S11342C0F28F00BF3800FF1F13F0004C03D55B4290
S11342D0524263F100039CEA210C00F0178010B5F0
S11342E0644603D34942404261F1000100F00EF8F4
S11342F0640004D34942404261F10001244203D5E1
S11343005B42524263F1000310BD00001B4213D113
S1134310094236D12AB18446B0FBF2F002FB10C246
S1134320704700F087B8FCD30022002370470B00CD
S11343300200002100207047904271EB030CF6D379
S113434070B5B1FA81F4B3FA83F52C1BA340C4F120
S1134350200532FA05F63343A2405FF00046E640FA
S113436002E05B085FEA3202841A71EB030524BFA2
S1134370204629467641F4D302000B003000002188
S113438070BD012ACFD970B5140C20D0B1FA81F4D4
S1134390B2FA82F5C4F120046419B4F12006D6D32C
S11343A0B2405FF00044F440002502E052085FEAA6
S11343B03303C61A71EB020E24BF304671466441C2
S11343C06D41F3D302000B002000290070BD0C46A0
S11343D0B1FBF2F102FB11452D0445EA1045B5FB92
S11343E0F2F402FB145580B240EA0545B5FBF2F045
S11343F002FB105240EA044070BD2DE9FF4704005F
S11344000D0016001F00DDF83080DDF83490DDF873
S113441038A0CDF80CA000200290CDF80490CDF87F
S113442000803B0032002900200000F005F804B0B1
S1134430BDE8F087704700002DE9F84F04000D0037
S113444016000D9F5FF0000B3A4800688046280074
S1134450002802D03000002801D10C2067E00020A1
S11344608246BAF5806F0DD21AF804003A2802D1B8
S11344701BF1010B03E01AF80400002802D01AF122
S1134480010AEEE7BBF1010F02D1BAF1010F01D12C
S11344900C204CE018F51D70FEF739FAD8F890029C
S11344A0814618F52470814512D04FF48062D9F802
S11344B008102000FEF73AFD002806D118F51D70FB
S11344C0FEF7E7F94FF4206031E0D9F80090E8E70F
S11344D02C20FDF71FFC8146B9F1000F05D118F51A
S11344E01D70FEF7D6F9042021E00F214846FDF7A0
S11344F0E9FBC9F80840C9F80C50C9F810600098E5
S1134500C9F814000A98C9F818000B98C9F81C00D7
S11345100C98C9F82000C9F82470494618F524708D
S1134520FEF75CFC18F51D70FEF7B3F90020BDE83A
S1134530F28F00BF3800FF1F70B592B0040000A8CE
S1134540FEF734FE00983C21B0FBF1F005003C205E
S113455095FBF0F006003C2095FBF0F100FB1155B3
S1134560002084F8340000220021200000F0FDFD2A
S11345703200DFF878180CA800F0F8FF0CA9E06806
S113458000F0A7FC2A00DFF8641807A800F0EEFF8B
S113459007A9E06800F09DFC00983C21B0FBF1F213
S11345A001FB1202DFF8441802A800F0DFFF02A9A1
S11345B0E06800F08EFCE06912B070BD30B5DFB089
S11345C00400002084F8340000220021200000F0C0
S11345D0CCFD00F0E6FF05002A68DFF810185AA8A1
S11345E000F0C4FF5AA9E06800F073FCEA6DDFF83C
S11345F0FC1755A800F0BAFF55A9E06800F069FC63
S11346002A6EDFF8E81750A800F0B0FF50A9E06860
S113461000F05FFC6A68DFF8D4174BA800F0A6FF2F
S11346204BA9E06800F055FCEA68DFF8C01746A81B
S113463000F09CFF46A9E06800F04BFCAA68DFF894
S1134640AC1741A800F092FF41A9E06800F041FCDA
S11346502A6DDFF898173CA800F088FF3CA9E068B1
S113466000F037FC6A6DDFF8841737A800F07EFF8E
S113467037A9E06800F02DFCAA6DDFF8701732A8A6
S113468000F074FF32A9E06800F023FCD5F8802024
S1134690DFF858172DA800F069FF2DA9E06800F095
S11346A018FCD5F88420DFF8441728A800F05EFF32
S11346B028A9E06800F00DFCD5F88820DFF82C1755
S11346C023A800F053FF23A9E06800F002FC2A6944
S11346D0DFF818171EA800F049FF1EA9E06800F0D3
S11346E0F8FB6A69DFF8041719A800F03FFF19A95D
S11346F0E06800F0EEFBEA69DFF8F01614A800F0B9
S113470035FF14A9E06800F0E4FBAA69DFF8DC16C1
S11347100FA800F02BFF0FA9E06800F0DAFBD5F832
S11347209020DFF8C8160AA800F020FF0AA9E06864
S113473000F0CFFBD5F88C20DFF8B01605A800F008
S113474015FF05A9E06800F0C4FBD5F89420DFF854
S11347509C1600A800F00AFF00A9E06800F0B9FB6D
S1134760E0695FB030BD30B5ADF52F7D04000020A9
S113477084F8340000220021200000F0F6FC00F050
S11347801CFF05002A68DFF86416AAA800F0EEFEF4
S1134790AAA9E06800F09DFB6A68DFF85016A5A896
S11347A000F0E4FEA5A9E06800F093FBEA68DFF8F6
S11347B03C16A0A800F0DAFEA0A9E06800F089FB8E
S11347C0AA68DFF828169BA800F0D0FE9BA9E06831
S11347D000F07FFB686DA96D0A18DFF8101696A823
S11347E000F0C4FE96A9E06800F073FB2A6DDFF8C0
S11347F0FC1591A800F0BAFE91A9E06800F069FBED
S1134800EA6DDFF8E8158CA800F0B0FE8CA9E0682A
S113481000F05FFB2A69DFF8D41587A800F0A6FE34
S113482087A9E06800F055FB6A69DFF8C01582A823
S113483000F09CFE82A9E06800F04BFBEA69DFF817
S1134840AC157DA800F092FE7DA9E06800F041FB64
S1134850AA69DFF8981578A800F088FE78A9E068BE
S113486000F037FB2A6EDFF8841573A800F07EFE93
S113487073A9E06800F02DFB6A6EDFF870156EA86E
S113488000F074FE6EA9E06800F023FBAA6EDFF866
S11348905C1569A800F06AFE69A9E06800F019FBDC
S11348A0EA6EDFF8481564A800F060FE64A9E068C9
S11348B000F00FFB2A6FDFF834155FA800F056FEF6
S11348C05FA9E06800F005FB6A6FDFF820155AA8BD
S11348D000F04CFE5AA9E06800F0FBFAAA6FDFF87A
S11348E00C1555A800F042FE55A9E06800F0F1FA55
S11348F0EA6FDFF8F81450A800F038FE50A9E06819
S113490000F0E7FAD5F88020DFF8E0144BA800F0B7
S11349102DFE4BA9E06800F0DCFAD5F88420DFF81E
S1134920CC1446A800F022FE46A9E06800F0D1FAB3
S1134930D5F88820DFF8B41441A800F017FE41A987
S1134940E06800F0C6FAD5F88C20DFF8A0143CA883
S113495000F00CFE3CA9E06800F0BBFAD5F890200A
S1134960DFF8881437A800F001FE37A9E06800F0EA
S1134970B0FAD5F89420DFF8741432A800F0F6FDEC
S113498032A9E06800F0A5FAD5F89820DFF85C14A5
S11349902DA800F0EBFD2DA9E06800F09AFAD5F8F7
S11349A09C20DFF8481428A800F0E0FD28A9E0685E
S11349B000F08FFAD5F8A020DFF8301423A800F017
S11349C0D5FD23A9E06800F084FAD5F8A420DFF827
S11349D01C141EA800F0CAFD1EA9E06800F079FAB4
S11349E0D5F8A820DFF8041419A800F0BFFD19A910
S11349F0E06800F06EFAD5F8AC20DFF8F01314A8E4
S1134A0000F0B4FD14A9E06800F063FAD5F8B02012
S1134A10DFF8D8130FA800F0A9FD0FA9E06800F093
S1134A2058FAD5F8B420DFF8C4130AA800F09EFDA4
S1134A300AA9E06800F04DFAD5F8B820DFF8AC1305
S1134A4005A800F093FD05A9E06800F042FAD5F846
S1134A50BC20DFF8981300A800F088FD00A9E068E6
S1134A6000F037FAE0690DF52F7D30BD30B5B3B0F5
S1134A700400002084F8340000220021200000F00B
S1134A8074FB00F0A6FD05002A68D8492DA800F0A3
S1134A906DFD2DA9E06800F01CFA6A68D34928A8C6
S1134AA000F064FD28A9E06800F013FAEA68CF4931
S1134AB023A800F05BFD23A9E06800F00AFAAA68C5
S1134AC0CA491EA800F052FD1EA9E06800F001FAD0
S1134AD0286D696D0818A96D0818E96D0A18C3498D
S1134AE019A800F043FD19A9E06800F0F2F92A6E54
S1134AF0BE4914A800F03AFD14A9E06800F0E9F9F1
S1134B002A69BA490FA800F031FD0FA9E06800F046
S1134B10E0F96A69B5490AA800F028FD0AA9E06825
S1134B2000F0D7F9EA69B14905A800F01FFD05A90D
S1134B30E06800F0CEF9AA69AC4900A800F016FDBF
S1134B4000A9E06800F0C5F9E06933B030BD30B5C4
S1134B50ADF5217D0400002084F8340000220021FA
S1134B60200000F002FB00F040FD05002A689F4988
S1134B709BA800F0FBFC9BA9E06800F0AAF96A6816
S1134B809A4996A800F0F2FC96A9E06800F0A1F911
S1134B90EA68964991A800F0E9FC91A9E06800F060
S1134BA098F9AA6891498CA800F0E0FC8CA9E06807
S1134BB000F08FF9286D696D0818296E0818696E60
S1134BC00818A96E0A18894987A800F0CFFC87A99C
S1134BD0E06800F07EF9EA6E844982A800F0C6FC21
S1134BE082A9E06800F075F92A6F80497DA800F079
S1134BF0BDFC7DA9E06800F06CF96A6F7B4978A878
S1134C0000F0B4FC78A9E06800F063F9D5F88020DE
S1134C10764973A800F0AAFC73A9E06800F059F97A
S1134C20D5F8842071496EA800F0A0FC6EA9E06854
S1134C3000F04FF9D5F888206C4969A800F096FC7B
S1134C4069A9E06800F045F9D5F88C20674964A8A3
S1134C5000F08CFC64A9E06800F03BF9D5F89020E2
S1134C6062495FA800F082FC5FA9E06800F031F9B6
S1134C70D5F894205D495AA800F078FC5AA9E06858
S1134C8000F027F9D5F89820584955A800F06EFC93
S1134C9055A9E06800F01DF92A69544950A800F0AC
S1134CA065FC50A9E06800F014F96A694F494BA803
S1134CB000F05CFC4BA9E06800F00BF9EA694B4991
S1134CC046A800F053FC46A9E06800F002F9AA697E
S1134CD0464941A800F04AFC41A9E06800F0F9F80F
S1134CE0D5F8AC2041493CA800F040FC3CA9E06860
S1134CF000F0EFF8D5F8B0203C4937A800F036FCB6
S1134D0037A9E06800F0E5F8D5F8B420374932A8AF
S1134D1000F02CFC32A9E06800F0DBF8D5F8B820EC
S1134D2032492DA800F022FC2DA9E06800F0D1F84A
S1134D30D5F8BC202D4928A800F018FC28A9E06863
S1134D4000F0C7F8D5F8C020284923A800F00EFCCD
S1134D5023A9E06800F0BDF8D5F8C42023491EA8B3
S1134D6000F004FC1EA9E06800F0B3F8D5F8C820F0
S1134D701E4919A800F0FAFB19A9E06800F0A9F887
S1134D80D5F8CC20194914A800F0F0FB14A9E06868
S1134D9000F09FF8D5F8D02014490FA800F0E6FBE6
S1134DA00FA9E06800F095F8D5F8D4200F490AA8B7
S1134DB000F0DCFB0AA9E06800F08BF8D5F8D820F5
S1134DC00A4905A800F0D2FB05A9E06800F081F8C3
S1134DD0D5F8DC20054900A800F0C8FB00A9E0686C
S1134DE000F077F8E0690DF5217D30BD64B801006D
S1134DF0F8B504000D001600032E47DB002C02D08A
S1134E0014F1010F02D15FF0FF371AE0A068DFF858
S1134E100817884202D05FF0FF3712E0E069806A29
S1134E20002802D15FF0FF300AE00023022096FB45
S1134E30F0F229002000D4F81CC0DCF828C0E047B8
S1134E40070017F1010F42D0002C02D014F1010F1A
S1134E5002D15FF0FF3017E0A068DFF8BC1688428B
S1134E6002D05FF0FF300FE0E069806A002802D1D1
S1134E705FF0FF3008E00023F21B79192000D4F81A
S1134E801CC0DCF828C0E047C71920E0002C02D081
S1134E9014F1010F02D15FF0FF3718E0A068DFF8CA
S1134EA07816884202D05FF0FF3710E0E069806A2C
S1134EB0002802D15FF0FF3008E00023320029000F
S1134EC02000D4F81CC0DCF828C0E04707003800F4
S1134ED0F2BD38B504000D00280000F093FB020079
S1134EE029002000FFF784FF32BDF8B504000D004F
S1134EF016002068476A002F0ED0786900280BD06E
S1134F003900300000F09AFB002803D128007969A9
S1134F10884701E01837F0E70020F2BD2DE9F041A1
S1134F2004000D0016002068076A5FF0FF38002FA8
S1134F300FD0786900280CD03900300000F07EFBD7
S1134F40002804D1280079698847804601E0183791
S1134F50EFE74046BDE8F0812DE9F04385B0040059
S1134F600D00160000208DF80000D5F83801002847
S1134F7001D1C5F83861D5F83801070095F8360134
S1134F8000282ED0DFF89415380000F078FB804616
S1134F90B8F1020F10DBB8F1100F0DDA42463900F8
S1134FA000A800F07DFB00A9002208F801200200FF
S1134FB029002000FFF799FF18F80700252809D1D8
S1134FC018EB070040783E2804D1002085F836010C
S1134FD018F1010818F1010818EB0700C5F83801A9
S1134FE03CE0002080463878002811D0B8F5007FD6
S1134FF00EDA38783C2807D17878252804D10120A6
S113500085F83601BF1C03E07F1C18F10108EAE7AC
S11350104246D5F83811E868FFF7EAFE8146B9F14F
S1135020000F0DD5002085F83601FDF7B7F80068AC
S1135030814640F20340814510D0002080460DE0B7
S1135040C84502D1C5F8387108E0002085F836015A
S1135050D5F8380119EB0000C5F83801404605B011
S1135060BDE8F0832DE9F04705000E0017005FF05E
S11350700008B146B84538DAE868002803D0E86883
S113508010F1010F02D15FF0FF341CE0E868806882
S1135090DFF88414884202D05FF0FF3012E0E86841
S11350A0C069C069002802D15FF0FF300AE0002324
S11350B001224946E868D5F80CC0DCF81CC0DCF8CD
S11350C01CC0E0470400012C07DAE86800F067FB25
S11350D082460020307020000BE019F1010918F11C
S11350E0010819F8010C0A28C4D1002089F800002D
S11350F04046BDE8F087F8B504000D00160000270F
S1135100E068002803D0E06810F1010F02D15FF0DD
S1135110FF371CE0E0688068DFF8FC13884202D0A7
S11351205FF0FF3713E0E068C069C069002802D16E
S11351305FF0FF300AE0002332002900E068D4F871
S11351400CC0DCF81CC0DCF81CC0E04707003800C9
S1135150F2BD020010004368002B04D0036899429A
S113516001D00830F7E74068704770B59AB0040082
S11351700D00160094F82C00002845D1216BDFF8AF
S1135180A003FFF7E6FF0300226BDFF8981300A8E3
S113519000F0ECF900A9E068FFF79BFE14F135017B
S11351A0E068FFF796FEA068002805D0DFF87813C2
S11351B0E068FFF78EFE04E0DFF87013E068FFF7A5
S11351C088FE94F83410DFF86803FFF7C2FF02008A
S11351D0DFF8601300A800F0C9F900A9E068FFF740
S11351E078FE012D09DB2A00DFF84C1300A800F03B
S11351F0BDF900A9E068FFF76CFE94A1E068FFF731
S113520068FE012084F82C001AB070BD2DE9F0412D
S1135210ADF5027D04000D0000272E21686900F021
S1135220D8FA0600002E4CD0DFF81013300000F03E
S1135230D8FA002806D0DFF80813300000F0D1FABD
S1135240002805D1012085F834000120070038E04A
S1135250DFF8F012300000F0C4FA002803D1032074
S113526085F834002DE0DFF8E012300000F0B9FAE0
S1135270002803D1042085F8340022E0DFF8CC12A2
S1135280300000F0AEFA002803D1052085F8340080
S113529017E0DFF8BC12300000F0A3FA002803D1B5
S11352A0022085F834000CE099A1300000F099FA4E
S11352B0002803D1062085F8340002E0072085F891
S11352C03400002F05D0002200212800FFF74DFFF5
S11352D005E00022A86A41692800FFF746FF002F75
S11352E02ED000A8C5F838014FF40072D5F8381153
S11352F0A86A00F09CFA8046B8F1010F1DDB00A8F3
S1135300002108F80010D5F8382129002000FFF703
S113531023FE8046B8F1000F02D10220287044E039
S1135320D5F83C0118EB0000C5F83C010122D5F882
S11353303C11A86A00F0BEFA37E00220287034E07D
S113534000A8C5F838010122D5F83C11A86A00F07C
S1135350B1FA4FF40072D5F83811A86A00F067FA70
S11353608046B8F1010F1EDB00A8002108F80010E8
S11353704246D5F83811E868FFF73AFD8046B8F19F
S1135380000F09D5FCF70AFF006840F20341884288
S11353900BD00220287008E0D5F83C0118EB00007F
S11353A0C5F83C0101E0022028700DF5027DBDE83E
S11353B0F08138B504000D0056A12068C06AFEF7DC
S11353C01FFFA8620020C5F83C01A86A002804D089
S11353D029002000FFF71AFF10E000220021280016
S11353E0FFF7C3FE5B49E868FFF773FD5A49E868B5
S11353F0FFF76FFD5949E868FFF76BFD31BD38B51C
S113540004000D0043A12068406BFEF7F9FEA8627A
S11354100020C5F83C01A86A002804D02900200017
S1135420FFF7F4FE10E0002200212800FFF79DFEA4
S11354304B49E868FFF74DFD4A49E868FFF749FD25
S11354404649E868FFF745FD31BD00000A00000049
S113545002784378DBB21B0953EA82020A7042786D
S11354608378DBB29B0853EA02124A708278C378CD
S113547053EA82128A7070472DE9F84304000D0044
S11354801600B146287800283ED0B9F1000F3BD071
S11354900020070000208046042F20DA2878002806
S11354A018D028782B2810D328787B280DD2287878
S11354B03D280AD018F1010828782B49401810F823
S11354C02B0C303800A9785402E000A8002139548C
S11354D06D1C02E000A8002139547F1CDCE7B8F100
S11354E0020F11DBB8F1010048450DDA210000A8D4
S11354F0FFF7AEFF18EB0400441E00202070B9EB48
S1135500080010F10109BDE70020BDE8F2830000A6
S11355102E6A730072000000534354522089020023
S1135520888A02002C8902003C8902005489020006
S1135530A08A0200688902007C8902009089020026
S113554098890200A0890200A8890200B08902009B
S1135550B8890200C0890200F4890200148A02009A
S1135560248A0200588A0200E88A02000DB478B541
S11355700C0006A80600009623005FF0FF320FF22D
S1135580190105A800F049FA0500059800210170E9
S1135590280072BC5DF810FB0A68531C0B60107085
S11355A0704710B50120FBF749F9C0680400002CCE
S11355B001D0200000E0002010BD10B50120FBF751
S11355C03DF900690400002C01D0200000E0002017
S11355D010BD10B50120FBF731F940690400002C1F
S11355E001D0200000E0002010BD10B50120FBF721
S11355F025F980690400002C01D0200000E000207F
S113560010BD000000F10103810704D010F8011B54
S113561089B18107FAD10268B2F10131914311F0E5
S1135620803F04BF50F8042FF6E710F8011B11B1B6
S113563010F8011BFBE7C01A70470000820707D06F
S113564010F8012B11F8013BBAB19A42F6D014E0DC
S113565002680B689A42A2F1013301BF934313F02D
S1135660803F50F8042F51F8043FF3D010F8012B79
S113567011F8013B0AB19A42F8D0D01A704730B4FD
S1135680024600E0521C13783BB10C462578002DED
S1135690F8D014F8015BAB42F8D1101A30BC704753
S11356A001B58B0718D1121F21D351F8043BA3F184
S11356B0013C2CEA030C1CF0803C04BF40F8043B82
S11356C0F1E79CFA8CFCBCFA8CF1C1F118018B4017
S11356D0CB4040F8043B13E0042A09D311F8013B02
S11356E0521E00F8013B5BB18B07F7D1DBE7121DBB
S11356F05AB111F8013B521E00F8013B03B1F8D135
S113570011001CBF0022FDF7E1FB01BD2DE9F041B2
S113571004000D0016000020FCF752FD01002800D3
S113572000F0DCFF0700002F02D15FF0FF3013E030
S1135730F869006800280DD03800F96909688847BD
S11357408046B8F1000F05D0380001F055F85FF03D
S1135750FF3001E07C833800BDE8F081F8B5040037
S11357600D00260000200700002C06D014F1010FC4
S113577003D0B0681449884202D041F204700DE0AD
S1135780F069806B002805D029002000F269926B33
S113579090470700300001F02FF83800F2BD0100F7
S11357A00A00002902D011F1010F02D141F2047064
S11357B008E09068044B984202D041F2047001E082
S11357C0D2F88C007047000053435452C0F88C1038
S11357D0704738B504000D002900200001F03BF8A3
S11357E032BD00E0491C0278A2F141031A2B38BFF4
S11357F020320B78A3F1410CBCF11A0F38BF2033CF
S11358009A4205D110F8012B002AEBD100207047F1
S11358100078A0F141011A2938BF2030C0B2DBB2B0
S1135820984202D24FF0FF307047012070472DE9B3
S1135830F84304000D001600A8465FF00009002C90
S113584002D15FF0FF3033E0A069002801D0022EBE
S11358501FDB206807007869002804D12C20E06051
S11358605FF0FF3024E0A069002807D0721E18F111
S1135870010120007B699847814605E032004146DA
S113588020007B6998478146B9F1000F01D548464D
S11358900EE0A06900280AD0012E01DA002007E0FA
S11358A0E06988F800000020A06119F10109484668
S11358B0BDE8F2832DE9F041040088461500002C70
S11358C002D15FF0FF3053E0012D04D032D3032D19
S11358D021D009D32EE0B8F1000F02D55FF0FF30DC
S11358E046E0C4F8108028E0A069002804D02069AC
S11358F0002801D0B8F10108B8F1000F06D52069DD
S113590010EB080F02D25FF0FF3031E0206918EB92
S11359100000206111E0B8F1000F06D5606910EBBA
S1135920080F02D25FF0FF3022E0606918EB00003C
S1135930206102E05FF0FF301AE0A069002801D086
S11359400020A061A06830F00800A0602068060074
S1135950F06900280BD0002207212000F369984742
S1135960070040F60920874201D0380000E00020FB
S1135970BDE8F0812DE9F84304000D0016001F0076
S1135980DDF820805FF00009B8F1000F01D5002098
S11359908046C1450DDA19F10100B04206DAFFB2C2
S11359A02100FFB23800A847874202D119F101094A
S11359B0EFE74846BDE8F2832DE9F04704000D0007
S11359C016001F005FF000085FF001093878002816
S11359D01BD0B9F1000F18D018F10100B0420EDA53
S11359E097F800A021003878A847824502D15FF0DB
S11359F0010901E05FF000095FFA89F901E0012083
S1135A00814618F101087F1CE0E73878002801D0AE
S1135A10B8F101084046BDE8F0872DE9F74F96B08C
S1135A201D00229F0020099000200400189810F106
S1135A30010F02D17FF00040189028786D1C8DF87A
S1135A401800C0B2252819D09DF8180000280AD1E2
S1135A50099810F1010F03D15FF0FF3000F05ABD37
S1135A60200000F057BD641C18988442E5DA1699AA
S1135A709DF81800179A90470990DEE728782528A2
S1135A800AD1641C1898844205DA16992878179A62
S1135A90904709906D1CD0E720208DF80A00002063
S1135AA08DF804000420049000200C9000208DF850
S1135AB0080000208DF80B0000208DF8070000205E
S1135AC08DF8140000208DF8090000208DF80600E0
S1135AD000208DF8050000208DF8170000208DF8B7
S1135AE01600287800282BD09DF81600002827D10E
S1135AF02878202816D0232819D02B280DD02D281B
S1135B0002D0302804D017E001200C906D1CE8E787
S1135B1030208DF80A006D1CE3E701208DF8140095
S1135B206D1CDEE701208DF80B006D1CD9E7012008
S1135B308DF807006D1CD4E701208DF81600D0E71E
S1135B400020089028782A2804D1386808903F1D3E
S1135B506D1C0EE0287830280BD328783A2808D218
S1135B6008980A212A7801FB0020303808906D1C1F
S1135B70F0E75FF0FF30824628782E2818D1002005
S1135B8082466D1C28782A2804D1386882463F1D35
S1135B906D1C0DE0287830280AD328783A2807D2DB
S1135BA00A20297800FB0A10B0F1300A6D1CF1E7D5
S1135BB00EA8039028786D1C0790002813D1641C4C
S1135BC01898844204DA16992520179A9047099068
S1135BD0099810F1010F03D15FF0FF3000F09ABC77
S1135BE0200000F097BC07984C2820D0682802D0E9
S1135BF06C280ED021E000200490287807906D1CBA
S1135C000798682804D101200490287807906D1C17
S1135C1013E002200490287807906D1C07986C28E4
S1135C2004D103200490287807906D1C05E004201B
S1135C300490287807906D1CFFE700208DF8080079
S1135C4000208DF8150000200600079843282AD06C
S1135C5044284AD0492848D04E2800F025824F28AD
S1135C6000F06881502800F0B681532833D05528BD
S1135C703ED0582800F0BF81632814D0642834D063
S1135C80692832D06E2800F00F826F2800F052810C
S1135C90702800F0A38173281DD0752828D0782897
S1135CA000F0AF8106E238688DF838003F1D9DF89A
S1135CB03800002803D1761C01208DF8170000203D
S1135CC08DF839000020824620208DF80A0000203B
S1135CD08DF8070000E2386803903F1D20208DF8FE
S1135CE00A0000208DF80700F6E101208DF8150068
S1135CF0BAF1010F02DB01208DF809009DF81500AF
S1135D00002873D00498032835D1FF1D37F0070706
S1135D10D7E90001CDE90A010837DDE90A010029C4
S1135D2003D1002801D1012000E000208DF80500F6
S1135D30DDE90A0100290DDC01DB00280AD22D204F
S1135D408DF80400DDE90A01404271EB4101CDE91F
S1135D500A019AE09DF81400002803D02B208DF846
S1135D60040092E09DF80B00002800F08E802020B3
S1135D708DF8040089E00498002804D1B7F90000E4
S1135D8080463F1D11E00498012804D197F90000D2
S1135D9080463F1D09E00498022803D138688046F4
S1135DA03F1D02E0386880463F1DB8F1000F01D165
S1135DB0012000E000208DF80500B8F1000F05D5A2
S1135DC02D208DF80400D8F100085EE09DF8140041
S1135DD0002803D02B208DF8040056E09DF80B001A
S1135DE0002852D020208DF804004EE004980028AA
S1135DF00BD1388880463F1DB8F1000F01D1012036
S1135E0000E000208DF805003FE0049801280BD144
S1135E10387880463F1DB8F1000F01D1012000E021
S1135E2000208DF8050030E0049802280BD1386872
S1135E3080463F1DB8F1000F01D1012000E0002091
S1135E408DF8050021E00498032813D1FF1D37F0D5
S1135E500707D7E90001CDE90A010837DDE90A019E
S1135E60002903D1002801D1012000E000208DF891
S1135E7005000AE0386880463F1DB8F1000F01D1E3
S1135E80012000E000208DF80500002083460498DE
S1135E90032834D1DDE90A0100290FDC01DB0028E5
S1135EA00CD2DDE90A23DFF82008DFF820181018E7
S1135EB05941CDE90A011BF1010BEBE79DF80800FC
S1135EC0009014230398421CDDE90A0100F07EFBD4
S1135ED0039840781BEB00000399487003984078BE
S1135EE03A2808D3039840780A38039948700398ED
S1135EF0312101701AE00398401C039016E0B8F1B8
S1135F00000F06D5DFF8C80710EB08081BF1010BDA
S1135F10F5E79DF808300A220399404600F002FB99
S1135F20039800781BEB00000399087000208DF89B
S1135F300700D1E0BAF1010F02DB01208DF809005E
S1135F40049803281CD1FF1D37F00707D7E9000187
S1135F50CDE90A010837DDE90A01002903D1002847
S1135F6001D1012000E000208DF805009DF8080013
S1135F7000901623039ADDE90A0100F027FB26E0CE
S1135F800498002803D1388880463F1D10E0049807
S1135F90012803D1387880463F1D09E0049802287F
S1135FA003D1386880463F1D02E0386880463F1DB3
S1135FB0B8F1000F01D1012000E000208DF80500A8
S1135FC09DF808300B220399404600F0ABFA0320F9
S1135FD08DF8060080E001208DF80800002081463D
S1135FE038680D903F1D9DF80830082203990D98DC
S1135FF000F098FA70E001208DF8080001208DF877
S11360000600BAF1010F02DB01208DF809009DF8AA
S11360100600401C8DF80600049803281CD1FF1DBF
S113602037F00707D7E90001CDE90A010837DDE9B0
S11360300A01002903D1002801D1012000E0002039
S11360408DF805009DF8080000901023039ADDE9FF
S11360500A0100F0BBFA26E00498002803D138882E
S113606080463F1D10E00498012803D1387880460B
