S018000068656C6C6F5F7477726B36306E3531322E7372656365
S1130000F0FE00202104000067250100672501009F
S11300106725010067250100672501000000000035
S11300200000000000000000000000008F24010018
S11300306725010000000000052501006725010077
S11300406725010067250100672501006725010078
S11300506725010067250100672501006725010068
S11300606725010067250100672501006725010058
S11300706725010067250100672501006725010048
S1130400FFFFFFFFFFFFFFFFFFFFFFFFFEFFFFFFF9
S107041000000000E4
S11304200E480F490F4A4FF0080333B140F8042B2C
S113043041F8042BA3F10103F7E7EFF3088080F3FD
S11304400988EFF3148040F0020080F31488BFF3AE
S11304506F8F00F009B880F30888704780E100E0EE
S113046080E200E0FFFFFFFFC046C046C046C04632
S113047000F000F800F009F8002801D000F00AF8B4
S1130480002000F01BF800F021F880B500F0B6F869
S1130490012002BD10B5074979441831064C7C444B
S11304A0163404E0081D0A68511888470146A14221
S11304B0F8D110BDC8210100FC21010080B502481B
S11304C000F0D0F8002002BDE02A010000F0F4BAE8
S11304D059484CF22051C1814DF62811C18101883F
S11304E04FF6FE7211400180704710B45349544ACC
S11304F011F582531B6853F0010311F582542360F4
S113050041F204035B5853F4407341F20404635012
S11305104C4B18004FF4A06383624FF4A063C36292
S11305204FF4A06303644FF4A06343644FF4A063E7
S113053083644FF4A063C3644FF4A06303654FF472
S1130540A06343654FF4A06383654FF4A063C36560
S11305503D4B18004FF4A06303604FF4A063436065
S11305604FF4A06383604FF4A063C3604FF4A063AF
S113057003614FF4A06343614FF4A06383614FF4BC
S1130580A063C3614FF4A06303624FF4A0634362AA
S11305904FF4A06383624FF4A063C3624FF4A0637B
S11305A003634FF4A06343634FF4A06383634FF486
S11305B0A063C363254B18004FF4A06303604FF49A
S11305C0A06343604FF4A06383604FF4A063C360EF
S11305D04FF4A06303614FF4A06343614FF4A0633D
S11305E083615FF08053136610BC70471449086040
S11305F04FF416628A60164A4A60704780B51548FF
S11306000068C0F3033000280BD11348006830F0B1
S11306101900114908601148006830F019000F49A9
S1130620086000F0AFFE00F0D7FFFFF75EFF0C4854
S1130630FFF7DCFF01BD000000200540007004400E
S113064000C0004000A0044000B0044000C00440CA
S1130650010007002480044004F0014008F0014038
S1130660000000702DE9F04F83B08246DAF80400F0
S11306700F30000900010400DFF820040460DFF8F3
S113068020042060DFF81C0420604FF45172002124
S1130690200000F0CDFF14F5D4705146302200F054
S11306A0F9FFC4F8AC41D4F8B00100090001C4F862
S11306B0B00100F082F901F0A9FA0700002F02D07E
S11306C0380000F0AFF8D4F8D001002806D0D4F8F0
S11306D0D0018046D4F8B401070018E0D4F8B4017E
S11306E0D82802D2D820C4F8B401D4F8B401103008
S11306F00700380001F07AFA8046B8F1000F02D101
S1130700042000F08FF80221404601F0DBFA3900A2
S1130710404601F07EFE17EB0800401E0009000170
S1130720E063D8200700380001F060FA8146B9F18F
S1130730000F02D1042000F075F80121484601F0B1
S1130740C1FA17EB0900401E00090001834614F1A9
S113075050000600BBF164007061C6F810B019F1D6
S11307600F0000090001B0617069DFF83C130860F4
S113077001F03AFF0700002F02D0380000F052F8D1
S1130780012114F5EC7001F09DFF012114F5A67010
S113079001F098FF02F0D0F80700002F02D03800D3
S11307A000F040F8D4E9BF010A3051F10001C4E976
S11307B0BF01002001900020009001230022E06985
S11307C0C16814F5367001F04FFD0600002E02D109
S11307D0042000F027F8300001F025FED4F8B80119
S11307E005002868002818D0287DC00713D50020EC
S11307F00190002000900023AA69E069C1682800E4
S113080001F032FD0600002E02D1042000F00AF8A7
S1130810300001F008FE2035E3E711F021FE00204E
S1130820BDE8FE8F040002F044F99C48006805000E
S1130830FEE79A4A126811000881704738B504002F
S1130840964800680500082C04D30C2001F097FC9E
S1130850002003E015EB8400D0F8A80232BDF8B5FF
S113086004000D008D4800680600082C04D30C20F9
S113087001F085FC002016E002F01BF916EB840061
S1130880D0F8A8020700002F04D116EB8400C0F8AA
S1130890A85205E0002D03D116EB8400C0F8A8523D
S11308A002F018F93800F2BD2DE9F84F04000D00EC
S11308B01600B6EB050B794800688046082C03D275
S11308C0002D01D0002E04D10C2001F058FC0C2086
S11308D02BE002F0EEF818EB8400D0F8A802A8424E
S11308E003D102F0F7F819201FE018EB8400D0F8C8
S11308F0A8028146B9F1000F0AD05BF809008246CC
S1130900AA4503D102F0E6F819200EE0D146F1E73A
S113091018EB8400D0F8A802070018EB8400C0F894
S1130920A852376002F0D6F80020BDE8F28F2DE916
S1130930F84F04000D001600771B5FF0190B5748A1
S113094000688246082C03D2002D01D0002E04D169
S11309500C2001F014FC0C202DE002F0AAF81AEB94
S11309608400D0F8A802A84209D11AEB840079596E
S1130970C0F8A812002078510020834618E01AEB32
S11309808400D0F8A8028046B8F1000F10D057F8C0
S113099008008146A94509D157F8090047F808001D
S11309A0002047F809000020834601E0C846EBE731
S11309B002F090F85846BDE8F28F2DE9F04137482F
S11309C00068040043F6F83020824FF4D57060824A
S11309D008202060012060600220E0810F206081F7
S11309E00F20A081D4F8B801002802D10120FFF71C
S11309F019FF0120C4F8F8020120C4F81C0101F019
S1130A00C3FD14F150000600E661E08A6083E08AC9
S1130A10B084D4F8A801000440F47F4050F0FF00F3
S1130A20F0600320B060002114F5A07002F06CF9AE
S1130A30002114F5C07002F067F900200700D4F813
S1130A40B801050000208046286800280CD04FF625
S1130A50FF70804508D2E868874201D2E868070041
S1130A6018F101082035EFE7C4F8187114F5367051
S1130A7005000E482860E020A8600D4828610D4854
S1130A806860781CE860002114F5907002F03CF96D
S1130A900120C4F82C01BDE8F08100002800FF1FEC
S1130AA04C29010050290100D800FF1F03000080D9
S1130AB03C290100551301000746384602F086F927
S1130AC0FBE750F8041B61B150F8042BD30744BF73
S1130AD0A9F101039A18002342F8043B091FFAD133
S1130AE0EFE7704770470100DFF8D007007801286E
S1130AF017D1C9B2002908D1DFF8C4071E22027039
S1130B00DFF8C0070A22027007E0DFF8B4071F22EB
S1130B100270DFF8B00780220270C9B2002907D141
S1130B2001E0012015E0DFF8A0078022027003E055
S1130B30DFF89407C0220270DFF88C070078000603
S1130B40FAD4DFF884070078800601D4002000E09E
S1130B501B207047C0B2002824D1DFF87017002290
S1130B600A70DFF86C17096849084900DFF8602744
S1130B701160DFF8601728220A70DFF85C17212261
S1130B800A70DFF8581738220A70DFF85417582211
S1130B900A70DFF850170978C9B211F00C010C295A
S1130BA0F7D1FFE77047C0B2002802D001282AD04D
S1130BB053E0DFF8181700220A70DFF814170968E9
S1130BC049084900DFF808271160DFF80817A82250
S1130BD00A70DFF8041721220A70DFF800173822A0
S1130BE00A70DFF8FC1658220A70DFF8F816097844
S1130BF0C9B211F00C010829F7D1DFF8E816097819
S1130C004906FAD529E0DFF8C41600220A70DFF895
S1130C10C016096849084900DFF8B4261160DFF8F6
S1130C20B416AB220A70DFF8B01621220A70DFF87E
S1130C30AC160D220A70DFF8A81640220A70DFF8FD
S1130C40A4160978C9B211F00C010829F7D1DFF80C
S1130C50941609784906FAD5FFE77047C0B2002810
S1130C6002D0012832D063E0DFF8601600220A7057
S1130C70DFF85C16096849084900DFF8542611605A
S1130C80DFF8541621220A70DFF84816A8220A70E9
S1130C90DFF85416097811F01F01DFF84C261170A3
S1130CA0DFF8381638220A70DFF8341618220A7072
S1130CB0DFF830160978C906FAD4DFF8281609785F
S1130CC0C9B211F00C010829F7D131E0DFF8FC15A5
S1130CD000220A70DFF8F815096849084900DFF8AE
S1130CE0F0251160DFF8F01521220A70DFF8E41511
S1130CF0AB220A70DFF8F015097811F01F01DFF854
S1130D00E8251170DFF8D41500220A70DFF8D01539
S1130D1000220A70DFF8CC150978C906FAD4DFF886
S1130D20C4150978C9B211F00C010829F7D1FFE7FD
S1130D307047C0B2012816D1DFF8981547220A700F
S1130D40DFF8941523220A70DFF8801500220A7058
S1130D50DFF890150978C906FAD5DFF888150978FF
S1130D60C907FAD5FFE77047C0B2002802D00128AE
S1130D7032D063E0DFF85C1544220A70DFF85815BE
S1130D8021220A70DFF86015097811F01F01DFF8DD
S1130D9058251170DFF8341500220A70DFF8301579
S1130DA0096849084900DFF828251160DFF82C1587
S1130DB038220A70DFF8281518220A70DFF8241583
S1130DC00978C906FAD5DFF81C150978C9B211F0FB
S1130DD00C010429F7D131E0DFF8F81447220A7036
S1130DE0DFF8F41421220A70DFF8FC14097811F0FA
S1130DF01F01DFF8F4241170DFF8D01400220A7008
S1130E00DFF8CC14096849084900DFF8C4241160EC
S1130E10DFF8C81400220A70DFF8C41400220A7034
S1130E20DFF8C0140978C906FAD5DFF8B8140978D0
S1130E30C9B211F00C010429F7D1FFE7704770B56E
S1130E4004000025E4B2002C02D0012C03D005E0FC
S1130E500420050002E001200500FFE700F031F85E
S1130E600600EDB2F6B20520DFF8801400FB061090
S1130E702E5CF6B2002E06D0022E0ED008D3042E1D
S1130E8015D00FD318E02000C0B2FFF76DFF13E0B8
S1130E902000C0B2FFF74DFF0EE02000C0B2FFF704
S1130EA0DDFE09E02000C0B2FFF77DFE04E0200073
S1130EB0C0B2FFF74FFEFFE7EDB2F6B2B542D0D1B4
S1130EC070BDDFF810040078C0B210F0C000002834
S1130ED004D0402804D080280BD013E0042012E072
S1130EE0DFF8F4030078800701D400200BE0012030
S1130EF009E0DFF8EC030078400601D4022002E0A8
S1130F00032000E00020704710B50400E4B2032C75
S1130F1001D30220B6E0E4B2002C03D0022C7BD033
S1130F203DD3A7E0DFF894030078022817D1DFF857
S1130F30B003007810F0DF00DFF8A4130870DFF8C6
S1130F40B003DFF8B01301600020FFF778FFDFF88B
S1130F509003007850F02000DFF884130870DFF865
S1130F609003DFF894130160DFF89003006830F019
S1130F700D0050F00200DFF884130860DFF850031E
S1130F80006850F48030DFF848130860DFF870031D
S1130F90006850F40020DFF8681308606AE0DFF8A6
S1130FA01C030078022817D1DFF83403007810F00E
S1130FB0DF00DFF82C130870DFF83403DFF8341394
S1130FC001600020FFF73BFFDFF81403007850F0C6
S1130FD02000DFF80C130870DFF81403DFF8241383
S1130FE00160DFF81803006830F00D0050F00200D3
S1130FF0DFF808130860DFF8D802006850F4803086
S1131000DFF8CC120860DFF8F802006850F4002022
S1131010DFF8EC1208602DE0DFF8C402007810F06D
S1131020DF00DFF8BC120870DFF8C402DFF8C41276
S113103001600120FFF703FFDFF8B4025FF44031E1
S11310400160DFF8B802006800090001DFF8AC12A3
S11310500860DFF87C02006850F48030DFF870121A
S11310600860DFF89C02006850F40020DFF890125A
S11310700860FFE72000C0B2FFF734FDDFF83C0250
S11310800470002010BDDFF83402007870470000BF
S113109080B5FFF71DFA9C48006850F400709A4927
S11310A0086040F2FF300078C0B2FF2810D09748A3
S11310B040F2FF31097801708B48007810F0E000AD
S11310C040F2FE31097811F01F0108438649087087
S11310D08748894901608948006830F00D0050F064
S11310E00200864908607A48006850F480307849E4
S11310F008608348006850F40020814908608448EF
S113110000688449084082490860704800210170E1
S11311106F480068400840006D4908606E4821210E
S113112001706C48A82101706F48007810F01F000E
S11311306D490870694838210170694818210170A7
S113114068480078C006FBD466480078C0B210F046
S11311500C000828F8D15D48002101705C48006843
S1131160400840005A4908605A48A82101705A486A
S113117021210170594838210170594858210170C2
S113118058480078C0B210F00C000828F8D155482F
S113119000784006FBD54D48002101704C4800689A
S11311A0400840004A4908604A48282101704A48DA
S11311B021210170494838210170494858210170A2
S11311C048480078C0B210F00C000C28F8D144480C
S11311D0007850F020004249087001BD4E480021BB
S11311E001604E48007810F0DC0050F050004B498C
S11311F008704B48007810F0DC0050F0400048497B
S113120008704848007810F0EC00464908704648D9
S1131210006850F08050444908604448002101703F
S113122043480021017043480021017042480021D5
S113123001704248007810F0600050F020003F49EF
S113124008703F48007810F0FC0050F084003C49DE
S113125008703C4830210170704770B504000026C6
S11312602000C0B2FFF750FE0600B6B2002E02D036
S1131270300080B20AE000212000C0B201F0B4FDC9
S11312800500C821280001F035FB002070BD80B5A1
S1131290FFF7F9FE02BD0200D2B2032A0BD2C9B293
S11312A01E2908D2C9B2D2B22820274B00FB023033
S11312B050F8210000E00020704700000801FF1FE3
S11312C00A4006400B4006400840064000500640D5
S11312D004800440004006400140064004400640AB
S11312E0054006400640064003400640242A01000B
S11312F0448004400000330100001301488004408E
S113130000700440000077773880044002400640B3
S113131048900440FFF8FFFE1480044000D00740CA
S113132001D0074002D007403480044000C0074089
S113133001C0074002C0074003C0074004C0074083
S113134008C0074002E00740402A010010B500240D
S11313500020FFF7C8FB0400A4B2002C02D0200038
S113136080B20AE00120FFF7BEFB0400A4B2002C07
S113137002D0200080B200E0002010BD80B5FFF74D
S11313802DFF01BD80B5FFF783FE01BD30B402001F
S1131390DFF88032D2B2002A0AD0022A54D02DD3E8
S11313A0042A00F09D8075D3052A00F0BF80E3E095
S11313B0DFF864020400C80705D54FF45070A0613B
S11313C04FF45070E061880703D50020A06100202D
S11313D0E061480707D541F23400C05850F48060FA
S11313E041F23405E850080707D541F23400C058EB
S11313F030F4806041F23405E850C0E0DFF81C02AC
S11314000400C80705D54FF45070E0604FF45070E5
S11314102061880703D50020E06000202061480790
S113142007D541F23400C05850F4006041F234054D
S1131430E850080707D541F23400C05830F4006082
S113144041F23405E8509AE0DFF8CC010400C80703
S113145005D54FF45070A0604FF45070E0608807D9
S113146003D50020A0600020E060480707D541F2C2
S11314703400C05850F4805041F23405E850080755
S113148007D541F23400C05830F4805041F234059D
S1131490E85074E0DFF884010400C80705D54FF470
S11314A0507020644FF450706064880703D50020A6
S11314B0206400206064480707D541F23400C05816
S11314C050F4005041F23405E850080707D541F2C2
S11314D03400C05830F4005041F23405E8504EE076
S11314E0DFF83C010400C80705D54FF4507060666E
S11314F04FF450702066880703D5002060660020F2
S11315002066480707D541F22800C05850F480608F
S113151041F22805E850080707D541F22800C058D1
S113152030F4806041F22805E85028E0DFF8F0004C
S11315300400C80705D54FF4507020624FF4507072
S11315406062880703D5002020620020606248079B
S113155007D541F22800C05850F4006041F2280534
S1131560E850080707D541F22800C05830F400605D
S113157041F22805E85002E05FF0FF3000E000206F
S113158030BC704710B40100224B264802004FF4CF
S1131590806010634FF4806050634FF48060906308
S11315A04FF48060D0634FF4806010644FF4806027
S11315B050641D4802004FF4846010604FF4806052
S11315C0506041F22C00C05850F0010041F22C044C
S11315D0E050002010BC70471448006850F4785064
S11315E0124908600020704701000800032802D057
S11315F0042806D00BE0094802004FF440709064C0
S113160005E0074802004FF44070D066FFE7002071
S1131610704700000070044000C0044000B0044063
S113162000D004400090044000A0044038800440EE
S113163070B504000D0016002A003100200001F0EE
S1131640DDFB200070BD10B450F8041B81B10268AA
S11316501218001D50F8043BDC0744BFA9F1010433
S1131660E31852F8044B43F8044B091FF9D1EBE794
S113167010BC704762B38B0708D0521E11F8013BAF
S113168000F8013B00F024808B07F6D1830740F07B
S1131690208000BF103A07D330B4B1E83810103AB4
S11316A0A0E83810F9D230BC530724BFB1E80810C1
S11316B0A0E8081044BF51F8043B40F8043BD207AB
S11316C024BF31F8022B20F8022B44BF0B7803709F
S11316D07047083A07D3B1E80810083A40F8043BC9
S11316E040F804CBF7D25307E4E700002DE9F74FA5
S11316F004001D005FF00008DDF808B0DBF8080006
S1131700DFF83416884204D0382000F038FD002079
S113171078E00C34102C01D21020040014F10F00D6
S11317200409240101F0C5F9DBF814000600002EB9
S113173062D0CBF8186001F0CDF901F0BAF9DBF80A
S113174018000600002E57D0DBF81400864200D1A2
S1131750B04630688146A1454BD3B9EB04008246BC
S1131760BAF1100F0AD3A0190700C7F800A0C7F8F0
S113177004B0B068B860B760346002E04C46B0684A
S11317800700DBF81400864202D1CBF8147001E0A4
S1131790C8F80870DBF81400CBF81800DBF8140064
S11317A0CBF81C00DBF81400CBF82000DBF80C00AD
S11317B0CBF82400DBF80C00CBF828000198C068B3
S11317C0308100207081C6F804B0DBF82C00B042F0
S11317D001D2CBF82C6001F07DF9002D06D0B4F1D4
S11317E00C02002116F10C00FFF722FF16F10C0089
S11317F008E0B046B6689AE701F06CF9042000F0FE
S1131800BEFC0020BDE8FE8F2DE9FC4F83B083466B
S11318100C005FF00008DDF810A0DAF80800DFF82B
S11318201815884204D0382000F0A9FC00208BE071
S11318301BF10C0BBBF1100F01D2102083461BF1DE
S11318400F005FEA101B5FEA0B1B01F032F9DAF8B4
S113185014000500002D71D0CAF8185001F03AF9AF
S113186001F027F9DAF818000500002D66D0DAF83F
S11318701400854200D1A84628688146B4F10C00C2
S113188015F11001884256D319EB05001BEB040136
S11318900C3988424FD3B4F10C000600701B019040
S11318A0B9EB0B000199401A009001982860009848
S11318B010280AD31BEB0600070000983860C7F80D
S11318C004A0A868B860AF6004E0009810EB0B0BAC
S11318D0A8680700C6F800B0B760DAF81400CAF8C0
S11318E01800DAF81400CAF81C00DAF81400CAF870
S11318F02000DAF80C00CAF82400DAF80C00CAF860
S113190028000398C068308100207081C6F804A0C4
S1131910DAF82C00A84201D2CAF82C5001F0DAF807
S11319200E98002805D0BBF10C0200212000FFF71F
S11319307FFE200008E0A846AD688BE701F0CAF8F6
S1131940042000F01CFC002005B0BDE8F08F70B549
S11319500400DFF8E803006805000023D5F8142329
S1131960E9692000FFF7C2FE0600300070BDF8B53B
S113197004000D00DFF8C403006806000020009096
S1131980D6F81433F26929002000FFF73DFF070061
S11319903800F2BDF8B504000D00DFF8A0030068BC
S11319A0060000232200F1692800FFF79FFE0700CC
S11319B03800F2BD70B50400DFF88003006805004C
S11319C00123D5F81423E9692000FFF78FFE0600F0
S11319D0300070BDF8B504000D00DFF86003006846
S11319E0060001232200F1692800FFF77FFE0700AB
S11319F03800F2BD2DE9F84304000D001600DFF8AD
S1131A003C0300680700701981465FEA1910000161
S1131A10206115F10F00000900018046C4F80C8014
S1131A20C4F82C802069B0EB0800C8F8000000203E
S1131A30C8F80800C8F80440C4F81480C4F8188032
S1131A40C4F81C80C4F8208001F033F8D7F80803E8
S1131A50002804D1002117F5427001F055F9210046
S1131A6017F5427001F056F901F034F8DFF8C802B6
S1131A70A0602000BDE8F2832DE9F8430400DFF8FC
S1131A80BC0200680500002C04D1012000F077FBA3
S1131A90012099E0B4F10C00060070688046D8F883
S1131AA00800DFF89412884204D0382000F067FB65
S1131AB0382089E03089E969C96889B2884209D047
S1131AC030894FF6FF71884204D0032000F057FBA1
S1131AD0032079E000F0EDFFD8F814000700D8F8EF
S1131AE01400002803D0D8F81400864218D2D8F87D
S1131AF01400070030688019B8420BD13068396887
S1131B0008183060B868B0600C2200213800FFF774
S1131B108FFD00E0B760C8F814600020814613E030
S1131B20B868864202D3B868002802D101208146F1
S1131B300AE0BF68C8F81C7000F0CCFF00F0B9FFE1
S1131B40D8F81C000700CAE7B9F1000F25D03068A7
S1131B508019B96888420DD13068B96809680818D5
S1131B603060B8688068B0600C220021B868FFF764
S1131B705FFD01E0B868B0603868C019B0420BD1AD
S1131B803868316808183860B068B8600C220021E1
S1131B903000FFF74DFD00E0BE60D8F81400C8F82F
S1131BA01800D8F81400C8F81C00D8F81400C8F8B5
S1131BB02000D8F80C00C8F82400D8F80C00C8F8A5
S1131BC0280000F087FF0020BDE8F283F8B5040088
S1131BD00D005A48006806000023220016F1500147
S1131BE02800FFF783FD07003800F2BD70B504003C
S1131BF05248006805000023D5F8142315F150015C
S1131C002000FFF773FD0600300070BD70B54B482F
S1131C100068040014F5517006003500C4F814532C
S1131C203036D4F8B001821B31002800FFF7E2FE01
S1131C30002070BD2DE9F84304000D00A8463F487C
S1131C4000680600B8F1000F05D1D6F814030700A8
S1131C50F868804609E0B5F10C008046D8F8040025
S1131C600700D8F8000010EB080800F022FF78699C
S1131C7081463869804519D2B8F80800E16889B20C
S1131C8088420ED1B9F1000F04D0C14502D2D9F86F
S1131C900890F7E7C14504D000F01CFF18F10C00D0
S1131CA00EE0D8F8000010EB0808E2E73F68F86897
S1131CB08046D6F814038742D9D100F00BFF0020E8
S1131CC0BDE8F2830200002A05D0B2F10C00030043
S1131CD05981012000E00020704718490968080074
S1131CE0D0F81403C06A7047B0F10C031A00CB6833
S1131CF013817047F8B504000D0010480068060011
S1131D000123220016F150012800FFF7EFFC070021
S1131D103800F2BD70B504000848006805000123CE
S1131D20D5F8142315F150012000FFF7DFFC06005D
S1131D30300070BD0000000070656D6C2800FF1F4E
S1131D402DE9F04782B004000D0016001F005FF07B
S1131D50000ADFF8100500688046002D04D5152020
S1131D6000F00DFA002031E0A4B2002C03D1D8F821
S1131D70A801040012E0A4B2B4F5807F04D31320B8
S1131D8000F0FDF9002021E0A4B2D8F8A8018442B3
S1131D9004D0132000F0F3F9002017E0009700238B
S1131DA000223100280000F005FA8146B9F1000F45
S1131DB00BD0D9F80C00824600F07BFE484600F0B8
S1131DC032FB00F087FE10F04FFB5046BDE8F6876B
S1131DD070B504000D001600002332002900200015
S1131DE080B2FFF7ADFF70BD2DE9F34F83B0DFF88C
S1131DF0740400688246039800280CD00398000CF1
S1131E00ADF80200BDF80200DAF8A81189B28842E0
S1131E1001D012202AE1039800F086F98346BBF131
S1131E20000F03D01AF15000834501D112201DE1A7
S1131E301AF5A67000F01FFD00F03BFEDBF8080069
S1131E40092807D100F046FE1AF5A67000F0D5FC6B
S1131E5000200BE1DBF8080002280CD1DAF81C00A2
S1131E6083453DD0DBF804100800DBF800100C00BB
S1131E700460606034E0DBF80800C0051DD5DBF8C1
S1131E800800C0052CD5DBF804100800DBF80010AE
S1131E900D0005606860BAF88801401EAAF8880140
S1131EA0DBF8080030F48070CBF80800DBF8080099
S1131EB050F00300CBF8080012E0DBF808008005BE
S1131EC00ED5DBF804100800DBF800100E000660E5
S1131ED07060DBF838000089401EDBF83810088198
S1131EE0DBF8080040050ED5DBF840100800DBF8ED
S1131EF03C100F0007607860DBF838000089401E52
S1131F00DBF8381008810920CBF8080000F0E2FD66
S1131F1000200400102C0DD21AEB8400D0F83402F7
S1131F20002805D058461AEB8401D1F834128847AA
S1131F30641CEFE7DBF80C00ADF80000DAF81C00D5
S1131F4001909BF8280080061ED400215846FFF714
S1131F5071FE0400002C17D021005846FFF76AFEDA
S1131F6005000198584504D01AF150012000FFF7EC
S1131F70BBFE5C4506D0DBF88C00844202D0200016
S1131F80FFF77AFD2C00E5E75FF00040CBF80C008A
S1131F90BAF82801012806D10120CAF82C01002032
S1131FA0CAF830010EE0BDF80000DAF82C118842BE
S1131FB008D2BDF80000CAF82C01DBF870006C38B8
S1131FC0CAF83001DBF870100800DBF86C108846A2
S1131FD0C0F80080C8F80400BAF82801401EAAF826
S1131FE028011AF5A67000F008FC019883452AD14F
S1131FF000F05FFDDBF804100800DBF800108946F0
S1132000C0F80090C9F80400584600F02AFF9BF875
S11320102800800615D4DBF88C00002809D01AF1BA
S11320205001DBF88C00FFF75FFEDBF88C00FFF754
S113203023FD1AF150015846FFF756FE5846FFF7A4
S11320401BFD10F00FFA584600F00BFF9BF8280018
S113205080060AD4DBF88C00002803D0DBF88C005F
S1132060FFF70AFD5846FFF707FD002005B0BDE85D
S1132070F08F10B5040000212000FFF7B5FE10BD5D
S113208038B50400200000F04FF80500002D01D001
S1132090A86E00E0002032BD70B504002600DFF811
S11320A0C40100680500F068000C80B2D5F8A811DE
S11320B0884203D0122000F062F811E000F0F9FC2D
S11320C0B068022805D100F005FD112000F057F892
S11320D006E0300000F0A7F900F0FCFC10F0C4F9B1
S11320E070BD81B000208DF800005E4800680100DA
S11320F000A8CA699269904201D2012000E0002040
S113210001B07047574909680800018B002902D0C3
S1132110406BC06801E0C069C06D704751490968EF
S11321200800C069C0687047F8B504004D480068ED
S11321300700002C01D1F86920E0F86D844202D137
S113214017F150001AE000F0B4FCD7F820016C3805
S11321500500B7F8280106003000461E00280AD002
S1132160E868A04203D100F0B5FC280006E0E86E60
S1132170B0F16C05F0E700F0ADFC0020F2BD010009
S1132180384B1B681A00138B002B03D0536BDB688E
S1132190180002E0D369DB6D1800002901D0002883
S11321A007D1138B002B02D0536BD96001E0D369A4
S11321B0D96570472DE9F74F04000D001E0029482A
S11321C000680700002C17D000208246AB46D7F8E1
S11321D0B8018146D9F80000002806D0D9F80000DB
S11321E0A04202D019F12009F4E7D9F80000002830
S11321F008D10020814605E0A946D9F81800834695
S113220001208246B9F1000F04D11020FFF7B7FF77
S1132210002013E017F5A67000F02DFB019602983C
S1132220009053465A46F869C168484600F01CF8C5
S1132230804617F5A67000F0E0FA4046BDE8FE8F30
S113224038B5CA4800680400E0690500D5F8840080
S1132250002802D0D5F8840080470020FFF709FF4A
S113226031BD00002800FF1F2DE9F64F85B00400A2
S11322709B46DDF840907B4800688046D8F81801FA
S1132280E168884208D218F53670844204D00E20E2
S1132290FFF775FF0020B9E0B9F1000F17D01198CE
S11322A00700B7F5CA7F04D80220FFF768FF0020B3
S11322B0ACE000234A4602A9380000F0D5F8050036
S11322C002983F1ABBF1000F18D0203F16E0A06817
S11322D00700D92F01D2D820070017F10F000709F2
S11322E03F01BBF1000F02D017F1200000E03800DD
S11322F00023002202A900F0B7F80500002D04D144
S11323000A20FFF73CFF002080E00320A860D5F8F6
S11323108C00002803D0D5F88C00060002E0029857
S113232040190600BBF1000F0CD003962036039829
S113233021002022FFF7AEF903980400206850F032
S1132340004020603900300000F063F8E0687FF05E
S11323500F01D8F8202001FB00208246C5F81CA0FC
S1132360C5F820A0BAF80C00A8846069A862B9F185
S1132370000F03D0A86A50F02000A86206980190CC
S1132380BAF80C00009023003A003100280000F055
S113239069FD002801D1002038E0AC662068686639
S11323A0E069002808D0D5E92923E0690021101844
S11323B05941C5E9290109E015F1A40018F53F7157
S11323C0B1E80C10A0E80C100C390C38D8F8F8025D
S11323D0022803D1A86A50F00400A862D8F89C022D
S11323E06867D8F8A002A867D8F8A402E867059837
S11323F02866B9F1000F08D129002800FFF774FC02
S11324002900D5F88C00FFF76FFC280007B0BDE861
S1132410F08F8908491C491E002903D0544A0260E0
S1132420001DF8E7704710B4504C24682100C469BB
S11324302200546823004C6A944200D24A62022467
S1132440846043601C680460186050600024C0F815
S1132450B0400024C0F8B4400024C0F8B84010BC18
S1132460704700002800FF1F2DE9FB4F82B01400C5
S11324705FF0BC093D4800680500B5F828014FF637
S1132480FE71884201D300206CE00398C0F80090EC
S1132490002C06D0A3464A4600215846FFF7C8F848
S11324A022E04846FFF786FA8346BBF1000F04D0CA
S11324B00298FFF74CFACBF88C00BBF1000F01D166
S11324C058464FE0DBF88C00002804D15846FFF74B
S11324D0D3FA002046E024215846FFF7F3FB2521D8
S11324E0DBF88C00FFF7EEFBD5F82C018246D5F81B
S11324F030010600D5F8A8011FFA8AFA5AEA00400A
S1132500CBF80C00002E03D115F59070009002E07A
S113251016F16C0000901BF16C02009915F5907097
S113252000F032FCD8464646F06E6C380700B846D8
S11325301AF1010A1FFA8AFABAF1000F01D1012037
S1132540824615F59070874205D0F86880B21FFA6C
S11325508AFA5045E7D0C5F830611FFA8AFAC5F8FF
S11325602CA1584605B0BDE8F08F00002800FF1FDD
S11325706B6174730200D36D1800002901D0002828
S113258000D1D1657047000030B4324C246820007B
S113259010F5D47421004C692200082A04D30724BE
S11325A0220007244C6105E0002A03D10124220003
S11325B001244C61540114F0E004C482002423007B
S11325C06A2B04D2244CC0251D555B1CF8E7234C10
S11325D000252B00042B05D25FF0FF3544F823506F
S11325E05B1CF7E730BC7047F8B51A480068040074
S11325F000202062D4F81801801C06003001FFF787
S1132600D9F90500002D01D1042022E0052128007C
S1132610FFF758FB37003800471E002816D02D60FE
S11326206D60EF81D4F8BC01C019072807D2D4F833
S1132630BC01C019400110F0E000A88101E0C020F5
S1132640A881206AA86025621035E4E7206A6062E8
S11326500020F2BD2800FF1F00E400E080E100E05C
S11326602DE9F84304000D0016001F00DFF87C027A
S113267000688046A561002114F1080000F044FBC5
S113268000F017FA002E15D1D8F84001814618F54C
S1132690A070814509D0A14504D100F01BFA4FF484
S11326A082600DE0D9F80090F1E7210018F5A070E0
S11326B000F030FBDFF83802606100F00BFA002014
S11326C0BDE8F28338B504000D0000230022290080
S11326D02000FFF7C5FF32BD38B504000D0000230C
S11326E0012229002000FFF7BBFF32BD2DE9F0478E
S11326F004000D00DFF8F4010068060000F0D9F9C9
S11327006069DFF8EC11884203D000F0E3F91F2080
S11327104CE000206061208A002829D014F10800D0
S113272000F018FB8146B9F13C09D9F80800C0054E
S11327301AD5D9F804100800D9F800108A46C0F850
S113274000A0CAF80400B6F88801401EA6F8880163
S1132750D9F8080030F48070C9F80800D9F80800E6
S113276050F00300C9F808004846FFF75CFED2E7C2
S1132770D6F84001070016F5A070874211D0A74291
S11327800DD16168080021688846C0F80080C8F847
S11327900400B6F84801401EA6F8480101E03F686D
S11327A0E9E700F097F90FF05FFE0020BDE8F0873D
S11327B010B5040000212000FFF798FF10BD70B58C
S11327C00400DFF82801006805006069DFF82011C3
S11327D0884201D000200FE000F06BF9A0690128C5
S11327E002DA0020060004E0A069401EA061012076
S11327F0060000F06FF9300070BDF8B505003B48E5
S11328000068060068693A49884201D01F2031E017
S113281000F04FF9A869002826D4288A002823D07C
S113282015F1080000F096FA07003C3FB868C005AF
S113283012D57968080039680C0004606060B6F845
S11328408801401EA6F88801B86830F48070B8602A
S1132850B86850F00300B8600020B8633800FFF790
S1132860E2FD0FF001FE02E0A869401CA86100F03F
S113287031F90020F2BDF8B504001C4800680500D9
S1132880288B002801D00D202FE060691849884268
S113289001D01F2029E000F00CF9A069012816DA04
S11328A0E869060040F22B40B06014F10800B06300
S11328B07168080031680F000760786016F13C0108
S11328C014F1080000F026FA0FF0DCFD02E0A06924
S11328D0401EA06160690649884203D000F0FAF8FE
S11328E01F2002E000F0F6F80020F2BD2800FF1FD0
S11328F06D73776CB0FBF1F2521E544B1A60704743
S113290010B500F06DFA0021C0B200F06DFA0400B9
S1132910C8212000FFF7EEFF4D48072101604D4814
S1132920006850F080504B4908604B48006850F0F4
S113293080404949086010BD70B5484800680400EB
S113294042F26200FDF775FF5FF000510020FFF7CF
S11329500EF8FA21002000F0C5FA0500002D01D080
S113296028004CE03E4800F0CBFA06000F2000F0AF
S113297063FC00220FF289010F2000F027F90028E0
S113298001D126203BE0FEF7F9FCFFF7B9FF012057
S1132990FEF763FC002801D0262030E0FEF7D6FCC9
S11329A0002801D026202AE00020FEF756FC00284B
S11329B001D0262023E02948006804002948C4F8EF
S11329C09801C82000F032FCD4F8980100F042FCD1
S11329D000210FF2390000F035FC00F045FC00F056
S11329E04DFC0500002D01D0280008E01E480268B7
S11329F01D491E4800F090FC00F052FF002070BDFD
S1132A0010B5040000F062FB10BD000010B401001A
S1132A10002423000D4C24682402240A641C200092
S1132A20134C24682402240A2200124C24686401F2
S1132A3005D50F4C24682402240A22000300002A2E
S1132A4000D10200801A181810BC704714E000E08E
S1132A5010E000E01CED00E020ED00E02800FF1F86
S1132A600000000000530700B82A0100DC2901001F
S1132A7018E000E004ED00E0F8B50500DFF87C02A2
S1132A8000680600F069070000F013F8B8680B2826
S1132A900CD00B20B860BD6341213800FFF76AFDFC
S1132AA07968080039680C000460606000F012F86E
S1132AB0F1BDDFF8481209680800C169496D0029B1
S1132AC002D1C18A81F31188C169496D491CC26967
S1132AD051657047DFF8241209680800C169496D1F
S1132AE0002911D0C169496D491EC2695165002987
S1132AF00AD1018B002904D0416B896881F31188C4
S1132B0002E0418B81F31188704770B50400DFF84F
S1132B10EC0100680500A86B002804D11820FFF719
S1132B202EFB002021E0E86A844202D3286BA042F5
S1132B3004D21420FFF723FB002016E0FFF7B9FFAF
S1132B40E86A201AC008A96B51F820000600002E7C
S1132B5004D03068A04201D03669F8E7FFF7BAFF25
S1132B60002E01D0706800E0654870BD70B50400A7
S1132B70624800680500A86B002804D11820FFF7FC
S1132B80FEFA002021E0E86A844202D3286BA042C6
S1132B9004D21420FFF7F3FA002016E0FFF789FFB0
S1132BA0E86A201AC008A96B51F820000600002E1C
S1132BB004D03068A04201D03669F8E7FFF78AFFF5
S1132BC0002E01D0F06800E0002070BD2DE9F8432C
S1132BD004000D001600494800680700B86B00287F
S1132BE004D11820FFF7CBFA00204FE0F86A8442A2
S1132BF002D3386BA04204D21420FFF7C0FA00209D
S1132C0044E0FFF756FFF86A201AC008B96B51F880
S1132C1020008046B8F1000F06D0D8F80000A0428A
S1132C2002D0D8F81080F5E7B8F1000F22D11420B3
S1132C30FEF7DCFF8046B8F1000F06D1FFF74AFF2C
S1132C400420FFF79CFA002020E023214046FFF7F0
S1132C5039F8F86A201AC008B96B51F82000C8F88E
S1132C601000F86A201AC008B96B41F82080244883
S1132C70814602E0D8F804008146C8F80040C8F84C
S1132C800450C8F80C60FFF725FF4846BDE8F283FE
S1132C902DE9F04104000D00A54201D20C202BE0E7
S1132CA01648006806001748C6F80C011448B062BC
S1132CB0281B401CC008401C80465FEA8800FFF7C0
S1132CC029F80700002F01D1042015E00321380062
S1132CD0FEF7F8FFB763F4623563A6F84083032078
S1132CE0A6F842034046B0F10108002803D00020B2
S1132CF047F82800F6E70020BDE8F0812800FF1F10
S1132D00792A0000672501000060406000220281EA
S1132D104181704738B504000D00FFF7CAFE608991
S1132D20002807D020896189884203D3FFF7D2FEA7
S1132D3000200EE0616809680800286061680D6081
S1132D406168696045602089401C2081FFF7C2FEEC
S1132D50012032BD70B50400FFF7ABFE20890028C6
S1132D6003D1FFF7B7FE00200DE020680500696875
S1132D70080029680E00066070602089401E2081CA
S1132D80FFF7A8FE280070BD70B504000D00160002
S1132D90002D00D12500FFF78CFE6089002807D0A4
S1132DA020896189884203D3FFF794FE00200BE059
S1132DB02968080030602E60756046602089401CD8
S1132DC02081FFF787FE012070BD0000C046C04689
S1132DD0024A11001820ABBEFBE700BF2600020028
S1132DE080B5FEF754FA02BD38B504000D00290081
S1132DF0C9B22000C0B2FEF74EFA32BD62F30F2210
S1132E0062F31F42401810F0030308D0C91A1FD3FD
S1132E10DB0748BF00F8012D28BF20F8022D13005E
S1132E2030B414461546103928BF20E93C00FAD8BE
S1132E30490728BF20E90C0048BF40F8042D890049
S1132E4028BF20F8022D48BF00F8012D30BC704780
S1132E50C91818BF00F8012DCB0728BF00F8012DB1
S1132E60704770472DE9F44F04000D001E000A9FBF
S1132E70DDF82C805FF0010B00984019401E00091A
S1132E8000018146B9F164008246C4F8109015F13E
S1132E900F0000090001A061C4F814A064220021FD
S1132EA05046FEF7C5FB0E48CAF84000CAF82C800D
S1132EB0706850F00100CAF844005FF08070CAF8EE
S1132EC04800CAF858800020CAF80000CAF8047004
S1132ED07FF00200CAF828005846BDE8F28F00BF10
S1132EE04122000070B504000D0029002000FFF706
S1132EF0CFFE0600002E01D100F0EEFC300070BDC4
S1132F000100034A12681000014A11607047000072
S1132F1008ED00E070B50400DFF844030068050024
S1132F20002C15D0E869060016F14401200000F0D9
S1132F30DDFCFFF7BEFD16F1440215F5B47116F180
S1132F40440000F017FD300000F020F8FFF7C2FD48
S1132F5070BD70B50400DFF8080300680500002C9C
S1132F6003D10C20FFF70BF90FE0E8690600FFF727
S1132F70A0FD16F1440215F5B471200000F0FAFC2E
S1132F80300000F003F8FFF7A5FD70BD2DE9F8430C
S1132F900400DFF8CC020068804618F5C070814652
S1132FA0B8F88801002826D0D8F880010500B8F8C0
S1132FB08801401C0600761E002E1CD0D4E9112383
S1132FC0D5E911018B4204D801D3824201D20127F1
S1132FD00CE0D5E91123D4E911018B4205D801D3C2
S1132FE0824202D25FF0FF3700E00027002F02D5B3
S1132FF0A9462D68DFE76168080021688C46C0F89F
S113300000C0CCF804002200494618F5C070FFF750
S1133010BBFEA06850F48070A0600FF033FABDE8E6
S1133020F18370B50400DFF83C0200680500002C51
S113303003D10C20FFF7A3F80EE0E869060016F1AF
S113304044000ECC0EC00C3C0C38FFF732FD3000AF
S1133050FFF79CFFFFF73EFD70BD10B584B0040080
S1133060002C06D000A800F005F8210000A800F00C
S1133070ABFC1FBD38B50400002C1AD0DFF8E40106
S113308000680500FFF715FD15F5B4700EC80EC4F1
S11330900C380C3CD5F8A001002805D0D5F8A401C3
S11330A0D5F8A0118847A060FFF714FD200000F0B8
S11330B0DDFC31BDDFF8AC2112681100D1F8942198
S11330C010004FF47A72B2FBF0F070472DE9F84F1C
S11330D0DFF8900100680400D4E95A01401C51F162
S11330E00001C4E95A01FFF7E4FCD4F8A001002868
S11330F006D0D4F8A401D4F8A0118847C4F870010C
S113310014F5B47000F0B2FCB4F888010600002E87
S11331104CD0D4F880010500761C761E002E45D0D4
S113312028688346D5E91123D4E95A018B4204D88F
S113313001D3824201D201270CE0D4E95A23D5E914
S113314011018B4205D801D3824202D25FF0FF37CE
S113315000E00027002F29D4B4F88801401EA4F809
S113316088016968080029688A46C0F800A0CAF87E
S11331700400A86830F48070A860A868400510D5E1
S1133180A86830F48060A860296C0800E96B89465F
S1133190C0F80090C9F80400A86B0089401EA96B10
S11331A008812800FFF73FF95D46B6E7E0690500AE
S11331B095F8280040072ED5D5E92C01401C51F183
S11331C00001C5E92C01A86AC00424D4D5E9292347
S11331D0D5E92C018B4204D801D3824201D20127C4
S11331E00CE0D5E92C23D5E929018B4205D801D37C
S11331F0824202D25FF0FF3700E00027002F0AD49A
S11332006968080029688846C0F80080C8F8040086
S11332102800FFF708F9FFF75DFCD4F83C03002809
S113322002D0D4F83C038047BDE8F18F0D4A126800
S11332301100C1F8940170470A4A12681100C1F8DC
S11332408C017047074B1B681A00C2F8A001C2F832
S1133250A4117047034A12681100C1F89C01704719
S11332602800FF1F2800FF1F034800684008400093
S1133270014908600020704700D0004010B507489D
S113328000680400002114F52470FFF73DFD0121BE
S113329014F51D70FFF716FA10BD00BF2800FF1FBC
S11332A070B403000025002400291AD0002A18D085
S11332B01001B1FBF0F00500002D0DD0280100FB3A
S11332C01210560816EB4000B0FBF2F00400202C5C
S11332D002D36D1C00200400B5F5005F01D3162055
S11332E00EE0280A10F01F0018705D70987A10F034
S11332F0E0009872987A14F01F0630439872002008
S113330070BC7047C17851F00C01C1707047C1782E
S113331011F0F301C170704770B586B004000D0060
S11333201600049603950FF2E11002900FF2791043
S113333001900FF2611000900FF245130FF2111279
S11333400FF20D01200000F0ADFB06B070BD0000CF
S11333502DE9F84F04000D001600606881464846C8
S1133360C0B200F071FE0700002F01D12B206CE0E9
S11333705820FEF7CFFC8046B8F1000F01D104209D
S113338063E0C5F80080C8F8207040462100202280
S1133390FEF780F90120C8F83000D8F8080082460A
S11333A0152083465946C9B24846C0B2FDF7EEFF20
S11333B004214846C0B2FDF7E9FFD8F80C20514675
S11333C03800FFF76DFF0020B870F87810F0FD00AA
S11333D0F870B87A10F03F00B872002038720020FC
S11333E078720020B871387CC0F30210C0B2002893
S11333F002D10020F87407E00120397CC1F30211E6
S1133400491C8840401EF87401207875F87810F043
S1133410F300F870387C50F088003874787C50F0F1
S1133420C00078745FEACB6003D53800FFF76AFF09
S113343002E03800FFF76BFF5FEA0B7004D5082148
S11334404846C0B2FDF7A2FF0020BDE8F28F00009D
S113345070B504000D00042604216068C0B2FDF7B5
S113346095FF286A0021C170300704D508216068DF
S1133470C0B2FDF78BFF2800FEF7FEFA002070BDF6
S11334800100086A02799206FCD58A6B521C8A6391
S1133490C0797047026A13791B06FCD5D171C36BDE
S11334A05B1CC3637047000030B401000A000B6A60
S11334B01C79200702D5D06C401CD064E00702D5EB
S11334C0506C401C5064600702D5506D401C506520
S11334D0A00702D5906C401C90640A2004420BD0D3
S11334E0D8799D7CED0707D5587C50F0400058747E
S11334F0987C50F001009874987C400601D4012017
S113350000E0002030BC70472DE9F04104000D00BC
S11335101600276A2800C01E00F0708140F6FF41A3
S1133520401A00F03781401E70D0401E71D0401EFA
S113353000F07F80401E00F09580801F2ED0401E3A
S113354018D0401E00F06B81401E00F05E81401ECA
S113355000F0B780401E00F0A480001F00F09380AC
S1133560401E00F09780401E00F03481401E00F0A1
S11335703E818FE108208046B878C0060BD594F8C8
S11335803000C00707D5B878800702D5B87A80061E
S113359001D518F10108C6F800807EE130680828DA
S11335A004D03068092801D00C2077E1306808285D
S11335B014D194F83000C00727D5B87A10F0DF0092
S11335C0B872B878800704D5B87850F01000B87095
S11335D01BE0B87810F0EF00B87016E094F83000F3
S11335E0C00710D5B87850F01000B870B8788007CC
S11335F004D5B87A50F02000B87206E0B87A10F01A
S1133600DF00B87201E0162048E146E1E06830606E
S113361043E1A0688046326841463800FFF740FE27
S11336208046B8F1000F01D0404637E13068E060D1
S113363033E1606B3060361DA06B3060361DE06B8B
S11336403060361D206C3060361D606C3060361D75
S1133650A06C3060361DE06C3060361D206D30602B
S1133660361D1AE1002060630020A0630020E0639F
S113367000202064002060640020A0640020E06436
S11336800020206509E13879C0F3C01010F0010072
S1133690306002E13879C0F3401010F0010030606E
S11336A0FBE001208046B878800707D5B878C007CA
S11336B002D50220804601E003208046C6F800803F
S11336C0EBE03068012804D061D3032838D014D348
S11336D05DE0B87880070FD5B87810F0FC00B870BA
S11336E0B87A800604D5B87A10F0DF00B87203E027
S11336F0B87810F0EF00B8704BE094F83000C007D1
S113370001D41620CAE0B878800704D5B87850F000
S11337100100B87013E0B87850F00300B870B878BE
S1133720C00604D5B87A50F02000B87207E0B87A21
S113373010F0DF00B872B87850F01000B87028E0CC
S113374094F83000C00701D41620A7E0B8788007A9
S113375004D5B87810F0FE00B87017E0B87850F0CF
S11337600200B870B87810F0FE00B870B878C006DF
S113377004D5B87A50F02000B87207E0B87A10F097
S1133780DF00B872B87850F01000B87001E00C2077
S113379084E082E0307880060BD56068FDF724FF72
S11337A0787B10F0F6007873787B50F00200787321
S11337B00FE03078000708D5787B10F0FD007873AF
S11337C0787B50F00900787303E0787B10F0F40004
S11337D0787362E03068012804D1F87810F0FB00B7
S11337E0F87003E0F87850F00400F87055E0387988
S11337F0002801D1012000E000204EE0B87C000642
S1133800FCD538794006FCD547E094F83000C00771
S113381002D50120306001E0032030603DE03068D3
S1133820012814D194F83000C00732D4B87A10F0CB
S1133830DF00B872B87810F0EF00B870B87910F003
S1133840BF00B871206B50F00100206321E03068A4
S113385003281CD194F83000C0071AD5B878C006E4
S113386002D4B878800701D5162017E0B87A10F092
S1133870DF00B872B87850F01000B870B87950F022
S11338804000B871206B40084000206301E00C2028
S113389004E002E040F6092000E00020BDE8F081E9
S11338A010B50C4800680400D4F8C80100280FD0F3
S11338B0D4F8CC11D4F8C80100F0F4FBC4F89C028D
S11338C0D4F89C02C4F8A002D4F89C02C4F8A40260
S11338D010BD00BF2800FF1F034909680800C16B21
S11338E081F30888704700BF2800FF1F70B50400EB
S11338F00D000020A8601C480068012807D11B485F
S11339000068B4FBF0F00021C5E900012AE0184882
S1133910006806001448006802280BD1D6F8940108
S1133920A0FB04014FF47A72002300F041FCC5E9C6
S1133930000117E04FF47A70D6F89411B0FBF1F05F
S11339400A49086009480068D6F894114843B0F55C
S11339507A7F03D1044801210160D0E702480221A3
S11339600160DBE770BD00BFFC00FF1FF800FF1F14
S11339702800FF1FF0B58646DEE90067D1E900455F
S113398034197D41C2E90045DEF8084020008C6806
S113399023000C4C2468D4F89C41A446BCEB0304DB
S11339A0A0420BD3D2E90045641C55F10005C2E9DD
S11339B000451C18B4EB0C04946001E01C189460DE
S11339C0F0BD00BF2800FF1F2DE9F04F05000C00DB
S11339D0254800688346DBF894018246D5E9000156
S11339E05246002300F0E4FB01290AD301D8002841
S11339F007D35FF0FF30206040F2E73060600020C2
S1133A0030E0D5E900234FF47A700021A0FB02894D
S1133A1000FB039901FB0299A8684FF47A714843AB
S1133A20DBF89C11B0FBF1F0002118EB000059EB1E
S1133A30010106000F00300039005246002300F057
S1133A40B7FB06000F00300039004FF47A720023F0
S1133A5000F0AEFB206020684FF47A7101FB106027
S1133A6060600120BDE8F08F2800FF1FD0B40C4A2D
S1133A7012681100D1F89C2114008268A2420DD36F
S1133A808268B2FBF4F2D0E900670023B6185F4104
S1133A90C0E90067836804FB12328260D0BC7047BF
S1133AA02800FF1F2DE9F74F84B01C00109D119EC4
S1133AB0129FDDF84C80DDF850903020FEF72AF993
S1133AC08246BAF1000F01D1042029E040F2F93115
S1133AD05046FEF7F7F80598CAF800000698CAF8A9
S1133AE00400CAF80840CAF80C50CAF81060CAF8B2
S1133AF01470CAF81880CAF82090CDF808A00FF204
S1133B00994001900FF2513000900FF255130FF2CB
S1133B1019120FF21501049800F0C1FB83465846B0
S1133B2007B0BDE8F08F00002DE9F84304000D0054
S1133B3016005FF0000920680700786A8046D8F80C
S1133B402400002809D0D8F82400401CC8F8240018
S1133B50D8F82800A060484663E0D8F82000103068
S1133B60FEF744F8C8F82C00D8F82C00002801D13E
S1133B70042056E04FF47F71D8F82C00FEF7A2F829
S1133B80D8F82C00D8F820100160D8F82C000021B7
S1133B904160D8F82C0000218160D8F82C00002165
S1133BA0C160C8F82860A6602A0018F11C01D8F882
S1133BB01800D8F8003098478146B9F1000F23D196
S1133BC0D8F81400002808D0009600AA40F6025144
S1133BD0D8F81C00D8F8143098473000C00613D524
S1133BE016F00700002802D00C2081460CE0D8F81B
S1133BF01400002808D000AA40F61551D8F81C007B
S1133C00D8F8143098478146B9F1000F05D0D8F898
S1133C102C00FDF731FF484603E00120C8F82400DA
S1133C204846BDE8F2830000F8B504000027206888
S1133C300500686A0600706A401E706200280CD194
S1133C407068002804D0F169B06972689047070071
S1133C50F06AFDF711FF0020F0623800F2BD0000A9
S1133C602DE9F84F04000D001600B24620680090BC
S1133C700098406A0700B86A8146F8698346BAF139
S1133C80000F00F0E5805FEAC9705FD5F86A40680C
S1133C90F96A0968884280F08680584639698847FD
S1133CA0002800F080805846B968884780465FFA4B
S1133CB088F8B8F1130F2BD15FFA88F8B8F1110F17
S1133CC0E4D05846B968884780465FFA88F8B8F166
S1133CD0110FF1D0F86A4068F96A09688842EBD29A
S1133CE0F86AC068F96A421CCA60F96A401880F828
S1133CF01080F86AC068F96A0968884202D1F86AD3
S1133D000021C160F86A4068401CF96A4860D3E742
S1133D10F86A4068F96A09688842B7D2F86AC068E4
S1133D20F96A421CCA60F96A401880F81080F86A7F
S1133D30C068F96A0968884202D1F86A0021C16042
S1133D40F86A4068401CF96A48609FE7F86A40686E
S1133D50F96A0968884226D2584639698847002892
S1133D6021D05846B96888478046F86A4068F96A9D
S1133D7009688842EAD2F86AC068F96A421CCA60D3
S1133D80F96A401880F81080F86AC068F96A09680E
S1133D90884202D1F86A0021C160F86A4068401C78
S1133DA0F96A4860D2E7F86A406800284AD0F86A9D
S1133DB04068002816D0F86A4068401EF96A4860D6
S1133DC0F86A8068F96A421C8A60F96A4018007CC3
S1133DD08046F86A8068F96A0968884202D1F86AFC
S1133DE0002181605FEA89701ED55FFA88F8B8F116
S1133DF00D0F09D15FEA497003D50D215846FA68C1
S1133E0090470A2080460FE05FFA88F8B8F1080F5F
S1133E100AD15FEA497007D508215846FA689047E5
S1133E2020215846FA6890475FEA497004D5414614
S1133E30C9B25846FA68904785F800806D1CBAF1FB
S1133E40010A1CE75FEAC9607FF519AFB6EB0A0601
S1133E503000BDE8F28F00002DE9F04F83B004007C
S1133E600D00160016F1010A206801900198406ABD
S1133E700700B86A8146F8698346BAF1010ABAF1C3
S1133E80000F00F085805FEAC9705DD5F86A40686C
S1133E90F96A0968884257D2584639698847002820
S1133EA052D05846B968884780465FFA88F8B8F116
S1133EB0130F2BD15FFA88F8B8F1110FE6D05846EA
S1133EC0B968884780465FFA88F8B8F1110FF1D0D5
S1133ED0F86A4068F96A09688842EBD2F86AC068EF
S1133EE0F96A421CCA60F96A401880F81080F86ABE
S1133EF0C068F96A0968884202D1F86A0021C16081
S1133F00F86A4068401CF96A4860D3E7F86A406878
S1133F10F96A09688842B9D2F86AC068F96A421C29
S1133F20CA60F96A401880F81080F86AC068F96AB3
S1133F300968884202D1F86A0021C160F86A4068C1
S1133F40401CF96A4860A1E75FEA897006D52878C1
S1133F500A2803D10D215846FA6890475FEAC960E0
S1133F6010D5786900280DD000AA40F61551F869DB
S1133F707B699847002805D10098002802D1B6EB48
S1133F800A0605E02978F869FA6890476D1C74E719
S1133F903000BDE8FE8F00002DE9F84F04000D004D
S1133FA016005FF00008B346206800900098406A4D
S1133FB007002800801F09D0C01E01282BD940F615
S1133FC0F841401A11D0401E14D030E0B146F86ACE
S1133FD04068002803D00120C9F8000004E0F86913
S1133FE039698847C9F800002AE0B246B86ACAF8B5
S1133FF0000025E0B246DAF80000B862DAF8000002
S1134000A0607869002805D032002900F8697B692E
S11340109847804614E00F20CBF800000020CBF82E
S113402004004C20CBF808000020804608E07869A2
S1134030002805D032002900F8697B69984780463A
S11340404046BDE8F28F00000100C9B2002908D043
S113405002290CD008D304290FD00BD305290FD083
S113406011E00A4A100010E0094A10000DE0094A64
S113407010000AE0084A100007E0084A100004E0B3
S1134080074A100001E000221000704700A006401B
S113409000B0064000C0064000D0064000A00E401C
S11340A000B00E402DE9F84F04000D002E480068C2
S11340B0060016F51D70FEF7DEFBD6F8900280466A
S11340C016F5247080451DD0D8F808008146A24614
S11340D09AF8000000280ED099F8000000280AD0B1
S11340E09AF8000099F80010884204D11AF1010AE4
S11340F019F10109ECE799F80000002802D0D8F87A
S11341000080DDE716F51D70FEF777FB16F52470C9
S1134110804501D1002024E02020FDF7FBFD0700AD
S1134120002F01D100201CE010213800FDF7CAFD4A
S1134130C7F80080D8F80C00002811D02A0021000C
S11341403800D8F80C3098478346BBF1000F07D0ED
S11341505846FEF714F83800FDF78EFC002000E006
S11341603800BDE8F28F00BF2800FF1F13F0004C99
S113417003D55B42524263F100039CEA210C00F038
S1134180178010B5644603D34942404261F10001EF
S113419000F00EF8640004D34942404261F100018A
S11341A0244203D55B42524263F1000310BD000078
S11341B01B4213D1094236D12AB18446B0FBF2F036
S11341C002FB10C2704700F087B8FCD30022002322
S11341D070470B000200002100207047904271EBF1
S11341E0030CF6D370B5B1FA81F4B3FA83F52C1B42
S11341F0A340C4F1200532FA05F63343A2405FF030
S11342000046E64002E05B085FEA3202841A71EB82
S1134210030524BF204629467641F4D302000B004F
S11342203000002170BD012ACFD970B5140C20D004
S1134230B1FA81F4B2FA82F5C4F120046419B4F13C
S11342402006D6D3B2405FF00044F440002502E0DB
S113425052085FEA3303C61A71EB020E24BF3046DC
S1134260714664416D41F3D302000B002000290024
S113427070BD0C46B1FBF2F102FB11452D0445EA79
S11342801045B5FBF2F402FB145580B240EA054533
S1134290B5FBF2F002FB105240EA044070BD2DE978
S11342A0FF4704000D0016001F00DDF83080DDF824
S11342B03490DDF838A0CDF80CA000200290CDF8A1
S11342C00490CDF800803B0032002900200000F06B
S11342D005F804B0BDE8F087704700002DE9F84FF9
S11342E004000D0016000D9F5FF0000B3A480068B3
S11342F080462800002802D03000002801D10C207C
S113430067E000208246BAF5806F0DD21AF80400E7
S11343103A2802D11BF1010B03E01AF8040000282B
S113432002D01AF1010AEEE7BBF1010F02D1BAF192
S1134330010F01D10C204CE018F51D70FEF79BFA1B
S1134340D8F89002814618F52470814512D04FF4B4
S11343508062D9F80810200000F040F8002806D147
S113436018F51D70FEF749FA4FF4206031E0D9F8D2
S11343700090E8E72C20FDF7CDFC8146B9F1000F51
S113438005D118F51D70FEF738FA042021E00F213D
S11343904846FDF797FCC9F80840C9F80C50C9F81D
S11343A010600098C9F814000A98C9F818000B980E
S11343B0C9F81C000C98C9F82000C9F824704946B3
S11343C018F52470FEF7A6FC18F51D70FEF715FA13
S11343D00020BDE8F28F00BF2800FF1F01E0491C48
S11343E0521E72B10B7890F800C09C4505D002D2E1
S11343F04FF0FF3070470120704710F8013B002B4D
S1134400EDD10020704700002DE9F0418AB004008E
S113441000F008F90600002E05D03100724800F0C3
S113442045FA0EF032F8714804907FF0FF000590D1
S11344306F48069007AA0499002000F05CFA07A9C7
S1134440002000F005FC0600002E06D0310069486B
S113445000F02CFA0020FDF792FE04A9002000F0E1
S1134460C2FB0600002E05D03100634800F01EFA9E
S11344700EF00BF800226149012000F0B3FC0500A6
S113448015F1010F04D15E4800F010FA0DF0FDFFA4
S1134490002003905B48002802D141F21A760BE019
S11344A00420009003AB092256492800DFF854C1C8
S11344B0DCF804C0E0470600002E04D0524800F0A7
S11344C0F5F90DF0E2FF0120ADF8040040F2E470CC
S11344D0ADF806004D480290002D02D015F1010FF1
S11344E002D141F2047714E0A8684949884202D015
S11344F041F204770DE0E8698068002802D141F2B6
S1134500197706E0082201A92800EB699B689847FF
S11345100700002F12D1BDF8062002993D4800F093
S1134520C5F92A0006210020FDF752FC8046B8F1A7
S1134530000F0AD0384800F0B9F906E0374800F017
S1134540B5F90121280000F075FC0DF09EFF0AB0BA
S1134550BDE8F081ADF5BC6D0400002C02D014F16F
S1134560010F02D15FF0FF3616E0A06828498842A7
S113457002D05FF0FF360FE0E069C069002802D185
S11345805FF0FF3007E0002340F2DC5200A9200076
S1134590E769FF69B847060016F1010F06D1280044
S11345A000F069FC01001E4800F080F9002C02D0E4
S11345B014F1010F02D15FF0FF30CEE7A068144977
S11345C0884202D05FF0FF30C7E7E069806A0028C4
S11345D002D15FF0FF30C0E70023320000A92000C1
S11345E0E769BF6AB847B8E7D02601006200A8C0EF
S11345F00100A8C0FC260100282701009028010022
S113460058270100CC280100782701006800A8C0C1
S11346105343545290270100BC270100DC270100BA
S1134620F82701007CB50120FCF708F9002802D026
S11346304FF49850A7E0302000F068FC0400002CF0
S113464003D141F2021006009CE041F20101200076
S1134650FDF738FB21000120FCF701F9342000F0BC
S113466055FC0500002D03D141F20210060080E044
S113467041F20E012800FDF725FB012028600020EF
S1134680A8600020E860012115F11800FEF724F865
S11346900120FCF7D3F885603B48002101603B48CA
S11346A0002101603A48002101605FF4423020603B
S11346B03848016889B2002000F0F8FC20843648AC
S11346C003689BB23548026892B23548016889B2E2
S11346D0102001F0CDF9E061E06900280CD1002040
S11346E000900023002241F23511032000F0DAF893
S11346F041F23510060032E00020019000200090C5
S1134700284803682848026828480168B02000F057
S11347100FFCA062A06A00280CD1002000900023A6
S1134720002241F22111012000F0BCF841F22110D5
S113473006000FE0002000901D4B1E4802681E4832
S113474001681E4801F0EAFA0600002E02D0A06AB1
S113475000F089FC002E02D0E06901F04BF9002E34
S113476007D00120FCF76AF8002181602800FDF7DA
S113477083F9002E06D000210120FCF770F82000F8
S1134780FDF77AF9300076BDBC00FF1FC000FF1FA3
S1134790C400FF1F0000FF1F1C00FF1F1800FF1FA5
S11347A01400FF1F2400FF1FD400FF1F2000FF1F61
S11347B0798300001000FF1F0C00FF1F88280100F0
S11347C0F8B504000D000120FCF738F80600F06984
S11347D001F0F4FA0700002F03D14FF48950606010
S11347E015E0002060600020FDF79EFC2060308C06
S11347F078800020B88010203880BD60FC603800CC
S113480000F010FF002802D141F2321060606068AD
S1134810F2BD38B504000D00002060600020206067
S11348202000A847606832BD38B504000D00002D93
S113483000D065602068002802D02068FDF72CFCB9
S113484031BDF8B504000D000120FBF7F7FF0600A9
S1134850F06901F0B3FA0700002F01D100200AE04B
S1134860308C78800020B88010203880BD60FC60D7
S1134870380000F0CDFEF2BD70B504000D00160046
S1134880206800280DD125606660FDF747FCA06014
S1134890FDF738FCE060FDF720FA2061FDF721FC0C
S11348A0606170BD10B4019C10BC70470EB478B543
S11348B0040005A80500012001F056FC0095230022
S11348C05FF0FF32034901F0CAFC0600300072BCFD
S11348D05DF810FB451F01000200107B0870507B3F
S11348E04870907B8870D07BC870107C0871507CB5
S11348F048710020704770B504000D0016003200A6
S11349002900200002F00CFB70BD000010B401224D
S113491010F1010F11D0002824D18023DFF82443A3
S113492003FB00439B6D002B1CD18023DFF8144351
S113493003FB00439965020014E000231A00012AD6
S113494010DA8023DFF8FC4203FB02439B6D002B4B
S113495006D18023DFF8EC4203FB0243996501E0B2
S1134960521CECE7012A01DB5FF0FF32100010BC9F
S1134970704710B402000020002A13D18023DFF80E
S1134980C44203FB024393F86C30002B0AD0DFF8D7
S1134990BC321B688B4205D1DFF8B03200241C60A6
S11349A00123180010BC704710B504008020DFF804
S11349B0981200FB0410006F002843D08020DFF819
S11349C0881200FB041090F86C00042808D08020A2
S11349D0DFF8741200FB041090F86C00062808D16C
S11349E08020DFF8641200FB0410806D02F0B0FA3E
S11349F028E08020DFF8501200FB041090F86C00CF
S1134A00032811D08020DFF8401200FB041090F836
S1134A106C00052808D08020DFF82C1200FB04105D
S1134A2090F86C0007280DD18020DFF81C1200FBE1
S1134A300410016F8020DFF8102200FB0420806D39
S1134A4002F09CFA8020DFF8001200FB0410806F53
S1134A50002809D0002200218020DFF8EC3100FB7F
S1134A600430806F02F096FA8020DFF8DC1100FB3E
S1134A700410C06F002808D08020DFF8CC1100FBA0
S1134A800410C16F2000FFF774FF8020DFF8B81115
S1134A9000FB04100021C1678020DFF8AC1100FB8B
S1134AA00410002101678020DFF89C1100FB041032
S1134AB0002141678020DFF8901100FB04100021E1
S1134AC081678020DFF8801100FB0410002141651C
S1134AD08020DFF8741100FB0410012180F86C10B1
S1134AE0002010BD70B504000D008020DFF85811BF
S1134AF000FB04101C30FDF762FE002802D141F6D1
S1134B0001506FE02000FFF74FFF002D06D18020F9
S1134B10DFF8341100FB04106030050041F6045046
S1134B2006006A6829688020DFF81C3100FB043025
S1134B30806D02F05DFA00284BD18020DFF8081167
S1134B4000FB0410296801668020DFF8FC1000FBDC
S1134B500410696841668020DFF8EC1000FB041043
S1134B60A96881668020DFF8E01000FB0410296842
S1134B7001678020DFF8D01000FB041069684167EA
S1134B80A86800280DD000220021A86802F05DFA70
S1134B90002806D18020DFF8B01000FB0410A968BB
S1134BA081678020DFF8A01000FB0410032180F847
S1134BB05C108020DFF8901000FB04108021DFF8E7
S1134BC0882001FB042191F85C1080F86C1000200F
S1134BD006008020DFF8701000FB04101C30FDF785
S1134BE00CFE300070BD70B504000D00002C02D026
S1134BF041F6025024E08020DFF84C1000FB041042
S1134C0090F86C00002802D141F6035018E080208F
S1134C10DFF8341000FB0410FDF7D1FD002802D1A9
S1134C2041F601500CE029002000FFF75BFF06006D
S1134C308020DFF8141000FB0410FDF7DEFD3000C7
S1134C4070BD00003000FF1F3000FF1FDC00FF1F9D
S1134C507CB504000D00002600AB002229002000D2
S1134C6002F086FA0600002E1AD101AA5B480168F8
S1134C70009802F0A5F90600002E0DD1019920003C
S1134C8000F010F80600002E0AD0019802F06CF92A
S1134C90009802F083FA03E0009802F07FFAFFE73D
S1134CA0300076BD70B504000D00002D02D141F630
S1134CB0035092E029002000FFF728FE060016F1B9
S1134CC0010F02D141F6035087E08020444900FBE4
S1134CD0061090F86C00002802D041F601507CE0E8
S1134CE0012180203E4A00FB0620FDF7EBFC002852
S1134CF002D041F6035070E001218020384A00FBC5
S1134D0006201C30FDF7DEFC002808D08020344942
S1134D1000FB0610FDF74CFD41F603505DE0002159
S1134D2080202F4A00FB06203830FDF7CBFC0028FA
S1134D300FD080202A4900FB0610FDF739FD8020A2
S1134D40274900FB06101C30FDF732FD41F60350E5
S1134D5043E08020224900FB0610002141658020A9
S1134D601F4900FB0610856580201D4900FB0610C5
S1134D700021016680201A4900FB061000214166CB
S1134D808020174900FB0610002181668020144909
S1134D9000FB0610002101678020114900FB06106A
S1134DA00021416780200E4900FB06100021816725
S1134DB080200B4900FB06100021C16780200849B0
S1134DC000FB0610012180F85C108020044900FBE0
S1134DD00610012180F86C10002070BD88290100A4
S1134DE03000FF1F2DE9F04104000D0016000020E3
S1134DF0FDF79AF90100280002F0F6F90700002FE8
S1134E0002D15FF0FF3013E0F869006800280DD08C
S1134E103800F969096888478046B8F1000F05D061
S1134E20380002F06FFA5FF0FF3001E07C83380055
S1134E30BDE8F081F8B504000D002600002007004D
S1134E40002C06D014F1010F03D0B0681449884235
S1134E5002D041F204700DE0F069806B002805D0A7
S1134E6029002000F269926B90470700300002F09D
S1134E7049FA3800F2BD01000A00002902D011F1FC
S1134E80010F02D141F2047008E09068044B98428B
S1134E9002D041F2047001E0D2F88C0070470000A7
S1134EA053435452C0F88C107047000010B50400EE
S1134EB01E480068002805D021001C480068FCF743
S1134EC069FD02E02000FCF742FD10BD10B50400AE
S1134ED016480068002805D0210014480068FCF733
S1134EE079FD02E02000FCF765FD10BD10B504005B
S1134EF00E480068002805D021000C480068FCF723
S1134F0065FE02E02000FCF771FE10BD10B5040040
S1134F1006480068002805D0210004480068FCF712
S1134F20E9FE02E02000FCF7F5FE10BDD000FF1FF3
S1134F302DE9F44F04000D001E000A9FDDF82C80BB
S1134F401420FFF7D3FF8146B9F1000F01D10020EF
S1134F5043E041F20F014846FCF7B4FE3300009AE7
S1134F602900201D02F01CFBC9F80000D9F800003C
S1134F70002804D14846FCF77FFD00202DE0C9F845
S1134F8004400020C9F80800C9F80C70C9F8108062
S1134F9000208346AB451FD2D9F8000002F0FBFB8A
S1134FA08246BAF1000F17D0D9F80C0000280AD0B5
S1134FB01AF10400D9F80C108847002803D0504691
S1134FC002F0AEFB08E0CAF800901AF1040000F009
S1134FD03CF81BF1010BDDE74846BDE8F28F38B51C
S1134FE00400FDF766FDA068002816D1FDF772FDE8
S1134FF0206802F0D0FB0500002D01D1002014E050
S1135000E06800280FD0281DE168884700280AD0EE
S1135010280002F085FB002007E0A068050028684E
S1135020A060FDF757FD2C60281D32BD38B5040083
S11350302000FFF7D4FF0500002D04D06268002192
S11350402800FCF7F5FA280032BD70B504002500ED
S11350502D1F28680600FDF72CFDB0682860B56098
S1135060FDF738FD70BD38B50400206900280AD06A
S1135070A068002812D0A06805002868A060281D38
S113508021698847F4E7A068002807D0A0680500D4
S11350902868A060280002F043FBF4E7206802F0CF
S11350A0C9FA2000FCF7E8FC31BD00000200DFF87B
S11350B05C050068030092B2B2F5807F01D3002042
S11350C009E092B2002A02D1D3F8A8010200C8B2C2
S11350D050EA022080B2704770B582B004000D001F
S11350E00020009000230122290089B2200080B210
S11350F000F004F80600300080B276BD2DE9FA4FC6
S113510083B004001500DFF8040500680600D6F833
S11351101002804600208246B8F1000F0ED100F044
S1135120D3FE0090D6F810028046B8F1000F05D1E6
S11351300098FDF724F8504680B29AE0FDF7B9FCD8
S1135140A4B2002C24D1D8F8180010F58070814640
S113515008208346D8F8140058450DD3B9F8140034
S1135160594689B2884202D05846040004E019F135
S113517020091BF1010BEDE7A4B2002C16D1FDF7B9
S1135180A9FC40F21170FCF7FAFF504680B270E0BF
S1135190A4B2D8F81400844208D3FDF79BFC40F273
S11351A01B70FCF7ECFF504680B262E0A4B2012C05
S11351B008D2FDF78FFC4FF4E260FCF7E0FF5046A5
S11351C080B256E0A4B2D8F8180010EB441081461F
S11351D0B9F81400A4B2A04208D1FDF77BFC40F258
S11351E01170FCF7CCFF504680B242E0A9F814409D
S11351F00020C9F800000020C9F804000020C9F804
S113520010000020A9F80800A9F81650BDF80C00F9
S1135210A9F80A000498C9F818000E98C9F81C00E7
S1135220012D18D1F0690700C9F80C70D7F8900067
S1135230002807D1C7F89090C7F894900020C7F8C9
S113524098000BE0D7F8940001900198C0F81090F2
S1135250C7F8949002E00020C9F80C00FDF73AFC6E
S1135260D6F8A801A4B2E1B251EA00208246504621
S113527080B205B0BDE8F08F7FB504000D00002DAD
S11352800CD001A92800FEF731FB00AB022201A9D2
S1135290200080B200F00DF8060007E000AB002209
S11352A001A9200080B200F004F80600300004B028
S11352B070BD2DE9F24F84B0040015001E000020DB
S11352C03060D248006801900198008B002806D015
S11352D00D20FCF754FF0D203060002092E101986E
S11352E0D0F8100202900298002806D11820FCF78A
S11352F046FF18203060002084E100208246019897
S1135300C0690700A4B2002C6AD1D7F89000002825
S113531008D140F21370FCF732FF40F21370306092
S113532000206FE1FDF7C5FBD7F8980000281BD1DA
S11353300720B860A4B2BC630020C7F89C00002D0D
S113534002D10DF0A2F808E0022D03D10498FDF774
S113535000FE02E00498FDF764FED7F89C00824644
S11353600020C7F89C004AE1D7F890008146B9F1C3
S1135370000F00F04481B9F8080000282DD0B9F8D6
S11353800800401EA9F80800D9F800008046D8F8A3
S11353900000C9F80000D9F80000002803D100205B
S11353A0C9F8040003E0D9F8000000214160D9F8ED
S11353B00C00002808D0D9F80C00D0F89800401E42
S11353C0D9F80C10C1F8980018F114008246002096
S11353D088F80B00C8F8107011E1D9F81090C6E7EE
S11353E0E0B2ADF80000A4B2200A80B20199D1F86D
S11353F0A811884203D1BDF80000012808D24FF457
S1135400E260FCF7BCFE4FF4E26030605046F9E025
S1135410BDF800000299896911EB40108146B9F882
S11354201400BDF80010884208D040F21370FCF755
S1135430A6FE40F2137030605046E3E0D9F80C0049
S113544000280CD0D9F80C00B84208D040F21270F1
S1135450FCF795FE40F2127030605046D2E0FDF742
S113546028FBB9F80800002840F09C80D9F80C000B
S1135470002802D100208246C1E00520B860BDF8B2
S11354800000B8630020C7F89C00002D02D10CF086
S1135490FCFF08E0022D03D10498FDF75AFD02E059
S11354A00498FDF7BEFDD7F89C008246BAF1000FC0
S11354B074D0BAF80200A4B2A0426FD0B9F80800C0
S11354C001286BD39AF80200C0B2ADF80200BDF80F
S11354D002000299896911EB40108346BBF80A0067
S11354E0002805D0BBF80800BBF80A1088424FD248
S11354F0BAF114008046B8F8080046F667518842AD
S113550006D040F21670FCF73AFE0020824645E0D1
S113551001224146584600F012FADBF80C0000283C
S113552008D0DBF80C00D0F89800401CDBF80C1015
S1135530C1F89800B9F80800401EA9F80800D9F885
S113554000008046D8F80000C9F80000D9F800002F
S1135550002803D10020C9F8040003E0D9F80000B2
S113556000214160D9F80C00002808D0D9F80C00BB
S1135570D0F89800401ED9F80C10C1F8980018F122
S113558014008246002088F80B00C8F8107005E06B
S113559040F21770FCF7F3FD002082460020C7F8A4
S11355A09C002CE0B9F80800401EA9F80800D9F8BE
S11355B000008046D8F80000C9F80000D9F80000BF
S11355C0002803D10020C9F8040003E0D9F8000042
S11355D000214160D9F80C00002808D0D9F80C004B
S11355E0D0F89800401ED9F80C10C1F8980018F1B2
S11355F014008246002088F80B00C8F81070FDF7EC
S113560069FA504605B0BDE8F08F00002800FF1F7E
S113561038B5040062880021200000F00DF8050070
S1135620280032BD38B5040062880121200000F052
S113563003F80500280032BD2DE9F24F86B00400BE
S11356401500DFF8AC0300680600D6F810020190DC
S11356500198002804D11820FCF791FD00206BE18B
S1135660002C05D140F21670FCF789FD002063E19F
S1135670B4F114000700388946F66751884205D012
S113568040F21670FCF77BFD002055E1B87A002843
S113569002D1F87A002805D040F21670FCF76FFDAD
S11356A0002049E1ADB2280AADF80C00BDF80C00A9
S11356B0002807D1D6F8A801A178C9B251EA002080
S11356C060800EE0BDF80C00D6F8A811884208D01E
S11356D0200000F095FC4FF4E260FCF750FD002040
S11356E02AE1E8B282461FFA8AFABAF1010F08D217
S11356F0200000F085FC4FF4E260FCF740FD002040
S11357001AE11FFA8AFA0198806910EB4A10804660
S1135710B8F814001FFA8AFA504501D000208046D8
S1135720B8F1000F08D1200000F06AFC40F21370B9
S1135730FCF725FD0020FFE0FDF7BBF9B8F80A00EF
S1135740002806D0B8F80800B8F80A10884280F09B
S1135750E880B8F81600012840F0D180D8F80C0091
S1135760814699F80800C0B204900498072808D02C
S11357700498052848D1D9F838001FFA8AFA504508
S113578042D117F11400C9F89C00C7F81090D9F859
S11357900800C0051AD5D9F804100800D9F800107B
S11357A08B46C0F800B0CBF80400B6F88801401E60
S11357B0A6F88801D9F8080030F48070C9F8080008
S11357C0D9F8080050F00300C9F808004846FCF76F
S11357D02AFED8F81800002804D0D8F81C00D8F8FD
S11357E018108847069800280BD0308B002840F00A
S11357F09480F06981460D20C9F808000CF045FE3C
S11358008BE00CF031FE88E000200290A0791F218B
S113581008424BD0D9F89C00002847D0D9F89C0006
S11358200090A079C0060ED400988079C0063DD4BB
S11358300098807910F00F00A17911F00F01C0B227
S1135840C9B2884232D2C9F89C40B4F114000700AE
S1135850C7F8109000980400B4F114000700002069
S11358603861012002906088ADB285421ED0A078D4
S1135870C0B282461FFA8AFA0198806910EB4A1076
S11358808046B8F80A00002810D0B8F80800B8F824
S11358900A1088420AD3FDF71DF9200000F0B0FB7E
S11358A040F21770FCF76BFC002045E0029A3900C7
S11358B0404600F044F8D8F80C00002808D0D8F886
S11358C00C00D0F89800401CD8F80C10C1F89800CF
S11358D0D8F81800002804D0D8F81C00D8F81810FC
S11358E088470698002818D0308B002815D1F06915
S11358F081460D20C9F808000CF0C7FD0DE0002218
S11359003900404600F01BF8D8F81800002804D0ED
S1135910D8F81C00D8F818108847FDF7DBF80120E8
S11359200AE0FDF7D7F840F21770FCF728FC17F1EE
S1135930140000F065FB002007B0BDE8F08FF0B460
S11359400768002F06D100274F6000270F60016011
S1135950416045E08F7EFF0601D4002A07D0076826
S11359600F6000274F6007687960016038E08F7E20
S11359705FF00F0C17EA0C0F2BD08F7E17F00F0778
S11359803E0000273B0007683C00002C08D0A77E9F
S113599017F00F073D00B54202D323002468F4E753
S11359A0002B07D107680F6000274F6007687960F4
S11359B0016015E0002C07D147684F6000270F6095
S11359C04768396041600BE04B600C6019606160AE
S11359D006E047684F6000270F6047683960416000
S11359E007897F1C07810127CF72F0BC7047000034
S11359F02800FF1F2DE9F8430400DFF804030068C2
S1135A000500D5F810020600002E01D118202DE063
S1135A102700B88A46F66751884202D040F20370E4
S1135A2024E0FDF746F83889798988421AD10020A4
S1135A30388100207882FDF74DF838688046B8F147
S1135A40000F07D0D8F8000081464046FCF714F850
S1135A50C846F4E7002038600020B8820020B8610E
S1135A60002003E0FDF736F840F20470BDE8F2834D
S1135A702DE9F04182B004000D0016001F0005203E
S1135A8000903B009BB2320092B2290089B2200000
S1135A9080B200F004F880464046BDE8F6812DE966
S1135AA0F54F83B00C001D000E9E954800680090D1
S1135AB00098D0F810020700BDF80C00082805D2A1
S1135AC040F20570FCF75BFB0020B9E0002F0DD11C
S1135AD000F0FAF901900098D0F810020700002FA6
S1135AE004D10198FCF74BFB0020A9E0FCF7E1FF8F
S1135AF03869396888421CD3786880460020834618
S1135B00386883450AD2B8F8140046F667518842CB
S1135B1004D118F11C081BF1010BF1E73868834527
S1135B200FD1FCF7D7FF40F20270FCF728FB0020EE
S1135B3086E03869411C39611C217A6801FB002028
S1135B40804646F66750A8F81400BDF80C00A8F883
S1135B5010000020A8F81200FCF7BCFF0020C8F8D1
S1135B6000000020C8F80C000020C8F80400002041
S1135B70A8F808000020A8F80A00BDF810000028C2
S1135B8002D1A8F8164009E0ADB2002D04D14FF6B9
S1135B90FF70A8F8160001E0A8F81650C8F81860BD
S1135BA0A4B2002C10D0210089B2404600F04BF87A
S1135BB0B8F80800002807D10020A8F81400042031
S1135BC0FCF7DDFA00203BE0BDF81000A8F8120055
S1135BD00A2E34D1FCF76DFFB8688246BAF1000F83
S1135BE004D1C7F80880C7F80C8026E0BAF8100082
S1135BF0B8F81010884204D3C8F804A0C7F8088085
S1135C001BE0DAF804008146B9F1000F0ED0B9F8B0
S1135C101000B8F81010884204D2CA46DAF804001A
S1135C208146F1E7CAF80480C8F80490B9F1000F7E
S1135C3003D1CAF80480C7F80C80FCF74BFF404638
S1135C4005B0BDE8F08F2DE9F04704000D00208A6F
S1135C501430814619F10F005FEA10195FEA09193F
S1135C60ADB205FB09F01F30FBF7C0FF8046B8F169
S1135C70000F43D00C214046FCF724F80020C8F85C
S1135C800000C8F80490ADB2C8F8085018F110002C
S1135C90060016F10F0006093601C8F80C6037003B
S1135CA0ADB2681C8246BAF1010ABAF1000F13D0F2
S1135CB00020386046F6675038810120B872002011
S1135CC0F872FC6000203861BAF1020FEBD319EBD3
S1135CD0070038603F68E6E7FCF7EBFE2068C8F889
S1135CE00000C4F80080E0683860E6602089281865
S1135CF02081608928186081FCF7ECFEBDE8F087FC
S1135D002800FF1F10B504000020FCF7B9F9E16971
S1135D1041602100206AE269904710BD2DE9F041FD
S1135D2092B004000D0016001F00DDF86080002111
S1135D3000A8FCF7D1FC0797CDF82080002009903B
S1135D40202200210AA8FBF773FC0E940D950C96F3
S1135D500D480B9000A810900AAA00210020FCF71F
S1135D6037F8002805D100A8FCF722FD41F23710CE
S1135D7006E000A8FCF77FFD00A8FCF719FD0998D0
S1135D8012B0BDE8F0810000055D000070B50400AC
S1135D900D002600002E03D075623000FCF72DFDA7
S1135DA070BD38B504000D0029002000FFF7EEFF98
S1135DB02800FCF7E4F90CF068FB31BD2DE9F0474D
S1135DC00400DFF89C0300680500D5F81002060003
S1135DD0002E04D11820FCF7D2F9002072E0002034
S1135DE08046A146B9F8140046F66751884203D1AB
S1135DF0D9F81800052805D040F20370FCF7BFF964
S1135E0040465FE0B9F80800002825D1B9F812002F
S1135E10002821D0B9F80A00B9F81610884203D333
S1135E20B9F81600002817D1B9F812008246B9F85B
S1135E301600B9F80A10401A80B21FFA8AFA5045BF
S1135E4005D2B9F81600B9F80A10401A824651462C
S1135E5089B24846FFF7F7FEFCF72BFED9F80C0091
S1135E600700002F07D1FCF735FE40F20170FCF764
S1135E7086F9404626E03868C9F80C00B9F80800ED
S1135E80401EA9F80800FCF725FE0020B872002087
S1135E90F872288B002802D00020386101E0E869FC
S1135EA0386117F1140080460020A8F80200002091
S1135EB0A8F80400B9F81000A8F80000602088F8D9
S1135EC006004046BDE8F0872DE9F041DFF8900276
S1135ED00068040014F5EC70FCF7CDFC8046B8F1C2
S1135EE0000F01D0404689E0D4F81002002805D004
S1135EF014F5EC70FCF781FC00207FE02020FBF718
S1135F0009FF0500002D05D114F5EC70FCF775FCB4
S1135F10042073E009212800FBF7D4FED4F8C00163
S1135F20002802D10120C4F8C001D4F8C0011C210A
S1135F304843FBF7EFFE0600002E06D114F5EC7083
S1135F40FCF75BFC40F2067058E00B213000FBF7D5
S1135F50B9FED4F8C4014FF6FF71884204D34FF65A
S1135F60FE70C4F8C40106E0D4F8C401002802D1CC
S1135F700120C4F8C401D4F8C401401C4001FBF75B
S1135F80C9FE0700002F09D114F5EC70FCF735FCAD
S1135F903000FBF771FD40F219702FE00A21380040
S1135FA0FBF790FE6868002811D1002028610020CA
S1135FB0A8600020E860D4F8C0012860D4F8C401C7
S1135FC068616E6000200600AF610020070065482C
S1135FD0E861C4F810520FF28D00C4F8500214F5B1
S1135FE0EC70FCF70AFC002E02D03000FBF744FDF5
S1135FF0002F02D03800FBF73FFD0020BDE8F08100
S1136000F8B50400564800680500B4F11400060011
S1136010308946F66751884203D00120FCF7AFF877
S11360201EE0B07A002803D00320FCF7A8F817E09C
S1136030F07A002804D040F21A70FCF7A0F80FE0C0
S1136040F06807000120B0720020F072FCF731FD07
S1136050F8683060FE603889401C3881FCF73AFDEE
S1136060F1BD00002DE9F04F85B004003C48006804
