S018000068656C6C6F5F7477726B36306E3531322E7372656365
S1130000F0FE002021040000A7460100A7460100DD
S1130010A7460100A7460100A74601000000000012
S1130020000000000000000000000000CF450100B7
S1130030A74601000000000045460100A746010054
S1130040A7460100A7460100A7460100A7460100F4
S1130050A7460100A7460100A7460100A7460100E4
S1130060A7460100A7460100A7460100A7460100D4
S1130070A7460100A7460100A7460100A7460100C4
S1130400FFFFFFFFFFFFFFFFFFFFFFFFFEFFFFFFF9
S107041000000000E4
S11304200E480F490F4A4FF0080333B140F8042B2C
S113043041F8042BA3F10103F7E7EFF3088080F3FD
S11304400988EFF3148040F0020080F31488BFF3AE
S11304506F8F00F009B880F30888704780E100E0EE
S113046080E200E0FFFFFFFFC046C046C046C04632
S113047000F000F800F009F8002801D000F00AF8B4
S1130480002000F01BF800F021F880B500F0B6F869
S1130490012002BD10B5074979441831064C7C444B
S11304A0163404E0081D0A68511888470146A14221
S11304B0F8D110BD084301003C43010080B5024857
S11304C000F0D0F8002002BDF44B010000F0F4BAB3
S11304D059484CF22051C1814DF62811C18101883F
S11304E04FF6FE7211400180704710B45349544ACC
S11304F011F582531B6853F0010311F582542360F4
S113050041F204035B5853F4407341F20404635012
S11305104C4B18004FF4A06383624FF4A063C36292
S11305204FF4A06303644FF4A06343644FF4A063E7
S113053083644FF4A063C3644FF4A06303654FF472
S1130540A06343654FF4A06383654FF4A063C36560
S11305503D4B18004FF4A06303604FF4A063436065
S11305604FF4A06383604FF4A063C3604FF4A063AF
S113057003614FF4A06343614FF4A06383614FF4BC
S1130580A063C3614FF4A06303624FF4A0634362AA
S11305904FF4A06383624FF4A063C3624FF4A0637B
S11305A003634FF4A06343634FF4A06383634FF486
S11305B0A063C363254B18004FF4A06303604FF49A
S11305C0A06343604FF4A06383604FF4A063C360EF
S11305D04FF4A06303614FF4A06343614FF4A0633D
S11305E083615FF08053136610BC70471449086040
S11305F04FF416628A60164A4A60704780B51548FF
S11306000068C0F3033000280BD11348006830F0B1
S11306101900114908601148006830F019000F49A9
S1130620086000F0AFFE00F0D7FFFFF75EFF0C4854
S1130630FFF7DCFF01BD000000200540007004400E
S113064000C0004000A0044000B0044000C00440CA
S1130650010007002480044004F0014008F0014038
S1130660000000702DE9F04F83B08246DAF80400F0
S11306700F30000900010400DFF820040460DFF8F3
S113068020042060DFF81C0420604FF45172002124
S1130690200000F0CDFF14F5D4705146302200F054
S11306A0F9FFC4F8AC41D4F8B00100090001C4F862
S11306B0B00100F082F901F0A9FA0700002F02D07E
S11306C0380000F0AFF8D4F8D001002806D0D4F8F0
S11306D0D0018046D4F8B401070018E0D4F8B4017E
S11306E0D82802D2D820C4F8B401D4F8B401103008
S11306F00700380001F07AFA8046B8F1000F02D101
S1130700042000F08FF80221404601F0DBFA3900A2
S1130710404601F07EFE17EB0800401E0009000170
S1130720E063D8200700380001F060FA8146B9F18F
S1130730000F02D1042000F075F80121484601F0B1
S1130740C1FA17EB0900401E00090001834614F1A9
S113075050000600BBF164007061C6F810B019F1D6
S11307600F0000090001B0617069DFF83C130860F4
S113077001F03AFF0700002F02D0380000F052F8D1
S1130780012114F5EC7001F09DFF012114F5A67010
S113079001F098FF02F0D0F80700002F02D03800D3
S11307A000F040F8D4E9BF010A3051F10001C4E976
S11307B0BF01002001900020009001230022E06985
S11307C0C16814F5367001F04FFD0600002E02D109
S11307D0042000F027F8300001F025FED4F8B80119
S11307E005002868002818D0287DC00713D50020EC
S11307F00190002000900023AA69E069C1682800E4
S113080001F032FD0600002E02D1042000F00AF8A7
S1130810300001F008FE2035E3E713F0C1FE0020AC
S1130820BDE8FE8F040002F044F99C48006805000E
S1130830FEE79A4A126811000881704738B504002F
S1130840964800680500082C04D30C2001F097FC9E
S1130850002003E015EB8400D0F8A80232BDF8B5FF
S113086004000D008D4800680600082C04D30C20F9
S113087001F085FC002016E002F01BF916EB840061
S1130880D0F8A8020700002F04D116EB8400C0F8AA
S1130890A85205E0002D03D116EB8400C0F8A8523D
S11308A002F018F93800F2BD2DE9F84F04000D00EC
S11308B01600B6EB050B794800688046082C03D275
S11308C0002D01D0002E04D10C2001F058FC0C2086
S11308D02BE002F0EEF818EB8400D0F8A802A8424E
S11308E003D102F0F7F819201FE018EB8400D0F8C8
S11308F0A8028146B9F1000F0AD05BF809008246CC
S1130900AA4503D102F0E6F819200EE0D146F1E73A
S113091018EB8400D0F8A802070018EB8400C0F894
S1130920A852376002F0D6F80020BDE8F28F2DE916
S1130930F84F04000D001600771B5FF0190B5748A1
S113094000688246082C03D2002D01D0002E04D169
S11309500C2001F014FC0C202DE002F0AAF81AEB94
S11309608400D0F8A802A84209D11AEB840079596E
S1130970C0F8A812002078510020834618E01AEB32
S11309808400D0F8A8028046B8F1000F10D057F8C0
S113099008008146A94509D157F8090047F808001D
S11309A0002047F809000020834601E0C846EBE731
S11309B002F090F85846BDE8F28F2DE9F04137482F
S11309C00068040043F6F83020824FF4D57060824A
S11309D008202060012060600220E0810F206081F7
S11309E00F20A081D4F8B801002802D10120FFF71C
S11309F019FF0120C4F8F8020120C4F81C0101F019
S1130A00C3FD14F150000600E661E08A6083E08AC9
S1130A10B084D4F8A801000440F47F4050F0FF00F3
S1130A20F0600320B060002114F5A07002F070F9AA
S1130A30002114F5C07002F06BF900200700D4F80F
S1130A40B801050000208046286800280CD04FF625
S1130A50FF70804508D2E868874201D2E868070041
S1130A6018F101082035EFE7C4F8187114F5367051
S1130A7005000E482860E020A8600D4828610D4854
S1130A806860781CE860002114F5907002F040F969
S1130A900120C4F82C01BDE8F08100003400FF1FE0
S1130AA0684A01006C4A0100E000FF1F0300008057
S1130AB0584A0100A11F01000746384602F08AF98E
S1130AC0FBE750F8041B61B150F8042BD30744BF73
S1130AD0A9F101039A18002342F8043B091FFAD133
S1130AE0EFE7704770470100DFF8D007007801286E
S1130AF017D1C9B2002908D1DFF8C4071E22027039
S1130B00DFF8C0070A22027007E0DFF8B4071F22EB
S1130B100270DFF8B00780220270C9B2002907D141
S1130B2001E0012015E0DFF8A0078022027003E055
S1130B30DFF89407C0220270DFF88C070078000603
S1130B40FAD4DFF884070078800601D4002000E09E
S1130B501B207047C0B2002824D1DFF87017002290
S1130B600A70DFF86C17096849084900DFF8602744
S1130B701160DFF8601728220A70DFF85C17212261
S1130B800A70DFF8581738220A70DFF85417582211
S1130B900A70DFF850170978C9B211F00C010C295A
S1130BA0F7D1FFE77047C0B2002802D001282AD04D
S1130BB053E0DFF8181700220A70DFF814170968E9
S1130BC049084900DFF808271160DFF80817A82250
S1130BD00A70DFF8041721220A70DFF800173822A0
S1130BE00A70DFF8FC1658220A70DFF8F816097844
S1130BF0C9B211F00C010829F7D1DFF8E816097819
S1130C004906FAD529E0DFF8C41600220A70DFF895
S1130C10C016096849084900DFF8B4261160DFF8F6
S1130C20B416AB220A70DFF8B01621220A70DFF87E
S1130C30AC160D220A70DFF8A81640220A70DFF8FD
S1130C40A4160978C9B211F00C010829F7D1DFF80C
S1130C50941609784906FAD5FFE77047C0B2002810
S1130C6002D0012832D063E0DFF8601600220A7057
S1130C70DFF85C16096849084900DFF8542611605A
S1130C80DFF8541621220A70DFF84816A8220A70E9
S1130C90DFF85416097811F01F01DFF84C261170A3
S1130CA0DFF8381638220A70DFF8341618220A7072
S1130CB0DFF830160978C906FAD4DFF8281609785F
S1130CC0C9B211F00C010829F7D131E0DFF8FC15A5
S1130CD000220A70DFF8F815096849084900DFF8AE
S1130CE0F0251160DFF8F01521220A70DFF8E41511
S1130CF0AB220A70DFF8F015097811F01F01DFF854
S1130D00E8251170DFF8D41500220A70DFF8D01539
S1130D1000220A70DFF8CC150978C906FAD4DFF886
S1130D20C4150978C9B211F00C010829F7D1FFE7FD
S1130D307047C0B2012816D1DFF8981547220A700F
S1130D40DFF8941523220A70DFF8801500220A7058
S1130D50DFF890150978C906FAD5DFF888150978FF
S1130D60C907FAD5FFE77047C0B2002802D00128AE
S1130D7032D063E0DFF85C1544220A70DFF85815BE
S1130D8021220A70DFF86015097811F01F01DFF8DD
S1130D9058251170DFF8341500220A70DFF8301579
S1130DA0096849084900DFF828251160DFF82C1587
S1130DB038220A70DFF8281518220A70DFF8241583
S1130DC00978C906FAD5DFF81C150978C9B211F0FB
S1130DD00C010429F7D131E0DFF8F81447220A7036
S1130DE0DFF8F41421220A70DFF8FC14097811F0FA
S1130DF01F01DFF8F4241170DFF8D01400220A7008
S1130E00DFF8CC14096849084900DFF8C4241160EC
S1130E10DFF8C81400220A70DFF8C41400220A7034
S1130E20DFF8C0140978C906FAD5DFF8B8140978D0
S1130E30C9B211F00C010429F7D1FFE7704770B56E
S1130E4004000025E4B2002C02D0012C03D005E0FC
S1130E500420050002E001200500FFE700F031F85E
S1130E600600EDB2F6B20520DFF8801400FB061090
S1130E702E5CF6B2002E06D0022E0ED008D3042E1D
S1130E8015D00FD318E02000C0B2FFF76DFF13E0B8
S1130E902000C0B2FFF74DFF0EE02000C0B2FFF704
S1130EA0DDFE09E02000C0B2FFF77DFE04E0200073
S1130EB0C0B2FFF74FFEFFE7EDB2F6B2B542D0D1B4
S1130EC070BDDFF810040078C0B210F0C000002834
S1130ED004D0402804D080280BD013E0042012E072
S1130EE0DFF8F4030078800701D400200BE0012030
S1130EF009E0DFF8EC030078400601D4022002E0A8
S1130F00032000E00020704710B50400E4B2032C75
S1130F1001D30220B6E0E4B2002C03D0022C7BD033
S1130F203DD3A7E0DFF894030078022817D1DFF857
S1130F30B003007810F0DF00DFF8A4130870DFF8C6
S1130F40B003DFF8B01301600020FFF778FFDFF88B
S1130F509003007850F02000DFF884130870DFF865
S1130F609003DFF894130160DFF89003006830F019
S1130F700D0050F00200DFF884130860DFF850031E
S1130F80006850F48030DFF848130860DFF870031D
S1130F90006850F40020DFF8681308606AE0DFF8A6
S1130FA01C030078022817D1DFF83403007810F00E
S1130FB0DF00DFF82C130870DFF83403DFF8341394
S1130FC001600020FFF73BFFDFF81403007850F0C6
S1130FD02000DFF80C130870DFF81403DFF8241383
S1130FE00160DFF81803006830F00D0050F00200D3
S1130FF0DFF808130860DFF8D802006850F4803086
S1131000DFF8CC120860DFF8F802006850F4002022
S1131010DFF8EC1208602DE0DFF8C402007810F06D
S1131020DF00DFF8BC120870DFF8C402DFF8C41276
S113103001600120FFF703FFDFF8B4025FF44031E1
S11310400160DFF8B802006800090001DFF8AC12A3
S11310500860DFF87C02006850F48030DFF870121A
S11310600860DFF89C02006850F40020DFF890125A
S11310700860FFE72000C0B2FFF734FDDFF83C0250
S11310800470002010BDDFF83402007870470000BF
S113109080B5FFF71DFA9C48006850F400709A4927
S11310A0086040F2FF300078C0B2FF2810D09748A3
S11310B040F2FF31097801708B48007810F0E000AD
S11310C040F2FE31097811F01F0108438649087087
S11310D08748894901608948006830F00D0050F064
S11310E00200864908607A48006850F480307849E4
S11310F008608348006850F40020814908608448EF
S113110000688449084082490860704800210170E1
S11311106F480068400840006D4908606E4821210E
S113112001706C48A82101706F48007810F01F000E
S11311306D490870694838210170694818210170A7
S113114068480078C006FBD466480078C0B210F046
S11311500C000828F8D15D48002101705C48006843
S1131160400840005A4908605A48A82101705A486A
S113117021210170594838210170594858210170C2
S113118058480078C0B210F00C000828F8D155482F
S113119000784006FBD54D48002101704C4800689A
S11311A0400840004A4908604A48282101704A48DA
S11311B021210170494838210170494858210170A2
S11311C048480078C0B210F00C000C28F8D144480C
S11311D0007850F020004249087001BD4E480021BB
S11311E001604E48007810F0DC0050F050004B498C
S11311F008704B48007810F0DC0050F0400048497B
S113120008704848007810F0EC00464908704648D9
S1131210006850F08050444908604448002101703F
S113122043480021017043480021017042480021D5
S113123001704248007810F0600050F020003F49EF
S113124008703F48007810F0FC0050F084003C49DE
S113125008703C4830210170704770B504000026C6
S11312602000C0B2FFF750FE0600B6B2002E02D036
S1131270300080B20AE000212000C0B201F0B8FDC5
S11312800500C821280001F035FB002070BD80B5A1
S1131290FFF7F9FE02BD0200D2B2032A0BD2C9B293
S11312A01E2908D2C9B2D2B22820274B00FB023033
S11312B050F8210000E00020704700001001FF1FDB
S11312C00A4006400B4006400840064000500640D5
S11312D004800440004006400140064004400640AB
S11312E0054006400640064003400640404B0100CE
S11312F0448004400000330100001301488004408E
S113130000700440000077773880044002400640B3
S113131048900440FFF8FFFE1480044000D00740CA
S113132001D0074002D007403480044000C0074089
S113133001C0074002C0074003C0074004C0074083
S113134008C0074002E007405C4B010010B50024D0
S11313500020FFF7C8FB0400A4B2002C02D0200038
S113136080B20AE00120FFF7BEFB0400A4B2002C07
S113137002D0200080B200E0002010BD80B5FFF74D
S11313802DFF01BD80B5FFF783FE01BD30B402001F
S1131390DFF88032D2B2002A0AD0022A54D02DD3E8
S11313A0042A00F09D8075D3052A00F0BF80E3E095
S11313B0DFF864020400C80705D54FF45070A0613B
S11313C04FF45070E061880703D50020A06100202D
S11313D0E061480707D541F23400C05850F48060FA
S11313E041F23405E850080707D541F23400C058EB
S11313F030F4806041F23405E850C0E0DFF81C02AC
S11314000400C80705D54FF45070E0604FF45070E5
S11314102061880703D50020E06000202061480790
S113142007D541F23400C05850F4006041F234054D
S1131430E850080707D541F23400C05830F4006082
S113144041F23405E8509AE0DFF8CC010400C80703
S113145005D54FF45070A0604FF45070E0608807D9
S113146003D50020A0600020E060480707D541F2C2
S11314703400C05850F4805041F23405E850080755
S113148007D541F23400C05830F4805041F234059D
S1131490E85074E0DFF884010400C80705D54FF470
S11314A0507020644FF450706064880703D50020A6
S11314B0206400206064480707D541F23400C05816
S11314C050F4005041F23405E850080707D541F2C2
S11314D03400C05830F4005041F23405E8504EE076
S11314E0DFF83C010400C80705D54FF4507060666E
S11314F04FF450702066880703D5002060660020F2
S11315002066480707D541F22800C05850F480608F
S113151041F22805E850080707D541F22800C058D1
S113152030F4806041F22805E85028E0DFF8F0004C
S11315300400C80705D54FF4507020624FF4507072
S11315406062880703D5002020620020606248079B
S113155007D541F22800C05850F4006041F2280534
S1131560E850080707D541F22800C05830F400605D
S113157041F22805E85002E05FF0FF3000E000206F
S113158030BC704710B40100224B264802004FF4CF
S1131590806010634FF4806050634FF48060906308
S11315A04FF48060D0634FF4806010644FF4806027
S11315B050641D4802004FF4846010604FF4806052
S11315C0506041F22C00C05850F0010041F22C044C
S11315D0E050002010BC70471448006850F4785064
S11315E0124908600020704701000800032802D057
S11315F0042806D00BE0094802004FF440709064C0
S113160005E0074802004FF44070D066FFE7002071
S1131610704700000070044000C0044000B0044063
S113162000D004400090044000A0044038800440EE
S113163070B504000D0016002A003100200001F0EE
S1131640E1FB200070BD10B450F8041B81B10268A6
S11316501218001D50F8043BDC0744BFA9F1010433
S1131660E31852F8044B43F8044B091FF9D1EBE794
S113167010BC704762B38B0708D0521E11F8013BAF
S113168000F8013B00F024808B07F6D1830740F07B
S1131690208000BF103A07D330B4B1E83810103AB4
S11316A0A0E83810F9D230BC530724BFB1E80810C1
S11316B0A0E8081044BF51F8043B40F8043BD207AB
S11316C024BF31F8022B20F8022B44BF0B7803709F
S11316D07047083A07D3B1E80810083A40F8043BC9
S11316E040F804CBF7D25307E4E700002DE9F74FA5
S11316F004001D005FF00008DDF808B0DBF8080006
S1131700DFF83416884204D0382000F038FD002079
S113171078E00C34102C01D21020040014F10F00D6
S11317200409240101F0C5F9DBF814000600002EB9
S113173062D0CBF8186001F0CDF901F0BAF9DBF80A
S113174018000600002E57D0DBF81400864200D1A2
S1131750B04630688146A1454BD3B9EB04008246BC
S1131760BAF1100F0AD3A0190700C7F800A0C7F8F0
S113177004B0B068B860B760346002E04C46B0684A
S11317800700DBF81400864202D1CBF8147001E0A4
S1131790C8F80870DBF81400CBF81800DBF8140064
S11317A0CBF81C00DBF81400CBF82000DBF80C00AD
S11317B0CBF82400DBF80C00CBF828000198C068B3
S11317C0308100207081C6F804B0DBF82C00B042F0
S11317D001D2CBF82C6001F07DF9002D06D0B4F1D4
S11317E00C02002116F10C00FFF722FF16F10C0089
S11317F008E0B046B6689AE701F06CF9042000F0FE
S1131800BEFC0020BDE8FE8F2DE9FC4F83B083466B
S11318100C005FF00008DDF810A0DAF80800DFF82B
S11318201815884204D0382000F0A9FC00208BE071
S11318301BF10C0BBBF1100F01D2102083461BF1DE
S11318400F005FEA101B5FEA0B1B01F032F9DAF8B4
S113185014000500002D71D0CAF8185001F03AF9AF
S113186001F027F9DAF818000500002D66D0DAF83F
S11318701400854200D1A84628688146B4F10C00C2
S113188015F11001884256D319EB05001BEB040136
S11318900C3988424FD3B4F10C000600701B019040
S11318A0B9EB0B000199401A009001982860009848
S11318B010280AD31BEB0600070000983860C7F80D
S11318C004A0A868B860AF6004E0009810EB0B0BAC
S11318D0A8680700C6F800B0B760DAF81400CAF8C0
S11318E01800DAF81400CAF81C00DAF81400CAF870
S11318F02000DAF80C00CAF82400DAF80C00CAF860
S113190028000398C068308100207081C6F804A0C4
S1131910DAF82C00A84201D2CAF82C5001F0DAF807
S11319200E98002805D0BBF10C0200212000FFF71F
S11319307FFE200008E0A846AD688BE701F0CAF8F6
S1131940042000F01CFC002005B0BDE8F08F70B549
S11319500400DFF8E803006805000023D5F8142329
S1131960E9692000FFF7C2FE0600300070BDF8B53B
S113197004000D00DFF8C403006806000020009096
S1131980D6F81433F26929002000FFF73DFF070061
S11319903800F2BDF8B504000D00DFF8A0030068BC
S11319A0060000232200F1692800FFF79FFE0700CC
S11319B03800F2BD70B50400DFF88003006805004C
S11319C00123D5F81423E9692000FFF78FFE0600F0
S11319D0300070BDF8B504000D00DFF86003006846
S11319E0060001232200F1692800FFF77FFE0700AB
S11319F03800F2BD2DE9F84304000D001600DFF8AD
S1131A003C0300680700701981465FEA1910000161
S1131A10206115F10F00000900018046C4F80C8014
S1131A20C4F82C802069B0EB0800C8F8000000203E
S1131A30C8F80800C8F80440C4F81480C4F8188032
S1131A40C4F81C80C4F8208001F033F8D7F80803E8
S1131A50002804D1002117F5427001F059F9210042
S1131A6017F5427001F05AF901F034F8DFF8C802B2
S1131A70A0602000BDE8F2832DE9F8430400DFF8FC
S1131A80BC0200680500002C04D1012000F077FBA3
S1131A90012099E0B4F10C00060070688046D8F883
S1131AA00800DFF89412884204D0382000F067FB65
S1131AB0382089E03089E969C96889B2884209D047
S1131AC030894FF6FF71884204D0032000F057FBA1
S1131AD0032079E000F0EDFFD8F814000700D8F8EF
S1131AE01400002803D0D8F81400864218D2D8F87D
S1131AF01400070030688019B8420BD13068396887
S1131B0008183060B868B0600C2200213800FFF774
S1131B108FFD00E0B760C8F814600020814613E030
S1131B20B868864202D3B868002802D101208146F1
S1131B300AE0BF68C8F81C7000F0CCFF00F0B9FFE1
S1131B40D8F81C000700CAE7B9F1000F25D03068A7
S1131B508019B96888420DD13068B96809680818D5
S1131B603060B8688068B0600C220021B868FFF764
S1131B705FFD01E0B868B0603868C019B0420BD1AD
S1131B803868316808183860B068B8600C220021E1
S1131B903000FFF74DFD00E0BE60D8F81400C8F82F
S1131BA01800D8F81400C8F81C00D8F81400C8F8B5
S1131BB02000D8F80C00C8F82400D8F80C00C8F8A5
S1131BC0280000F087FF0020BDE8F283F8B5040088
S1131BD00D005A48006806000023220016F1500147
S1131BE02800FFF783FD07003800F2BD70B504003C
S1131BF05248006805000023D5F8142315F150015C
S1131C002000FFF773FD0600300070BD70B54B482F
S1131C100068040014F5517006003500C4F814532C
S1131C203036D4F8B001821B31002800FFF7E2FE01
S1131C30002070BD2DE9F84304000D00A8463F487C
S1131C4000680600B8F1000F05D1D6F814030700A8
S1131C50F868804609E0B5F10C008046D8F8040025
S1131C600700D8F8000010EB080800F022FF78699C
S1131C7081463869804519D2B8F80800E16889B20C
S1131C8088420ED1B9F1000F04D0C14502D2D9F86F
S1131C900890F7E7C14504D000F01CFF18F10C00D0
S1131CA00EE0D8F8000010EB0808E2E73F68F86897
S1131CB08046D6F814038742D9D100F00BFF0020E8
S1131CC0BDE8F2830200002A05D0B2F10C00030043
S1131CD05981012000E00020704718490968080074
S1131CE0D0F81403C06A7047B0F10C031A00CB6833
S1131CF013817047F8B504000D0010480068060011
S1131D000123220016F150012800FFF7EFFC070021
S1131D103800F2BD70B504000848006805000123CE
S1131D20D5F8142315F150012000FFF7DFFC06005D
S1131D30300070BD0000000070656D6C3400FF1F42
S1131D402DE9F04782B004000D0016001F005FF07B
S1131D50000ADFF8100500688046002D04D5152020
S1131D6000F00DFA002031E0A4B2002C03D1D8F821
S1131D70A801040012E0A4B2B4F5807F04D31320B8
S1131D8000F0FDF9002021E0A4B2D8F8A8018442B3
S1131D9004D0132000F0F3F9002017E0009700238B
S1131DA000223100280000F005FA8146B9F1000F45
S1131DB00BD0D9F80C00824600F07BFE484600F0B8
S1131DC032FB00F087FE12F0EFFB5046BDE8F687C9
S1131DD070B504000D001600002332002900200015
S1131DE080B2FFF7ADFF70BD2DE9F34F83B0DFF88C
S1131DF0740400688246039800280CD00398000CF1
S1131E00ADF80200BDF80200DAF8A81189B28842E0
S1131E1001D012202AE1039800F086F98346BBF131
S1131E20000F03D01AF15000834501D112201DE1A7
S1131E301AF5A67000F01FFD00F03BFEDBF8080069
S1131E40092807D100F046FE1AF5A67000F0D5FC6B
S1131E5000200BE1DBF8080002280CD1DAF81C00A2
S1131E6083453DD0DBF804100800DBF800100C00BB
S1131E700460606034E0DBF80800C0051DD5DBF8C1
S1131E800800C0052CD5DBF804100800DBF80010AE
S1131E900D0005606860BAF88801401EAAF8880140
S1131EA0DBF8080030F48070CBF80800DBF8080099
S1131EB050F00300CBF8080012E0DBF808008005BE
S1131EC00ED5DBF804100800DBF800100E000660E5
S1131ED07060DBF838000089401EDBF83810088198
S1131EE0DBF8080040050ED5DBF840100800DBF8ED
S1131EF03C100F0007607860DBF838000089401E52
S1131F00DBF8381008810920CBF8080000F0E2FD66
S1131F1000200400102C0DD21AEB8400D0F83402F7
S1131F20002805D058461AEB8401D1F834128847AA
S1131F30641CEFE7DBF80C00ADF80000DAF81C00D5
S1131F4001909BF8280080061ED400215846FFF714
S1131F5071FE0400002C17D021005846FFF76AFEDA
S1131F6005000198584504D01AF150012000FFF7EC
S1131F70BBFE5C4506D0DBF88C00844202D0200016
S1131F80FFF77AFD2C00E5E75FF00040CBF80C008A
S1131F90BAF82801012806D10120CAF82C01002032
S1131FA0CAF830010EE0BDF80000DAF82C118842BE
S1131FB008D2BDF80000CAF82C01DBF870006C38B8
S1131FC0CAF83001DBF870100800DBF86C108846A2
S1131FD0C0F80080C8F80400BAF82801401EAAF826
S1131FE028011AF5A67000F008FC019883452AD14F
S1131FF000F05FFDDBF804100800DBF800108946F0
S1132000C0F80090C9F80400584600F02EFF9BF871
S11320102800800615D4DBF88C00002809D01AF1BA
S11320205001DBF88C00FFF75FFEDBF88C00FFF754
S113203023FD1AF150015846FFF756FE5846FFF7A4
S11320401BFD12F0AFFA584600F00FFF9BF8280072
S113205080060AD4DBF88C00002803D0DBF88C005F
S1132060FFF70AFD5846FFF707FD002005B0BDE85D
S1132070F08F10B5040000212000FFF7B5FE10BD5D
S113208038B50400200000F04FF80500002D01D001
S1132090A86E00E0002032BD70B504002600DFF811
S11320A0C40100680500F068000C80B2D5F8A811DE
S11320B0884203D0122000F062F811E000F0F9FC2D
S11320C0B068022805D100F005FD112000F057F892
S11320D006E0300000F0A7F900F0FCFC12F064FA0E
S11320E070BD81B000208DF800005E4800680100DA
S11320F000A8CA699269904201D2012000E0002040
S113210001B07047574909680800018B002902D0C3
S1132110406BC06801E0C069C06D704751490968EF
S11321200800C069C0687047F8B504004D480068ED
S11321300700002C01D1F86920E0F86D844202D137
S113214017F150001AE000F0B4FCD7F820016C3805
S11321500500B7F8280106003000461E00280AD002
S1132160E868A04203D100F0B5FC280006E0E86E60
S1132170B0F16C05F0E700F0ADFC0020F2BD010009
S1132180384B1B681A00138B002B03D0536BDB688E
S1132190180002E0D369DB6D1800002901D0002883
S11321A007D1138B002B02D0536BD96001E0D369A4
S11321B0D96570472DE9F74F04000D001E0029482A
S11321C000680700002C17D000208246AB46D7F8E1
S11321D0B8018146D9F80000002806D0D9F80000DB
S11321E0A04202D019F12009F4E7D9F80000002830
S11321F008D10020814605E0A946D9F81800834695
S113220001208246B9F1000F04D11020FFF7B7FF77
S1132210002013E017F5A67000F02DFB019602983C
S1132220009053465A46F869C168484600F01CF8C5
S1132230804617F5A67000F0E0FA4046BDE8FE8F30
S113224038B5CA4800680400E0690500D5F8840080
S1132250002802D0D5F8840080470020FFF709FF4A
S113226031BD00003400FF1F2DE9F64F85B0040096
S11322709B46DDF840907B4800688046D8F81801FA
S1132280E168884208D218F53670844204D00E20E2
S1132290FFF775FF0020B9E0B9F1000F17D01198CE
S11322A00700B7F5CA7F04D80220FFF768FF0020B3
S11322B0ACE000234A4602A9380000F0D5F8050036
S11322C002983F1ABBF1000F18D0203F16E0A06817
S11322D00700D92F01D2D820070017F10F000709F2
S11322E03F01BBF1000F02D017F1200000E03800DD
S11322F00023002202A900F0B7F80500002D04D144
S11323000A20FFF73CFF002080E00320A860D5F8F6
S11323108C00002803D0D5F88C00060002E0029857
S113232040190600BBF1000F0CD003962036039829
S113233021002022FFF7AEF903980400206850F032
S1132340004020603900300000F063F8E0687FF05E
S11323500F01D8F8202001FB00208246C5F81CA0FC
S1132360C5F820A0BAF80C00A8846069A862B9F185
S1132370000F03D0A86A50F02000A86206980190CC
S1132380BAF80C00009023003A003100280000F055
S11323906DFD002801D1002038E0AC662068686635
S11323A0E069002808D0D5E92923E0690021101844
S11323B05941C5E9290109E015F1A40018F53F7157
S11323C0B1E80C10A0E80C100C390C38D8F8F8025D
S11323D0022803D1A86A50F00400A862D8F89C022D
S11323E06867D8F8A002A867D8F8A402E867059837
S11323F02866B9F1000F08D129002800FFF774FC02
S11324002900D5F88C00FFF76FFC280007B0BDE861
S1132410F08F8908491C491E002903D0544A0260E0
S1132420001DF8E7704710B4504C24682100C469BB
S11324302200546823004C6A944200D24A62022467
S1132440846043601C680460186050600024C0F815
S1132450B0400024C0F8B4400024C0F8B84010BC18
S1132460704700003400FF1F2DE9FB4F82B01400B9
S11324705FF0BC093D4800680500B5F828014FF637
S1132480FE71884201D300206CE00398C0F80090EC
S1132490002C06D0A3464A4600215846FFF7C8F848
S11324A022E04846FFF786FA8346BBF1000F04D0CA
S11324B00298FFF74CFACBF88C00BBF1000F01D166
S11324C058464FE0DBF88C00002804D15846FFF74B
S11324D0D3FA002046E024215846FFF7F3FB2521D8
S11324E0DBF88C00FFF7EEFBD5F82C018246D5F81B
S11324F030010600D5F8A8011FFA8AFA5AEA00400A
S1132500CBF80C00002E03D115F59070009002E07A
S113251016F16C0000901BF16C02009915F5907097
S113252000F036FCD8464646F06E6C380700B846D4
S11325301AF1010A1FFA8AFABAF1000F01D1012037
S1132540824615F59070874205D0F86880B21FFA6C
S11325508AFA5045E7D0C5F830611FFA8AFAC5F8FF
S11325602CA1584605B0BDE8F08F00003400FF1FD1
S11325706B6174730200D36D1800002901D0002828
S113258000D1D1657047000030B4324C246820007B
S113259010F5D47421004C692200082A04D30724BE
S11325A0220007244C6105E0002A03D10124220003
S11325B001244C61540114F0E004C482002423007B
S11325C06A2B04D2244CC0251D555B1CF8E7234C10
S11325D000252B00042B05D25FF0FF3544F823506F
S11325E05B1CF7E730BC7047F8B51A480068040074
S11325F000202062D4F81801801C06003001FFF787
S1132600D9F90500002D01D1042022E0052128007C
S1132610FFF758FB37003800471E002816D02D60FE
S11326206D60EF81D4F8BC01C019072807D2D4F833
S1132630BC01C019400110F0E000A88101E0C020F5
S1132640A881206AA86025621035E4E7206A6062E8
S11326500020F2BD3400FF1F00E400E080E100E050
S11326602DE9F84304000D0016001F00DFF87C027A
S113267000688046A561002114F1080000F048FBC1
S113268000F017FA002E15D1D8F84001814618F54C
S1132690A070814509D0A14504D100F01BFA4FF484
S11326A082600DE0D9F80090F1E7210018F5A070E0
S11326B000F034FBDFF83802606100F00BFA002010
S11326C0BDE8F28338B504000D0000230022290080
S11326D02000FFF7C5FF32BD38B504000D0000230C
S11326E0012229002000FFF7BBFF32BD2DE9F0478E
S11326F004000D00DFF8F4010068060000F0D9F9C9
S11327006069DFF8EC11884203D000F0E3F91F2080
S11327104CE000206061208A002829D014F10800D0
S113272000F01CFB8146B9F13C09D9F80800C0054A
S11327301AD5D9F804100800D9F800108A46C0F850
S113274000A0CAF80400B6F88801401EA6F8880163
S1132750D9F8080030F48070C9F80800D9F80800E6
S113276050F00300C9F808004846FFF75CFED2E7C2
S1132770D6F84001070016F5A070874211D0A74291
S11327800DD16168080021688846C0F80080C8F847
S11327900400B6F84801401EA6F8480101E03F686D
S11327A0E9E700F097F911F0FFFE0020BDE8F0879B
S11327B010B5040000212000FFF798FF10BD70B58C
S11327C00400DFF82801006805006069DFF82011C3
S11327D0884201D000200FE000F06BF9A0690128C5
S11327E002DA0020060004E0A069401EA061012076
S11327F0060000F06FF9300070BDF8B505003B48E5
S11328000068060068693A49884201D01F2031E017
S113281000F04FF9A869002826D4288A002823D07C
S113282015F1080000F09AFA07003C3FB868C005AB
S113283012D57968080039680C0004606060B6F845
S11328408801401EA6F88801B86830F48070B8602A
S1132850B86850F00300B8600020B8633800FFF790
S1132860E2FD11F0A1FE02E0A869401CA86100F09D
S113287031F90020F2BDF8B504001C4800680500D9
S1132880288B002801D00D202FE060691849884268
S113289001D01F2029E000F00CF9A069012816DA04
S11328A0E869060040F22B40B06014F10800B06300
S11328B07168080031680F000760786016F13C0108
S11328C014F1080000F02AFA11F07CFE02E0A0697D
S11328D0401EA06160690649884203D000F0FAF8FE
S11328E01F2002E000F0F6F80020F2BD3400FF1FC4
S11328F06D73776CB0FBF1F2521E544B1A60704743
S113290010B500F071FA0021C0B200F071FA0400B1
S1132910C8212000FFF7EEFF4D48072101604D4814
S1132920006850F080504B4908604B48006850F0F4
S113293080404949086010BD70B5484800680400EB
S113294042F26200FDF775FF5FF000510020FFF7CF
S11329500EF8FA21002000F0C9FA0500002D01D07C
S113296028004CE03E4800F0CFFA06000F2000F0AB
S113297067FC00220FF289010F2000F02AF90028D9
S113298001D126203BE0FEF7F9FCFFF7B9FF012057
S1132990FEF763FC002801D0262030E0FEF7D6FCC9
S11329A0002801D026202AE00020FEF756FC00284B
S11329B001D0262023E02948006804002948C4F8EF
S11329C09801C82000F036FCD4F8980100F046FCC9
S11329D000210FF2390000F039FC00F049FC00F04E
S11329E051FC0500002D01D0280008E01E480268B3
S11329F01D491E4800F062FC00F07AFD002070BD05
S1132A0010B5040000F066FB10BD000010B4010016
S1132A10002423000D4C24682402240A641C200092
S1132A20134C24682402240A2200124C24686401F2
S1132A3005D50F4C24682402240A22000300002A2E
S1132A4000D10200801A181810BC704714E000E08E
S1132A5010E000E01CED00E020ED00E03400FF1F7A
S1132A600000000000530700D44B0100F84A0100A5
S1132A7018E000E004ED00E0F8B50500DFF884029A
S1132A8000680600F069070000F013F8B8680B2826
S1132A900CD00B20B860BD6341213800FFF76AFDFC
S1132AA07968080039680C000460606000F012F86E
S1132AB0F1BDDFF8501209680800C169496D0029A9
S1132AC002D1C18A81F31188C169496D491CC26967
S1132AD051657047DFF82C1209680800C169496D17
S1132AE0002911D0C169496D491EC2695165002987
S1132AF00AD1018B002904D0416B896881F31188C4
S1132B0002E0418B81F31188704701000020704777
S1132B1070B50400DFF8EC0100680500A86B00281C
S1132B2004D11820FFF72BFB002021E0E86A84423F
S1132B3002D3286BA04204D21420FFF720FB00200C
S1132B4016E0FFF7B6FFE86A201AC008A96B51F82F
S1132B5020000600002E04D03068A04201D036695F
S1132B60F8E7FFF7B7FF002E01D0706800E0664871
S1132B7070BD70B50400634800680500A86B0028A8
S1132B8004D11820FFF7FBFA002021E0E86A844210
S1132B9002D3286BA04204D21420FFF7F0FA0020DD
S1132BA016E0FFF786FFE86A201AC008A96B51F8FF
S1132BB020000600002E04D03068A04201D03669FF
S1132BC0F8E7FFF787FF002E01D0F06800E000204F
S1132BD070BD2DE9F84304000D0016004948006853
S1132BE00700B86B002804D11820FFF7C8FA0020AA
S1132BF04FE0F86A844202D3386BA04204D2142016
S1132C00FFF7BDFA002044E0FFF753FFF86A201AEB
S1132C10C008B96B51F820008046B8F1000F06D007
S1132C20D8F80000A04202D0D8F81080F5E7B8F137
S1132C30000F22D11420FEF7D9FF8046B8F1000F0F
S1132C4006D1FFF747FF0420FFF799FA002020E0A0
S1132C5023214046FFF736F8F86A201AC008B96BFA
S1132C6051F82000C8F81000F86A201AC008B96B9F
S1132C7041F820802448814602E0D8F804008146C7
S1132C80C8F80040C8F80450C8F80C60FFF722FFE9
S1132C904846BDE8F2832DE9F04104000D00A54249
S1132CA001D20C202BE01748006806001748C6F82C
S1132CB00C011548B062281B401CC008401C80460B
S1132CC05FEA8800FFF726F80700002F01D10420EF
S1132CD015E003213800FEF7F5FFB763F4623563AE
S1132CE0A6F840830320A6F842034046B0F1010849
S1132CF0002803D0002047F82800F6E70020BDE8AC
S1132D00F08100003400FF1F792A0000A74601006B
S1132D1000604060002202814181704738B50400A0
S1132D200D00FFF7C6FE6089002807D0208961895D
S1132D30884203D3FFF7CEFE00200EE061680968E5
S1132D400800286061680D606168696045602089D9
S1132D50401C2081FFF7BEFE012032BD70B5040087
S1132D60FFF7A7FE2089002803D1FFF7B3FE002058
S1132D700DE0206805006968080029680E000660F7
S1132D8070602089401E2081FFF7A4FE280070BDDA
S1132D9070B504000D001600002D00D12500FFF7CA
S1132DA088FE6089002807D020896189884203D37E
S1132DB0FFF790FE00200BE02968080030602E60C9
S1132DC0756046602089401C2081FFF783FE012046
S1132DD070BD0000C046C046024A11001820ABBEB8
S1132DE0FBE700BF2600020080B5FEF750FA02BDE3
S1132DF038B504000D002900C9B22000C0B2FEF7A6
S1132E004AFA32BD62F30F2262F31F42401810F0F7
S1132E10030308D0C91A1FD3DB0748BF00F8012DEC
S1132E2028BF20F8022D130030B41446154610397B
S1132E3028BF20E93C00FAD8490728BF20E90C0044
S1132E4048BF40F8042D890028BF20F8022D48BF50
S1132E5000F8012D30BC7047C91818BF00F8012DC7
S1132E60CB0728BF00F8012D704770472DE9F44FB8
S1132E7004000D001E000A9FDDF82C805FF0010B9A
S1132E8000984019401E000900018146B9F1640010
S1132E908246C4F8109015F10F0000090001A061EA
S1132EA0C4F814A0642200215046FEF7C1FB0E486A
S1132EB0CAF84000CAF82C80706850F00100CAF8C3
S1132EC044005FF08070CAF84800CAF858800020B7
S1132ED0CAF80000CAF804707FF00200CAF828009B
S1132EE05846BDE8F28F00BF4122000070B50400CF
S1132EF00D0029002000FFF7CEFE0600002E01D1B0
S1132F0000F012FB300070BD0100034A126810008B
S1132F10014A11607047000008ED00E070B504003C
S1132F20DFF8440300680500002C15D0E8690600AA
S1132F3016F14401200000F001FBFFF7BAFD16F181
S1132F40440215F5B47116F1440000F03BFB300067
S1132F5000F020F8FFF7BEFD70BD70B50400DFF887
S1132F60080300680500002C03D10C20FFF707F9C3
S1132F700FE0E8690600FFF79CFD16F1440215F521
S1132F80B471200000F01EFB300000F003F8FFF7DE
S1132F90A1FD70BD2DE9F8430400DFF8CC02006800
S1132FA0804618F5C0708146B8F88801002826D0FC
S1132FB0D8F880010500B8F88801401C0600761E88
S1132FC0002E1CD0D4E91123D5E911018B4204D879
S1132FD001D3824201D201270CE0D5E91123D4E9BF
S1132FE011018B4205D801D3824202D25FF0FF3730
S1132FF000E00027002F02D5A9462D68DFE76168AD
S1133000080021688C46C0F800C0CCF804002200F7
S1133010494618F5C070FFF7BBFEA06850F48070F5
S1133020A06011F0CFFABDE8F18370B50400DFF8B9
S11330303C0200680500002C03D10C20FFF79FF828
S11330400EE0E869060016F144000ECC0EC00C3CFC
S11330500C38FFF72EFD3000FFF79CFFFFF73AFD19
S113306070BD10B584B00400002C06D000A800F098
S113307005F8210000A800F0CFFA1FBD38B5040000
S1133080002C1AD0DFF8E40100680500FFF711FDF9
S113309015F5B4700EC80EC40C380C3CD5F8A0015C
S11330A0002805D0D5F8A401D5F8A0118847A06060
S11330B0FFF710FD200000F001FB31BDDFF8AC216B
S11330C012681100D1F8942110004FF47A72B2FB07
S11330D0F0F070472DE9F84FDFF890010068040024
S11330E0D4E95A01401C51F10001C4E95A01FFF727
S11330F0E0FCD4F8A001002806D0D4F8A401D4F848
S1133100A0118847C4F8700114F5B47000F0D6FA21
S1133110B4F888010600002E4CD0D4F880010500D4
S1133120761C761E002E45D028688346D5E91123E7
S1133130D4E95A018B4204D801D3824201D2012737
S11331400CE0D4E95A23D5E911018B4205D801D307
S1133150824202D25FF0FF3700E00027002F29D41B
S1133160B4F88801401EA4F8880169680800296839
S11331708A46C0F800A0CAF80400A86830F4807039
S1133180A860A868400510D5A86830F48060A860DD
S1133190296C0800E96B8946C0F80090C9F804005E
S11331A0A86B0089401EA96B08812800FFF73BF932
S11331B05D46B6E7E069050095F8280040072ED57E
S11331C0D5E92C01401C51F10001C5E92C01A86A84
S11331D0C00424D4D5E92923D5E92C018B4204D891
S11331E001D3824201D201270CE0D5E92C23D5E991
S11331F029018B4205D801D3824202D25FF0FF3706
S113320000E00027002F0AD469680800296888466E
S1133210C0F80080C8F804002800FFF704F9FFF79D
S113322059FCD4F83C03002802D0D4F83C0380476E
S1133230BDE8F18F0D4A12681100C1F8940170477E
S11332400A4A12681100C1F88C017047074B1B68C9
S11332501A00C2F8A001C2F8A4117047034A126808
S11332601100C1F89C0170473400FF1F3400FF1F98
S11332700348006840084000014908600020704786
S113328000D0004010B5074800680400002114F580
S11332902470FFF73DFD012114F51D70FFF712FAAC
S11332A010BD00BF3400FF1FC17851F02C01C17064
S11332B07047C17811F05301C17070477FB50400A5
S11332C00D00160003960295074801900FF2FD10B9
S11332D000900FF289030FF2A5020FF211012000F2
S11332E000F008FA04B070BD254000002DE9F0415B
S11332F004000D00606907002A0014F11801380069
S113330000F0F8FD8046B8F1000F01D0404622E0FD
S1133310A06906003869FFF72CFCF0623869FFF7F2
S1133320F4FBB06222000FF28D017869FFF751FCC3
S113333070620122F969786901F040F822000FF205
S1133340D1013869FFF745FC70620122B969386917
S113335001F034F80020BDE8F081000070B50400ED
S11333600D002E6A2900200000F044FEEA6A696A12
S11333702069FFF72EFC002070BD000070B504002A
S11333801425266A04216068C0B2FDF7FFFFE80631
S113339003D53000FFF788FF02E03000FFF789FF14
S11333A0280704D508216068C0B2FDF7EFFF0020AC
S11333B070BD000070B401008A69136A1C79556BF2
S11333C06D1C5563250702D5D56C6D1CD564E507C6
S11333D002D5556C6D1C5564650702D5556D6D1C81
S11333E05565A50702D5956C6D1C95640A252C427C
S11333F00BD0DD799E7CF60707D55D7C55F0400542
S11334005D749D7C55F001059D7470BC704700008F
S11334102DE9F04182B004002500AE69376A97F8BF
S11334200480706B401C70635FEA087002D5F06C16
S1133430401CF0645FEAC87002D5706C401C706474
S11334405FEA487002D5706D401C70655FEA887051
S113345002D5B06C401CB0640A2018EA000F0CD0EE
S1133460F879B97CC90707D5787C50F040007874A6
S1133470B87C50F00100B87425E05FEA88600ED58E
S1133480F87900900099C9B2280000F02CFC0028BB
S113349002D1306D401C3065B06B401CB0635FEAF4
S11334A0086010D5280000F098FC009000980028CF
S11334B002D40098F87103E0F87810F07F00F870F7
S11334C0F06B401CF063BDE8F381000010B4846924
S11334D02200146A23001C792406FCD5D971D46B0C
S11334E0641CD463DC7854F08004DC7010BC704736
S11334F010B50C4800680400D4F8C80100280FD0A7
S1133500D4F8CC11D4F8C80100F0BAFFC4F89C0276
S1133510D4F89C02C4F8A002D4F89C02C4F8A40213
S113352010BD00BF3400FF1F034909680800C16BC8
S113353081F30888704700BF3400FF1F70B5040092
S11335400D000020A8601C480068012807D11B4812
S11335500068B4FBF0F00021C5E900012AE0184836
S1133560006806001448006802280BD1D6F89401BC
S1133570A0FB04014FF47A72002301F007F8C5E9B7
S1133580000117E04FF47A70D6F89411B0FBF1F013
S11335900A49086009480068D6F894114843B0F510
S11335A07A7F03D1044801210160D0E70248022157
S11335B00160DBE770BD00BF0401FF1F0001FF1FB6
S11335C03400FF1FF0B58646DEE90067D1E9004507
S11335D034197D41C2E90045DEF8084020008C68BA
S11335E023000C4C2468D4F89C41A446BCEB03048F
S11335F0A0420BD3D2E90045641C55F10005C2E991
S113360000451C18B4EB0C04946001E01C18946091
S1133610F0BD00BF3400FF1F2DE9F04F05000C0082
S1133620254800688346DBF894018246D5E9000109
S11336305246002300F0AAFF01290AD301D800282A
S113364007D35FF0FF30206040F2E7306060002075
S113365030E0D5E900234FF47A700021A0FB028901
S113366000FB039901FB0299A8684FF47A7148435F
S1133670DBF89C11B0FBF1F0002118EB000059EBD2
S1133680010106000F00300039005246002300F00B
S11336907DFF06000F00300039004FF47A720023DA
S11336A000F074FF206020684FF47A7101FB106011
S11336B060600120BDE8F08F3400FF1FD0B40C4AD5
S11336C012681100D1F89C2114008268A2420DD323
S11336D08268B2FBF4F2D0E900670023B6185F41B8
S11336E0C0E90067836804FB12328260D0BC704773
S11336F03400FF1F2DE9F34F83B014001D000E9E0C
S11337000F9FDDF84080DDF844905820FEF702FB5F
S11337108246BAF1000F01D1042026E04FF47E71F5
S11337205046FEF7CFFA0498CAF80000CAF80440DD
S1133730CAF80850CAF80C60CAF81070CAF81480A5
S1133740CAF81C90CDF808A00FF2054001900FF2C2
S1133750AD3000900FF259230FF2F5120FF2110160
S1133760039800F08AFF8346584605B0BDE8F08F01
S11337702DE9F84304000D0016005FF000092068ED
S11337800700786A8046D8F82000002809D0D8F8C5
S11337902000401CC8F82000D8F82400A060484647
S11337A0D3E0002000F086FFC8F82C00002000F0D1
S11337B081FFC8F83400D8F81C001030FEF716FA60
S11337C0C8F82800D8F81C001030FEF70FFAC8F823
S11337D03000D8F8280000280BD0D8F83000002892
S11337E007D0D8F82C00002803D0D8F834000028DB
S11337F021D1D8F82800002803D0D8F82800FEF7F3
S11338003BF9D8F83000002803D0D8F83000FEF790
S113381033F9D8F82C00002803D0D8F82C0000F095
S113382088FFD8F83400002803D0D8F8340000F01A
S113383080FF042089E040F2FA31D8F82800FEF72E
S113384041FA40F2FB31D8F83000FEF73BFAD8F8E1
S11338502800D8F81C100160D8F828000021416025
S1133860D8F8280000218160D8F828000021C16020
S1133870D8F83000D8F81C100160D8F830000021C6
S11338804160D8F8300000218160D8F83000002170
S1133890C160D8F81C00D8F81C10B0EBD100C8F8EF
S11338A04C00D8F81C004008C8F85000C8F8246040
S11338B0A66029004046D8F8002090478146B9F117
S11338C0000F2BD1D8F81800D8F804108847814687
S11338D0D8F81000002815D03000000709D50220C0
S11338E0009000AA40F60A51D8F81800D8F8103011
S11338F09847009600AA40F60251D8F81800D8F864
S113390010309847B9F1000F08D13000C00605D532
S113391016F00700002801D00C208146B9F1000FF1
S11339200FD0D8F82800FEF7A7F8D8F83000FEF733
S1133930A3F8D8F82C0000F0FCFED8F8340000F00E
S1133940F8FE0120C8F820004846BDE8F2830000D4
S1133950F8B50400002720680500686A0600306A8C
S1133960401E3062002821D1306900280AD0207A14
S1133970000707D50220009000AA40F60B51B06959
S113398033699847B068002804D0B1697069B26897
S113399090470700B06AFEF76FF8306BFEF76CF8DB
S11339A0F06A00F0C6FE706B00F0C3FE3800F2BD92
S11339B02DE9F04F83B004000D0093460027D9464B
S11339C0206801900198406A0600A0688046B9F119
S11339D0000F00F08F80B06A8246FFF76AF85FEA52
S11339E0C86008D5DAF8040000280CD1BBEB090B39
S11339F0FFF770F87EE0DAF80400002803D1F06ADB
S1133A0000F0DCFEF7E7DAF80400002816D0DAF854
S1133A100400401ECAF80400DAF80800411CCAF881
S1133A20081010EB0A00007C0700DAF80800DAF846
S1133A300010884202D10020CAF80800306C002827
S1133A4026D0DAF80400316D884221D25FEA08708A
S1133A500DD53069002807D00220009000AA40F656
S1133A600A51B069336998470020306410E0B06BA4
S1133A70002805D0F06B002802D10120B06407E0D3
S1133A80002030640120B06311213000F2689047B7
S1133A90FFF720F85FEA88701ED5FFB20D2F0BD117
S1133AA05FEA487005D500223900C9B2300000F041
S1133AB0DCF80A2007000FE0FFB2082F0CD15FEA00
S1133AC0487009D500220821300000F0CEF8002209
S1133AD02021300000F0C9F85FEA487005D50022C3
S1133AE03900C9B2300000F0C0F82F706D1CB9F174
S1133AF001096CE75846BDE8FE8F00002DE9F04748
S1133B0004000D001600B24620680700786A80465B
S1133B10A0688146BAF1000F17D05FEA897007D513
S1133B2028780A2804D100220D21404600F09DF88F
S1133B304A462978404600F098F8002803D06D1CC6
S1133B40BAF1010AE6E7B6EB0A063000BDE8F087F1
S1133B502DE9F04704000D0016005FF00009B2469D
S1133B6020680700786A80462800C01E3BD0C01E2B
S1133B700ED0C01E46D040F6F841401A13D0401E65
S1133B8015D0401F25D00E3848D0401E52D05DE0DD
S1133B90D8F828004068002802D00120306001E0F5
S1133BA0002030605EE0D8F8240030605AE03068CD
S1133BB0C8F824003068A060D8F81000002807D0A6
S1133BC032002900D8F81800D8F8103098478146F8
S1133BD048E0D8F83800002801D1012000E0002096
S1133BE0C0B230603EE0FEF764FFD8F830004068B1
S1133BF0002804D0D8F8340000F0E0FDF5E7FEF723
S1133C0069FF2FE00E20CAF800000020CAF8040063
S1133C104A20CAF808000020814623E0D8F8300082
S1133C200068D8F830104968401ACAF8000000202B
S1133C30814617E0D8F828000068D8F828104968A9
S1133C40401ACAF80000002081460BE0D8F81000A2
S1133C50002807D032002900D8F81800D8F810300E
S1133C60984781464846BDE8F087F8B504000D0042
S1133C701600206B0700FEF71CFFF00607D57868D6
S1133C80396888420BD3FEF725FF00202AE07868C4
S1133C903968884203D3606B00F090FDF7E7A06BAE
S1133CA0002802D1E06B002812D078683968884275
S1133CB015D2F868411CF960C0190574F8683968B0
S1133CC0884201D10020F8607868401C786006E0E2
S1133CD00120A0632900C9B22000E2689047FEF7E2
S1133CE0F9FE0120F2BD70B582B004000D0094F815
S1133CF02400C00710D5E06B002806D0EDB2112DCA
S1133D000AD10020E063012066E0EDB2132D03D157
S1133D100120E06301205FE0A06A0600706831685A
S1133D20884252D27068316888420DD2F068411CD2
S1133D30F16080190574F0683168884201D100206F
S1133D40F0607068401C706094F8240010F0090F53
S1133D5036D0E06C7168884217D2206C00282FD1CD
S1133D6094F82400C00702D50120606428E020698B
S1133D70002807D00220009000AA40F60B51A06949
S1133D8023699847012020641AE07068216D8842F5
S1133D9016D2206C002813D094F82400C00702D552
S1133DA00120A0640CE02069002807D002200090C4
S1133DB000AA40F60A51A0692369984700202064AC
S1133DC0E06A0089002802D105E0002004E0012116
S1133DD0E06A00F032FD012076BD38B5040094F8A5
S1133DE02400C00711D5606C002805D00020606451
S1133DF00120206413203FE0A06C002805D000209F
S1133E00A06400202064112036E0E06B002802D179
S1133E10A06B002802D15FF0FF302DE0206B4068DA
S1133E2000280CD10020A063606B0089002803D017
S1133E300121606B00F001FD5FF0FF301CE0206B9E
S1133E404068002816D0206B4068401E216B4860F3
S1133E50206B8068216B421C8A60216B4018007CB7
S1133E600500206B8068216B0968884202D1206BB1
S1133E7000218160EDB2280032BD000070B403005F
S1133E800025002400291AD0002A18D01001B1FB03
S1133E90F0F00500002D0DD0280100FB121056088B
S1133EA016EB4000B0FBF2F00400202C02D36D1C92
S1133EB000200400B5F5005F01D316200EE0280AA7
S1133EC010F01F0018705D70987A10F0E00098727E
S1133ED0987A14F01F0630439872002070BC704723
S1133EE0C17851F00C01C1707047C17811F0F30131
S1133EF0C17070472DE9F84F04000D00160060688A
S1133F0081464846C0B200F0DBFC0700002F01D117
S1133F102B206CE05820FDF7FDFE8046B8F1000F21
S1133F2001D1042063E0C5F80080C8F82070404641
S1133F3021002022FDF7AEFB0120C8F83000D8F89C
S1133F4008008246152083465946C9B24846C0B285
S1133F50FDF71CFA04214846C0B2FDF717FAD8F859
S1133F600C2051463800FFF789FF0020B870F8781C
S1133F7010F0FD00F870B87A10F03F00B87200201D
S1133F803872002078720020B871387CC0F30210B7
S1133F90C0B2002802D10020F87407E00120397C67
S1133FA0C1F30211491C8840401EF8740120787541
S1133FB0F87810F0F300F870387C50F0880038740A
S1133FC0787C50F0C00078745FEACB6003D5380089
S1133FD0FFF786FF02E03800FFF787FF5FEA0B7008
S1133FE004D508214846C0B2FDF7D0F90020BDE849
S1133FF0F28F000070B504000D00042604216068EF
S1134000C0B2FDF7C3F9286A0021C170300704D596
S113401008216068C0B2FDF7B9F92800FDF72CFD4E
S1134020002070BD2DE9F04104000D001600276A40
S11340302800C01E00F0708140F6FF41401A00F0D5
S11340403781401E70D0401E71D0401E00F07F802A
S1134050401E00F09580801F2ED0401E18D0401EB8
S113406000F06B81401E00F05E81401E00F0B780BE
S1134070401E00F0A480001F00F09380401E00F05A
S11340809780401E00F03481401E00F03E818FE195
S113409008208046B878C0060BD594F83000C007D5
S11340A007D5B878800702D5B87A800601D518F10B
S11340B00108C6F800807EE13068082804D0306822
S11340C0092801D00C2077E13068082814D194F82D
S11340D03000C00727D5B87A10F0DF00B872B8787E
S11340E0800704D5B87850F01000B8701BE0B87899
S11340F010F0EF00B87016E094F83000C00710D547
S1134100B87850F01000B870B878800704D5B87A41
S113411050F02000B87206E0B87A10F0DF00B872F0
S113412001E0162048E146E1E068306043E1A06820
S11341308046326841463800FFF7A0FE8046B8F159
S1134140000F01D0404637E13068E06033E1606B36
S11341503060361DA06B3060361DE06B3060361D5C
S1134160206C3060361D606C3060361DA06C306091
S1134170361DE06C3060361D206D3060361D1AE14E
S1134180002060630020A0630020E063002020641E
S1134190002060640020A0640020E064002020650A
S11341A009E13879C0F3C01010F00100306002E179
S11341B03879C0F3401010F001003060FBE00120BA
S11341C08046B878800707D5B878C00702D50220A2
S11341D0804601E003208046C6F80080EBE03068AA
S11341E0012804D061D3032838D014D35DE0B87813
S11341F080070FD5B87810F0FC00B870B87A800644
S113420004D5B87A10F0DF00B87203E0B87810F083
S1134210EF00B8704BE094F83000C00701D41620CA
S1134220CAE0B878800704D5B87850F00100B870B7
S113423013E0B87850F00300B870B878C00604D51D
S1134240B87A50F02000B87207E0B87A10F0DF00B6
S1134250B872B87850F01000B87028E094F83000C4
S1134260C00701D41620A7E0B878800704D5B87831
S113427010F0FE00B87017E0B87850F00200B87083
S1134280B87810F0FE00B870B878C00604D5B87AD3
S113429050F02000B87207E0B87A10F0DF00B8726E
S11342A0B87850F01000B87001E00C2084E082E08F
S11342B0307880060BD56068FDF796F9787B10F0AE
S11342C0F6007873787B50F0020078730FE0307852
S11342D0000708D5787B10F0FD007873787B50F0E8
S11342E00900787303E0787B10F0F400787362E0DF
S11342F03068012804D1F87810F0FB00F87003E06E
S1134300F87850F00400F87055E03879002801D1AD
S1134310012000E000204EE0B87C0006FCD538798E
S11343204006FCD547E094F83000C00702D50120D0
S1134330306001E0032030603DE03068012814D192
S113434094F83000C00732D4B87A10F0DF00B872A5
S1134350B87810F0EF00B870B87910F0BF00B871F9
S1134360206B50F00100206321E0306803281CD149
S113437094F83000C0071AD5B878C00602D4B878CB
S1134380800701D5162017E0B87A10F0DF00B87264
S1134390B87850F01000B870B87950F04000B87197
S11343A0206B40084000206301E00C2004E002E0A0
S11343B040F6092000E00020BDE8F0812DE9F0413D
S11343C004000D0016002D4FB4F11008082D01D380
S11343D00C2029E0FB2C26D25FEA980017EB800022
S11343E05FEA980117EB8101D1F80013FF2218F05E
S11343F00303DBB2DB009A4091436A0112F0E0024E
S113440018F00303DBB2DB009A401143C0F8001339
S1134410002E03D0200000F009F802E0200000F094
S113442018F8002000E00C20BDE8F08130B4010051
S1134430124AB1F11003FB2B08D25809012413F0DE
S11344401F05AC4042F82040002000E00C2030BCA6
S1134450704730B40100094AB1F11003FB2B0AD2B2
S1134460580912EB8000012413F01F05AC40C0F87A
S11344708040002000E00C2030BC704700E100E0E8
S11344802DE9F84F04000D002E480068060016F5CB
S11344901D70FEF7F0F9D6F89002804616F52470E8
S11344A080451DD0D8F808008146A2469AF800003D
S11344B000280ED099F8000000280AD09AF80000CD
S11344C099F80010884204D11AF1010A19F101097E
S11344D0ECE799F80000002802D0D8F80080DDE766
S11344E016F51D70FEF789F916F52470804501D183
S11344F0002024E02020FDF70DFC0700002F01D14F
S113450000201CE010213800FDF7DCFBC7F8008018
S1134510D8F80C00002811D02A0021003800D8F85F
S11345200C3098478346BBF1000F07D05846FDF77F
S113453026FE3800FDF7A0FA002000E03800BDE8B0
S1134540F28F00BF3400FF1F13F0004C03D55B4211
S1134550524263F100039CEA210C00F0178010B56D
S1134560644603D34942404261F1000100F00EF871
S1134570640004D34942404261F10001244203D55E
S11345805B42524263F1000310BD00001B4213D191
S1134590094236D12AB18446B0FBF2F002FB10C2C4
S11345A0704700F0BBB9FCD30022002370470B0016
S11345B00200002100207047904271EB030CF6D3F7
S11345C070B5B1FA81F4B3FA83F52C1BA340C4F19E
S11345D0200532FA05F63343A2405FF00046E64078
S11345E002E05B085FEA3202841A71EB030524BF20
S11345F0204629467641F4D302000B003000002106
S113460070BD012ACFD970B5140C20D0B1FA81F451
S1134610B2FA82F5C4F120046419B4F12006D6D3A9
S1134620B2405FF00044F440002502E052085FEA23
S11346303303C61A71EB020E24BF3046714664413F
S11346406D41F3D302000B002000290070BD0C461D
S1134650B1FBF2F102FB11452D0445EA1045B5FB0F
S1134660F2F402FB145580B240EA0545B5FBF2F0C2
S113467002FB105240EA044070BD2DE9FF470400DC
S11346800D0016001F00DDF83080DDF83490DDF8F1
S113469038A0CDF80CA000200290CDF80490CDF8FD
S11346A000803B0032002900200000F039F904B0FA
S11346B0BDE8F08770B50400DFF8FC010068050070
S11346C0002C06D0082C04D00C20FDF758FD002047
S11346D02EE0288B002804D00D20FDF750FD00208B
S11346E026E01C20FDF782FA0600002E01D10020EE
S11346F01EE011213000FDF7E5FAF460002116F107
S11347001000FEF705FB6D48B060FEF7D2F9D5F84E
S11347103401002804D1002115F59A70FEF7F8FA47
S1134720310015F59A70FEF7F9FAFEF7D3F9300067
S113473070BD2DE9F041040027005F4800680500C2
S1134740002F03D1FEF7C6F90C2035E0288B002892
S113475001D00D2030E0FEF7ACF9B8685749884223
S113476003D0FEF7B7F91E2026E00020B860388B8E
S113477000280CD017F11000FEF7F0FA0600300004
S1134780FDF751FEFEF7A6F9FEF793F9EFE7796816
S1134790080039688846C0F80080C8F80400B5F8F5
S11347A03C01401EA5F83C01FEF794F90FF0FCFE15
S11347B03800FDF761F90020BDE8F0812DE9F041F2
S11347C0040027003C4800680500002F01D10C209C
S11347D031E0288B002801D00D202CE0E869060088
S11347E0FEF767F9B8683549884203D0FEF772F9D5
S11347F01E2020E040F22920B06071680800316872
S11348008846C0F80080C8F8040017F11000B063AF
S1134810387B000705D5310017F1100000F000F9CE
S113482004E0310017F11000FEF778FA0FF0CAFE29
S1134830FEF750F90020BDE8F0812DE9F0410400B5
S11348400D00A0461C4800680600B8F1000F01D115
S11348501E202EE0FEF72DF9D8F8080017498842EB
S113486003D0FEF737F91E2023E0B8F8180000281B
S113487003D1FEF72FF90F201BE0002D0CD0B8F860
S11348801800002810D018F11000FEF767FA07008E
S11348903800FDF7C8FDF2E718F11000FEF75EFAE4
S11348A007003800FDF7BFFDFEF714F90FF07CFE9A
S11348B00020BDE8F08100003400FF1F716B7374A9
S11348C00100C9B2002908D002290CD008D3042958
S11348D00FD00BD305290FD011E00A4A100010E0C5
S11348E0094A10000DE0094A10000AE0084A1000C5
S11348F007E0084A100004E0074A100001E0002223
S11349001000704700A0064000B0064000C00640FA
S113491000D0064000A00E4000B00E4070470000DA
S11349202DE9F84F04000D0016000D9F5FF0000BF9
S11349303A48006880462800002802D03000002849
S113494001D10C2067E000208246BAF5806F0DD2B9
S11349501AF804003A2802D11BF1010B03E01AF8FB
S11349600400002802D01AF1010AEEE7BBF1010F9E
S113497002D1BAF1010F01D10C204CE018F51D70E1
S1134980FDF779FFD8F89002814618F52470814527
S113499012D04FF48062D9F80810200000F060F8BB
S11349A0002806D118F51D70FDF727FF4FF420608D
S11349B031E0D9F80090E8E72C20FDF7ABF9814607
S11349C0B9F1000F05D118F51D70FDF716FF04208D
S11349D021E00F214846FDF775F9C9F80840C9F8E8
S11349E00C50C9F810600098C9F814000A98C9F866
S11349F018000B98C9F81C000C98C9F82000C9F8D5
S1134A002470494618F52470FEF788F918F51D70CE
S1134A10FDF7F3FE0020BDE8F28F00BF3400FF1F56
S1134A202DE9F84304000D002700206806002089C2
S1134A30401C8146E869C0898046B9F10109B9F191
S1134A40000F06D0F069C089804502D3370036686C
S1134A50F3E72A0039002000FEF79AF9BDE8F18354
S1134A6001E0491C521E72B10B7890F800C09C45BD
S1134A7005D002D24FF0FF3070470120704710F884
S1134A80013B002BEDD100207047000088B00400EA
S1134A9000F052F90600002E05D03100984800F0CD
S1134AA08FFA0FF092FD974802907FF0FF00039079
S1134AB09548049005AA0299002000F0A6FA05A9D9
S1134AC0002000F0C9FE0600002E06D031008F48F9
S1134AD000F076FA0020FDF752FB02AA0121002023
S1134AE000F08EFE0600002E05D03100884800F04C
S1134AF067FA0FF06AFD00228649012000F082FF68
S1134B00050015F1010F04D1834800F059FA0FF0A4
S1134B105CFD0120ADF8000040F2E470ADF8020045
S1134B2000200190002D02D015F1010F02D141F2B5
S1134B30047614E0A8687949884202D041F20476E8
S1134B400DE0E8694068002802D141F2197606E0D8
S1134B50082200A92800EB695B6898470600002E2C
S1134B6004D06F4800F02CFA0FF02FFD002D02D076
S1134B7015F1010F02D141F2047613E0A8686749E8
S1134B80884202D041F204760CE0E869C06800284B
S1134B9002D141F2197605E000212800EA69D268C1
S1134BA090470600002E05D05E4800F009FA0FF089
S1134BB00CFD02E05C4800F003FA002D02D015F170
S1134BC0010F02D15FF0FF3714E0A868534988420F
S1134BD002D05FF0FF370DE0E8690069002802D1D8
S1134BE05FF0FF3706E0002200212800EB691B6913
S1134BF0984707004D48006804281AD217F1010F9E
S1134C0011D03A0006210020FDF7E2F88046B8F101
S1134C10000FD2D0464800F0D3F944480068401C45
S1134C2042490860C9E7434800F0CAF90FF0CDFCD7
S1134C30C3E70121380000F00DFFBEE7ADF5BC6D00
S1134C400400002C02D014F1010F02D15FF0FF36F2
S1134C5016E0A0683149884202D05FF0FF360FE0C9
S1134C60E069C069002802D15FF0FF3007E000234B
S1134C7040F2DC5200A92000E769FF69B84706004A
S1134C8016F1010F1ED1200000F005FF0500002DD4
S1134C900CD10121200000F0DDFE24480068401EF4
S1134CA0224908600020FDF7E4F90BE0012120000F
S1134CB000F0D0FE1D480068401E1C49086000201A
S1134CC0FDF7D7F9002C02D014F1010F02D15FF0E7
S1134CD0FF30B6E7A0681149884202D05FF0FF3088
S1134CE0AFE7E069806A002802D15FF0FF30A8E7EF
S1134CF00023320000A92000E769BF6AB847A0E793
S1134D00104801006300A8C00100A8C03C4801008D
S1134D1068480100AC4901009848010053435452CB
S1134D20B8480100D0480100EC4801003C00FF1FD6
S1134D3008490100284901007CB50120FBF77EFDEC
S1134D40002802D04FF49850A7E0302000F0EEFE87
S1134D500400002C03D141F2021006009CE041F251
S1134D6001012000FCF7AEFF21000120FBF777FDD5
S1134D70342000F0DBFE0500002D03D141F20210C7
S1134D80060080E041F20E012800FCF79BFF0120A1
S1134D9028600020A8600020E860012115F11800B7
S1134DA0FDF79AFC0120FBF749FD85603B48002193
S1134DB001603B48002101603A48002101605FF432
S1134DC0423020603848016889B2002000F07EFF3C
S1134DD02084364803689BB23548026892B235484D
S1134DE0016889B2102001F053FCE061E0690028F9
S1134DF00CD1002000900023002241F23511032041
S1134E0000F0DAF841F23510060032E0002001909B
S1134E100020009028480368284802682848016850
S1134E20B02000F095FEA062A06A00280CD10020FA
S1134E3000900023002241F22111012000F0BCF86F
S1134E4041F2211006000FE0002000901D4B1E4887
S1134E5002681E4801681E4801F070FD0600002E1D
S1134E6002D0A06A00F00FFF002E02D0E06901F02A
S1134E70D1FB002E07D00120FBF7E0FC002181606C
S1134E802800FCF7F9FD002E06D000210120FBF7D5
S1134E90E6FC2000FCF7F0FD300076BDC800FF1FE3
S1134EA0CC00FF1FD000FF1F0000FF1F2000FF1FCA
S1134EB01C00FF1F1800FF1F2C00FF1F2800FF1FEE
S1134EC02400FF1F899000001400FF1F1000FF1F23
S1134ED0A4490100F8B504000D000120FBF7AEFC65
S1134EE00600F06901F07AFD0700002F03D14FF4AA
S1134EF08950606015E0002060600020FDF714F91F
S1134F002060308C78800020B88010203880BD600C
S1134F10FC60380001F096F9002802D141F2321009
S1134F2060606068F2BD38B504000D000020606068
S1134F30002020602000A847606832BD38B5040016
S1134F400D00002D00D065602068002802D0206884
S1134F50FDF7A2F831BDF8B504000D000120FBF700
S1134F606DFC0600F06901F039FD0700002F01D146
S1134F7000200AE0308C78800020B880102038802F
S1134F80BD60FC60380001F053F9F2BD70B5040057
S1134F900D001600206800280DD125606660FDF71D
S1134FA0BDF8A060FDF7AEF8E060FCF796FE206166
S1134FB0FDF797F8606170BD10B4019C10BC704798
S1134FC00EB478B5040005A80500012001F0DCFE4C
S1134FD0009523005FF0FF32034901F050FF060003
S1134FE0300072BC5DF810FB814001000200107BB0
S1134FF00870507B4870907B8870D07BC870107CA0
S11350000871507C48710020704770B504000D0091
S1135010160032002900200002F092FD70BD00004D
S113502000221100012909DA8022DFF8D03702FBBF
S11350300132926D824201D0491CF3E7012901DB60
S11350405FF0FF310800704710B4012210F1010F26
S113505011D0002824D18023DFF8A04703FB0043AC
S11350609B6D002B1CD18023DFF8904703FB00438A
S11350709965020014E000231A00012A10DA802343
S1135080DFF8784703FB02439B6D002B06D1802396
S1135090DFF8684703FB0243996501E0521CECE723
S11350A0012A01DB5FF0FF32100010BC704710B41E
S11350B002000020002A0DD18023DFF8404703FBC3
S11350C0024393F86C30002B04D0DFF88837196062
S11350D00123180010BC704710B402000020002AFD
S11350E013D18023DFF8144703FB024393F86C3099
S11350F0002B0AD0DFF85C371B688B4205D1DFF840
S1135100543700241C600123180010BC704710B5EC
S113511004008020DFF8381700FB0410006F00281B
S113512043D08020DFF8281700FB041090F86C00AF
S1135130042808D08020DFF8181700FB041090F82A
S11351406C00062808D18020DFF8041700FB041047
S1135150806D02F027FD28E08020DFF8F41600FBC4
S1135160041090F86C00032811D08020DFF8E016BA
S113517000FB041090F86C00052808D08020DFF8AC
S1135180D01600FB041090F86C0007280DD1802085
S1135190DFF8BC1600FB0410016F8020DFF8B02696
S11351A000FB0420806D02F017FD8020DFF8A016BC
S11351B000FB0410806F002809D000220021802009
S11351C0DFF88C3600FB0430806F02F011FD802084
S11351D0DFF87C1600FB0410C06F002808D0802084
S11351E0DFF86C1600FB0410C16F2000FFF774FF9A
S11351F08020DFF85C1600FB04100021C1678020CA
S1135200DFF84C1600FB0410002101678020DFF852
S1135210401600FB0410002141678020DFF830169F
S113522000FB0410002181678020DFF8241600FBB6
S11352300410002141658020DFF8141600FB0410DF
S1135240012180F86C10002010BDF8B504000D0099
S11352502000FFF75CFF002D06D18020DFF8F01559
S113526000FB04106030050041F6045007000020E4
S11352700600FF2E6ED86A6829688020DFF8D035D2
S113528000FB0430806D02F0E1FC00284CD180204A
S1135290DFF8BC1500FB0410296801668020DFF8E4
S11352A0B01500FB0410696841668020DFF8A01582
S11352B000FB0410A96881668020DFF8941500FBC8
S11352C00410296801678020DFF8841500FB0410AE
S11352D069684167A86800280DD000220021A868E9
S11352E002F0E1FC002806D18020DFF8641500FB01
S11352F00410A96881678020DFF8541500FB0410AE
S1135300052180F85C108020DFF8441500FB0410B0
S11353108021DFF83C2501FB042191F85C1080F822
S11353206C100020070015E02868696808402968A7
S1135330491C6A689143084328606868C043002890
S113534001D1012000E000202968C0B20142EBD164
S1135350761C8EE73800F2BD0200012070472DE96B
S1135360F04704000D001600A1463000FFF758FE78
S11353708246BAF1000F40F09980002C00F085803D
S1135380002D00F0828099F8100099F8111009049A
S113539051EA006099F8121050EA012099F81310AC
S11353A008438021DFF8A82401FB0A2108670122B1
S11353B02900200002F090FC0700002F16D07F1C6B
S11353C0387880467F1CB8F1040F0FD33878797889
S11353D0090451EA0060B97850EA0120F9780843D9
S11353E08021DFF86C2401FB0A214867032229008D
S11353F0200002F071FC0700002F16D07F1C3878C3
S113540080467F1CB8F1040F0FD3387879780904EB
S113541051EA0060B97850EA0120F9780843802104
S1135420DFF82C2401FB0A218867062229002000CA
S113543002F052FC0700002F16D07F1C38788046FB
S11354407F1CB8F1040F0FD338787978090451EA36
S11354500060B97850EA0120F97808438021DFF828
S1135460F02301FB0A21C8678020DFF8E41300FB66
S11354700A1090F86C00012807D18020DFF8D013BF
S113548000FB0A10022180F86C108020DFF8C013A2
S113549000FB0A1090F86C00022807D18020DFF886
S11354A0B01300FB0A103830FDF7A7F9BDE8F08708
S11354B070B504000D0016003000FFF7B1FD0100C7
S11354C0002901D0002011E08020DFF8842300FBB4
S11354D00120406D8022DFF8783302FB0132431C47
S11354E05365062801D2012000E0002070BD0100B0
S11354F00120704738B504002000FFF791FD050036
S1135500002D07D18020DFF8481300FB0510383048
S1135510FDF773F9002032BDF0B5CDB004000D00E5
S11355204FF48070029003A8DFF8B8140CC90CC0C3
S113553008390838002600278020DFF8141300FB00
S113554004101C30FDF73BF9002802D141F601504C
S113555042E02000FFF7DBFDDFF88C040590DFF864
S11355608C040690DFF888040890DFF8880409901A
S1135570DFF884040B900CA801900520009003AB85
S1135580372202A901A802F0E0FB01980CA9431AF2
S11355900CAA05A98020DFF8B8C200FB04C0806D06
S11355A002F0E6FA0600002E15D0002D08D0802067
S11355B0DFF89C1200FB04103830FDF71EF90AE0F6
S11355C08020DFF88C1200FB04101C30FDF715F965
S11355D041F60450070038004DB0F0BD70B504002A
S11355E00D00002C02D041F6025024E08020DFF8A8
S11355F0601200FB041090F86C00002802D141F600
S1135600035018E08020DFF8481200FB0410FDF777
S1135610D6F8002802D141F601500CE02900200000
S1135620FFF77AFF06008020DFF8241200FB041045
S1135630FDF7E3F8300070BDF8B504000D00160066
S113564041F601578020DFF8081200FB04103830BF
S1135650FDF7B5F8002800F0A2808020DFF8F011F3
S113566000FB041090F86C00022872D1002007009F
S11356708020DFF8DC1100FB0410C06F002811D07B
S11356808020DFF8CC1100FB0410C16F2000FFF76D
S11356900EFD002806D18020DFF8B41100FB0410B1
S11356A00021C1678020DFF8A81100FB0410806F7F
S11356B0002812D0002200218020DFF8943100FB62
S11356C00430806F02F0EFFA002806D08020DFF863
S11356D0801100FB041000218167002E06D1802078
S11356E0DFF86C1100FB0410603006008020DFF846
S11356F0601100FB0410316801668020DFF850114E
S113570000FB0410716841668020DFF8441100FB3F
S11357100410B1688166002D07D080204C4900FB3D
S11357200410062180F85C1006E08020484900FB44
S11357300410042180F85C108020454900FB04100B
S11357408021434A01FB042191F85C1080F86C101D
S11357501EE041F604500700002D19D0310020004E
S1135760FFF773FD0700002F12D18020384900FB9A
S11357700410062180F85C108020354900FB0410D9
S11357808021334A01FB042191F85C1080F86C10ED
S113579080202F4900FB04101C30FDF72EF8380040
S11357A0F2BDF8B504000D001600002C02D041F63D
S11357B0025021E08020264900FB041090F86C0080
S11357C0002802D141F6035016E08020204900FB56
S11357D00410FCF7F4FF002801D102200CE0320091
S11357E029002000FFF728FF07008020184900FB4C
S11357F00410FDF702F83800F2BD00004000FF1F5E
S1135800F8B504000D001600002741F60150874248
S113581002D1C820FDF782FB29002000FFF7DEFE3D
S1135820070041F601508742EFD0002F01D0380025
S11358300DE0C820FDF772FB320029002000FFF7BD
S1135840B0FF070041F601508742F2D03800F2BDA4
S11358504000FF1FE400FF1F7CB504000D0000267C
S113586000AB00222900200002F00AFB0600002EF3
S11358701AD101AA61480168009802F0CFF9060024
S1135880002E0DD10199200000F010F80600002E22
S11358900AD0019802F096F9009802F007FB03E0A1
S11358A0009802F003FBFFE7300076BD70B50400FA
S11358B00D00002D02D141F6035092E02900200092
S11358C0FFF7C2FB060016F1010F02D141F60350A7
S11358D087E080204A4900FB061090F86C000028FD
S11358E002D041F601507CE001218020444A00FBB3
S11358F00620FCF7E7FE002802D041F6035070E0D2
S1135900012180203E4A00FB06201C30FCF7DAFE11
S1135910002808D080203A4900FB0610FCF748FF15
S113592041F603505DE000218020354A00FB06204B
S11359303830FCF7C7FE00280FD08020304900FB28
S11359400610FCF735FF80202D4900FB06101C30A3
S1135950FCF72EFF41F6035043E08020284900FB6A
S11359600610002141658020254900FB061085654D
S11359708020234900FB0610002101668020204975
S113598000FB06100021416680201D4900FB061023
S11359900021816680201A4900FB0610002101675E
S11359A08020174900FB061000214167802014491C
S11359B000FB0610002181678020114900FB0610BE
S11359C00021C16780200E4900FB0610012180F8E8
S11359D05C1080200A4900FB0610012180F86C103D
S11359E0002070BDE8490100595300005F530000D6
S11359F0EF540000F5540000B1540000A44A010023
S1135A004000FF1F2DE9F04104000D0016000020A6
S1135A10FCF78AFB0100280002F06EFA0700002F51
S1135A2002D15FF0FF3013E0F869006800280DD060
S1135A303800F969096888478046B8F1000F05D035
S1135A40380002F0E7FA5FF0FF3001E07C833800B1
S1135A50BDE8F081F8B504000D0026000020070021
S1135A60002C06D014F1010F03D0B0681449884209
S1135A7002D041F204700DE0F069806B002805D07B
S1135A8029002000F269926B90470700300002F071
S1135A90C1FA3800F2BD01000A00002902D011F158
S1135AA0010F02D141F2047008E09068044B98425F
S1135AB002D041F2047001E0D2F88C00704700007B
S1135AC053435452C0F88C107047000010B50400C2
S1135AD01E480068002805D021001C480068FBF718
S1135AE059FF02E02000FBF732FF10BD10B504009F
S1135AF016480068002805D0210014480068FBF708
S1135B0069FF02E02000FBF755FF10BD10B504004B
S1135B100E480068002805D021000C480068FCF7F6
S1135B2055F802E02000FCF761F810BD10B5040040
S1135B3006480068002805D0210004480068FCF7E6
S1135B40D9F802E02000FCF7E5F810BDDC00FF1FE7
S1135B502DE9F44F04000D001E000A9FDDF82C808F
S1135B601420FFF7D3FF8146B9F1000F01D10020C3
S1135B7043E041F20F014846FCF7A4F83300009AD1
S1135B802900201D02F094FBC9F80000D9F8000098
S1135B90002804D14846FBF76FFF00202DE0C9F828
S1135BA004400020C9F80800C9F80C70C9F8108036
S1135BB000208346AB451FD2D9F8000002F073FCE5
S1135BC08246BAF1000F17D0D9F80C0000280AD089
S1135BD01AF10400D9F80C108847002803D0504665
S1135BE002F026FC08E0CAF800901AF1040000F064
S1135BF03CF81BF1010BDDE74846BDE8F28F38B5F0
S1135C000400FCF756FFA068002816D1FCF762FFD9
S1135C10206802F048FC0500002D01D1002014E0AA
S1135C20E06800280FD0281DE168884700280AD0C2
S1135C30280002F0FDFB002007E0A06805002868AA
S1135C40A060FCF747FF2C60281D32BD38B5040066
S1135C502000FFF7D4FF0500002D04D06268002166
S1135C602800FBF7E5FC280032BD70B504002500D0
S1135C702D1F28680600FCF71CFFB0682860B5607B
S1135C80FCF728FF70BD38B50400206900280AD04D
S1135C90A068002812D0A06805002868A060281D0C
S1135CA021698847F4E7A068002807D0A0680500A8
S1135CB02868A060280002F0BBFBF4E7206802F02B
S1135CC041FB2000FBF7D8FE31BD00000200DFF8E5
S1135CD05C050068030092B2B2F5807F01D3002016
S1135CE009E092B2002A02D1D3F8A8010200C8B296
S1135CF050EA022080B2704770B582B004000D00F3
S1135D000020009000230122290089B2200080B2E3
S1135D1000F004F80600300080B276BD2DE9FA4F99
S1135D2083B004001500DFF8040500680600D6F807
S1135D301002804600208246B8F1000F0ED100F018
S1135D40D3FE0090D6F810028046B8F1000F05D1BA
S1135D500098FCF714FA504680B29AE0FCF7A9FECA
S1135D60A4B2002C24D1D8F8180010F58070814614
S1135D7008208346D8F8140058450DD3B9F8140008
S1135D80594689B2884202D05846040004E019F109
S1135D9020091BF1010BEDE7A4B2002C16D1FCF78E
S1135DA099FE40F21170FCF7EAF9504680B270E0B7
S1135DB0A4B2D8F81400844208D3FCF78BFE40F256
S1135DC01B70FCF7DCF9504680B262E0A4B2012CEF
S1135DD008D2FCF77FFE4FF4E260FCF7D0F950469E
S1135DE080B256E0A4B2D8F8180010EB44108146F3
S1135DF0B9F81400A4B2A04208D1FCF76BFE40F23B
S1135E001170FCF7BCF9504680B242E0A9F8144086
S1135E100020C9F800000020C9F804000020C9F8D7
S1135E2010000020A9F80800A9F81650BDF80C00CD
S1135E30A9F80A000498C9F818000E98C9F81C00BB
S1135E40012D18D1F0690700C9F80C70D7F890003B
S1135E50002807D1C7F89090C7F894900020C7F89D
S1135E6098000BE0D7F8940001900198C0F81090C6
S1135E70C7F8949002E00020C9F80C00FCF72AFE51
S1135E80D6F8A801A4B2E1B251EA002082465046F5
S1135E9080B205B0BDE8F08F7FB504000D00002D81
S1135EA00CD001A92800FDF749FB00AB022201A98F
S1135EB0200080B200F00DF8060007E000AB0022DD
S1135EC001A9200080B200F004F80600300004B0FC
S1135ED070BD2DE9F24F84B0040015001E000020AF
S1135EE03060D248006801900198008B002806D0E9
S1135EF00D20FCF744F90D203060002092E1019858
S1135F00D0F8100202900298002806D11820FCF75D
S1135F1036F918203060002084E100208246019880
S1135F20C0690700A4B2002C6AD1D7F890000028F9
S1135F3008D140F21370FCF722F940F2137030607C
S1135F4000206FE1FCF7B5FDD7F8980000281BD1BD
S1135F500720B860A4B2BC630020C7F89C00002DE1
S1135F6002D10EF032FB08E0022D03D10498FCF7B5
S1135F70F4FF02E00498FDF758F8D7F89C00824635
S1135F800020C7F89C004AE1D7F890008146B9F197
S1135F90000F00F04481B9F8080000282DD0B9F8AA
S1135FA00800401EA9F80800D9F800008046D8F877
S1135FB00000C9F80000D9F80000002803D100202F
S1135FC0C9F8040003E0D9F8000000214160D9F8C1
S1135FD00C00002808D0D9F80C00D0F89800401E16
S1135FE0D9F80C10C1F8980018F11400824600206A
S1135FF088F80B00C8F8107011E1D9F81090C6E7C2
S1136000E0B2ADF80000A4B2200A80B20199D1F840
S1136010A811884203D1BDF80000012808D24FF42A
S1136020E260FCF7ACF84FF4E26030605046F9E00F
S1136030BDF800000299896911EB40108146B9F856
S11360401400BDF80010884208D040F21370FCF729
S113605096F840F2137030605046E3E0D9F80C0033
S113606000280CD0D9F80C00B84208D040F21270C5
