S01200007477726B36306E3531322E73726563DE
S1130000F0FE002021040000C7520000C752000087
S1130010C7520000C7520000C75200000000000091
S1130020000000000000000000000000EF5100008C
S1130030C75200000000000065520000C7520000D3
S1130040C7520000C7520000C7520000C752000048
S1130050C7520000C7520000C7520000C752000038
S1130060C7520000C7520000C7520000C752000028
S1130070C7520000C7520000C7520000C752000018
S1130400FFFFFFFFFFFFFFFFFFFFFFFFFEFFFFFFF9
S107041000000000E4
S11304200E480F490F4A4FF0080333B140F8042B2C
S113043041F8042BA3F10103F7E7EFF3088080F3FD
S11304400988EFF3148040F0020080F31488BFF3AE
S11304506F8F00F009B880F30888704780E100E0EE
S113046080E200E0FFFFFFFFC046C046C046C04632
S113047000F000F800F009F8002801D000F00AF8B4
S1130480002000F01BF800F021F880B500F0B6F869
S1130490012002BD10B5074979441831064C7C444B
S11304A0163404E0081D0A68511888470146A14221
S11304B0F8D110BD284F00005C4F000080B5024801
S11304C000F0D0F8002002BD7856000000F034BAE5
S11304D059484CF22051C1814DF62811C18101883F
S11304E04FF6FE7211400180704710B45349544ACC
S11304F011F582531B6853F0010311F582542360F4
S113050041F204035B5853F4407341F20404635012
S11305104C4B18004FF4A06383624FF4A063C36292
S11305204FF4A06303644FF4A06343644FF4A063E7
S113053083644FF4A063C3644FF4A06303654FF472
S1130540A06343654FF4A06383654FF4A063C36560
S11305503D4B18004FF4A06303604FF4A063436065
S11305604FF4A06383604FF4A063C3604FF4A063AF
S113057003614FF4A06343614FF4A06383614FF4BC
S1130580A063C3614FF4A06303624FF4A0634362AA
S11305904FF4A06383624FF4A063C3624FF4A0637B
S11305A003634FF4A06343634FF4A06383634FF486
S11305B0A063C363254B18004FF4A06303604FF49A
S11305C0A06343604FF4A06383604FF4A063C360EF
S11305D04FF4A06303614FF4A06343614FF4A0633D
S11305E083615FF08053136610BC70471449086040
S11305F04FF416628A60164A4A60704780B51548FF
S11306000068C0F3033000280BD11348006830F0B1
S11306101900114908601148006830F019000F49A9
S1130620086000F0EFFD00F0EDFEFFF75EFF0C4800
S1130630FFF7DCFF01BD000000200540007004400E
S113064000C0004000A0044000B0044000C00440CA
S1130650010007002480044004F0014008F0014038
S1130660000000702DE9F04F83B08246DAF80400F0
S11306700F30000900010400DFF8A0020460DFF875
S1130680A0022060DFF89C0220604FF45172002128
S1130690200000F0DFFE14F5D4705146302200F043
S11306A0FBFEC4F8AC41D4F8B00100090001C4F861
S11306B0B00100F0C3F801F07BF90700002F02D06D
S11306C0380000F0AFF8D4F8D001002806D0D4F8F0
S11306D0D0018046D4F8B401070018E0D4F8B4017E
S11306E0D82802D2D820C4F8B401D4F8B401103008
S11306F00700380001F04CF98046B8F1000F02D130
S1130700042000F08FF80221404601F0ADF93900D1
S1130710404601F04AFC17EB0800401E00090001A6
S1130720E063D8200700380001F032F98146B9F1BE
S1130730000F02D1042000F075F80121484601F0B1
S113074093F917EB0900401E00090001834614F1D8
S113075050000600BBF164007061C6F810B019F1D6
S11307600F0000090001B0617069DFF8BC11086076
S113077001F006FD0700002F02D0380000F052F807
S1130780012114F5EC7001F069FD012114F5A67046
S113079001F064FD01F00DFE0700002F02D03800C7
S11307A000F040F8D4E9BF010A3051F10001C4E976
S11307B0BF01002001900020009001230022E06985
S11307C0C16814F5367001F01BFB0600002E02D13F
S11307D0042000F027F8300001F0F1FBD4F8B80150
S11307E005002868002818D0287DC00713D50020EC
S11307F00190002000900023AA69E069C1682800E4
S113080001F0FEFA0600002E02D1042000F00AF8DE
S1130810300001F0D4FB2035E3E704F0D1FC0020E4
S1130820BDE8FE8F040001F082FE3C48006805002C
S1130830FEE73A4A12681100088170472DE9F04139
S113084036480068040043F6F83020824FF4D5702F
S1130850608208202060012060600220E0810F2077
S113086060810F20A081D4F8B801002802D10120B2
S1130870FFF7D8FF0120C4F8F8020120C4F81C01D6
S113088001F04EFC14F150000600E661E08A60833A
S1130890E08AB084D4F8A801000440F47F4050F00A
S11308A0FF00F0600320B060002114F5A07001F097
S11308B009FF002114F5C07001F004FF00200700B7
S11308C0D4F8B801050000208046286800280CD020
S11308D04FF6FF70804508D2E868874201D2E86885
S11308E0070018F101082035EFE7C4F8187114F572
S11308F0367005000D482860E020A8600C48286187
S11309000C486860781CE860002114F5907001F0D0
S1130910D9FE0120C4F82C01BDE8F0810000FF1FBE
S1130920AC550000B05500003400FF1F03000080E8
S11309309C5500002D5100000746384601F024FF65
S1130940FBE750F8041B61B150F8042BD30744BFF4
S1130950A9F101039A18002342F8043B091FFAD1B4
S1130960EFE7704770470100DFF8D00700780128EF
S113097017D1C9B2002908D1DFF8C4071E220270BA
S1130980DFF8C0070A22027007E0DFF8B4071F226D
S11309900270DFF8B00780220270C9B2002907D1C3
S11309A001E0012015E0DFF8A0078022027003E0D7
S11309B0DFF89407C0220270DFF88C070078000685
S11309C0FAD4DFF884070078800601D4002000E020
S11309D01B207047C0B2002824D1DFF87017002212
S11309E00A70DFF86C17096849084900DFF86027C6
S11309F01160DFF8601728220A70DFF85C172122E3
S1130A000A70DFF8581738220A70DFF85417582292
S1130A100A70DFF850170978C9B211F00C010C29DB
S1130A20F7D1FFE77047C0B2002802D001282AD0CE
S1130A3053E0DFF8181700220A70DFF8141709686A
S1130A4049084900DFF808271160DFF80817A822D1
S1130A500A70DFF8041721220A70DFF80017382221
S1130A600A70DFF8FC1658220A70DFF8F8160978C5
S1130A70C9B211F00C010829F7D1DFF8E81609789A
S1130A804906FAD529E0DFF8C41600220A70DFF817
S1130A90C016096849084900DFF8B4261160DFF878
S1130AA0B416AB220A70DFF8B01621220A70DFF800
S1130AB0AC160D220A70DFF8A81640220A70DFF87F
S1130AC0A4160978C9B211F00C010829F7D1DFF88E
S1130AD0941609784906FAD5FFE77047C0B2002892
S1130AE002D0012832D063E0DFF8601600220A70D9
S1130AF0DFF85C16096849084900DFF854261160DC
S1130B00DFF8541621220A70DFF84816A8220A706A
S1130B10DFF85416097811F01F01DFF84C26117024
S1130B20DFF8381638220A70DFF8341618220A70F3
S1130B30DFF830160978C906FAD4DFF828160978E0
S1130B40C9B211F00C010829F7D131E0DFF8FC1526
S1130B5000220A70DFF8F815096849084900DFF82F
S1130B60F0251160DFF8F01521220A70DFF8E41592
S1130B70AB220A70DFF8F015097811F01F01DFF8D5
S1130B80E8251170DFF8D41500220A70DFF8D015BB
S1130B9000220A70DFF8CC150978C906FAD4DFF808
S1130BA0C4150978C9B211F00C010829F7D1FFE77F
S1130BB07047C0B2012816D1DFF8981547220A7091
S1130BC0DFF8941523220A70DFF8801500220A70DA
S1130BD0DFF890150978C906FAD5DFF88815097881
S1130BE0C907FAD5FFE77047C0B2002802D0012830
S1130BF032D063E0DFF85C1544220A70DFF8581540
S1130C0021220A70DFF86015097811F01F01DFF85E
S1130C1058251170DFF8341500220A70DFF83015FA
S1130C20096849084900DFF828251160DFF82C1508
S1130C3038220A70DFF8281518220A70DFF8241504
S1130C400978C906FAD5DFF81C150978C9B211F07C
S1130C500C010429F7D131E0DFF8F81447220A70B7
S1130C60DFF8F41421220A70DFF8FC14097811F07B
S1130C701F01DFF8F4241170DFF8D01400220A7089
S1130C80DFF8CC14096849084900DFF8C42411606E
S1130C90DFF8C81400220A70DFF8C41400220A70B6
S1130CA0DFF8C0140978C906FAD5DFF8B814097852
S1130CB0C9B211F00C010429F7D1FFE7704770B5F0
S1130CC004000025E4B2002C02D0012C03D005E07E
S1130CD00420050002E001200500FFE700F031F8E0
S1130CE00600EDB2F6B20520DFF8801400FB061012
S1130CF02E5CF6B2002E06D0022E0ED008D3042E9F
S1130D0015D00FD318E02000C0B2FFF76DFF13E039
S1130D102000C0B2FFF74DFF0EE02000C0B2FFF785
S1130D20DDFE09E02000C0B2FFF77DFE04E02000F4
S1130D30C0B2FFF74FFEFFE7EDB2F6B2B542D0D135
S1130D4070BDDFF810040078C0B210F0C0000028B5
S1130D5004D0402804D080280BD013E0042012E0F3
S1130D60DFF8F4030078800701D400200BE00120B1
S1130D7009E0DFF8EC030078400601D4022002E029
S1130D80032000E00020704710B50400E4B2032CF7
S1130D9001D30220B6E0E4B2002C03D0022C7BD0B5
S1130DA03DD3A7E0DFF894030078022817D1DFF8D9
S1130DB0B003007810F0DF00DFF8A4130870DFF848
S1130DC0B003DFF8B01301600020FFF778FFDFF80D
S1130DD09003007850F02000DFF884130870DFF8E7
S1130DE09003DFF894130160DFF89003006830F09B
S1130DF00D0050F00200DFF884130860DFF85003A0
S1130E00006850F48030DFF848130860DFF870039E
S1130E10006850F40020DFF8681308606AE0DFF827
S1130E201C030078022817D1DFF83403007810F08F
S1130E30DF00DFF82C130870DFF83403DFF8341315
S1130E4001600020FFF73BFFDFF81403007850F047
S1130E502000DFF80C130870DFF81403DFF8241304
S1130E600160DFF81803006830F00D0050F0020054
S1130E70DFF808130860DFF8D802006850F4803007
S1130E80DFF8CC120860DFF8F802006850F40020A4
S1130E90DFF8EC1208602DE0DFF8C402007810F0EF
S1130EA0DF00DFF8BC120870DFF8C402DFF8C412F8
S1130EB001600120FFF703FFDFF8B4025FF4403163
S1130EC00160DFF8B802006800090001DFF8AC1225
S1130ED00860DFF87C02006850F48030DFF870129C
S1130EE00860DFF89C02006850F40020DFF89012DC
S1130EF00860FFE72000C0B2FFF734FDDFF83C02D2
S1130F000470002010BDDFF8340200787047000040
S1130F1080B5FFF7DDFA9C48006850F400709A49E8
S1130F20086040F2FF300078C0B2FF2810D0974824
S1130F3040F2FF31097801708B48007810F0E0002E
S1130F4040F2FE31097811F01F0108438649087008
S1130F508748894901608948006830F00D0050F0E5
S1130F600200864908607A48006850F48030784965
S1130F7008608348006850F4002081490860844870
S1130F800068844908408249086070480021017063
S1130F906F480068400840006D4908606E48212190
S1130FA001706C48A82101706F48007810F01F0090
S1130FB06D49087069483821017069481821017029
S1130FC068480078C006FBD466480078C0B210F0C8
S1130FD00C000828F8D15D48002101705C480068C5
S1130FE0400840005A4908605A48A82101705A48EC
S1130FF02121017059483821017059485821017044
S113100058480078C0B210F00C000828F8D15548B0
S113101000784006FBD54D48002101704C4800681B
S1131020400840004A4908604A48282101704A485B
S11310302121017049483821017049485821017023
S113104048480078C0B210F00C000C28F8D144488D
S1131050007850F020004249087001BD4E4800213C
S113106001604E48007810F0DC0050F050004B490D
S113107008704B48007810F0DC0050F040004849FC
S113108008704848007810F0EC004649087046485B
S1131090006850F0805044490860444800210170C1
S11310A04348002101704348002101704248002157
S11310B001704248007810F0600050F020003F4971
S11310C008703F48007810F0FC0050F084003C4960
S11310D008703C4830210170704770B50400002648
S11310E02000C0B2FFF750FE0600B6B2002E02D0B8
S11310F0300080B20BE000212000C0B201F052FBAE
S113110005004FF47A71280001F030F9002070BD19
S113111080B5FFF7F8FE02BD0200D2B2032A0BD25B
S1131120C9B21E2908D2C9B2D2B22820264B00FB6C
S1131130023050F8210000E0002070473800FF1F03
S11311400A4006400B400640084006400050064056
S1131150048004400040064001400640044006402C
S1131160054006400640064003400640BC550000CA
S1131170448004400000330100001301488004400F
S11311800070044000007777388004400240064035
S113119048900440FFF8FFFE1480044000D007404C
S11311A001D0074002D007403480044000C007400B
S11311B001C0074002C0074003C0074004C0074005
S11311C008C0074002E00740D855000010B50024CD
S11311D00020FFF7C8FB0400A4B2002C02D02000BA
S11311E080B20AE00120FFF7BEFB0400A4B2002C89
S11311F002D0200080B200E0002010BD80B5FFF7CF
S11312002DFF01BD80B5FFF783FE01BD30B40200A0
S1131210DFF82C32D2B2002A0AD0022A54D02DD3BD
S1131220042A00F09D8075D3052A00F0BF80E3E016
S1131230DFF810020400C80705D54FF45070A06110
S11312404FF45070E061880703D50020A0610020AE
S1131250E061480707D541F23400C05850F480607B
S113126041F23405E850080707D541F23400C0586C
S113127030F4806041F23405E850C0E0DFF8C80182
S11312800400C80705D54FF45070E0604FF4507067
S11312902061880703D50020E06000202061480712
S11312A007D541F23400C05850F4006041F23405CF
S11312B0E850080707D541F23400C05830F4006004
S11312C041F23405E8509AE0DFF878010400C807D9
S11312D005D54FF45070A0604FF45070E06088075B
S11312E003D50020A0600020E060480707D541F244
S11312F03400C05850F4805041F23405E8500807D7
S113130007D541F23400C05830F4805041F234051E
S1131310E85074E0DFF830010400C80705D54FF445
S1131320507020644FF450706064880703D5002027
S1131330206400206064480707D541F23400C05897
S113134050F4005041F23405E850080707D541F243
S11313503400C05830F4005041F23405E8504EE0F7
S1131360DFF8E8000400C80705D54FF45070606644
S11313704FF450702066880703D500206066002073
S11313802066480707D541F22800C05850F4806011
S113139041F22805E850080707D541F22800C05853
S11313A030F4806041F22805E85028E0DFF89C0022
S11313B00400C80705D54FF4507020624FF45070F4
S11313C06062880703D5002020620020606248071D
S11313D007D541F22800C05850F4006041F22805B6
S11313E0E850080707D541F22800C05830F40060DF
S11313F041F22805E85002E05FF0FF3000E00020F1
S113140030BC70471248006850F4785010490860A6
S11314100020704701000800032802D0042806D0E9
S11314200BE0094802004FF44070906405E007485F
S113143002004FF44070D066FFE7002070470000C0
S11314400070044000C0044000B0044000D00440D8
S11314503880044070B504000D0016002A003100E5
S1131460200001F0A9F9200070BD10B450F8041B4D
S113147081B102681218001D50F8043BDC0744BF18
S1131480A9F10104E31852F8044B43F8044B091F73
S1131490F9D1EBE710BC7047103A07D330B4B1E888
S11314A03810103AA0E83810F9D230BC530724BFE2
S11314B0B1E80810A0E8081044BF51F8043B40F814
S11314C0043BD20724BF31F8022B20F8022B44BF7F
S11314D00B7803707047083A07D3B1E80810083A4C
S11314E040F8043B40F804CBF7D25307E4E700008C
S11314F02DE9F74F04001D005FF00008DDF808B087
S1131500DBF80800DFF8A415884204D0382000F086
S113151048FC002078E00C34102C01D21020040088
S113152014F10F000409240101F001F8DBF81400A0
S11315300600002E62D0CBF8186001F009F800F024
S1131540F6FFDBF818000600002E57D0DBF8140075
S1131550864200D1B04630688146A1454BD3B9EBF1
S113156004008246BAF1100F0AD3A0190700C7F885
S113157000A0C7F804B0B068B860B760346002E097
S11315804C46B0680700DBF81400864202D1CBF861
S1131590147001E0C8F80870DBF81400CBF81800E8
S11315A0DBF81400CBF81C00DBF81400CBF82000A7
S11315B0DBF80C00CBF82400DBF80C00CBF8280097
S11315C00198C068308100207081C6F804B0DBF84F
S11315D02C00B04201D2CBF82C6000F0B9FF002DF2
S11315E006D0B4F10C02002116F10C00FFF732FF13
S11315F016F10C0008E0B046B6689AE700F0A8FFC0
S1131600042000F0CEFB0020BDE8FE8F2DE9FC4F46
S113161083B083460C005FF00008DDF810A0DAF810
S11316200800DFF88814884204D0382000F0B9FBA1
S113163000208BE01BF10C0BBBF1100F01D210202A
S113164083461BF10F005FEA101B5FEA0B1B00F0DF
S11316506EFFDAF814000500002D71D0CAF8185096
S113166000F076FF00F063FFDAF818000500002DA3
S113167066D0DAF81400854200D1A846286881466D
S1131680B4F10C0015F11001884256D319EB050092
S11316901BEB04010C3988424FD3B4F10C00060053
S11316A0701B0190B9EB0B000199401A009001984E
S11316B02860009810280AD31BEB06000700009846
S11316C03860C7F804A0A868B860AF6004E0009868
S11316D010EB0B0BA8680700C6F800B0B760DAF887
S11316E01400CAF81800DAF81400CAF81C00DAF872
S11316F01400CAF82000DAF80C00CAF82400DAF85A
S11317000C00CAF828000398C0683081002070815A
S1131710C6F804A0DAF82C00A84201D2CAF82C506A
S113172000F016FF0E98002805D0BBF10C02002132
S11317302000FFF78FFE200008E0A846AD688BE785
S113174000F006FF042000F02CFB002005B0BDE8EB
S1131750F08F70B50400DFF858030068050000231B
S1131760D5F81423E9692000FFF7C2FE0600300013
S113177070BDF8B504000D00DFF8340300680600FE
S113178000200090D6F81433F26929002000FFF7F6
S11317903DFF07003800F2BD70B50400DFF8100308
S11317A0006805000123D5F81423E9692000FFF738
S11317B09FFE0600300070BD2DE9F84304000D00C3
S11317C01600DFF8EC0200680700701981465FEA32
S11317D019100001206115F10F0000090001804675
S11317E0C4F80C80C4F82C802069B0EB0800C8F859
S11317F000000020C8F80800C8F80440C4F81480A9
S1131800C4F81880C4F81C80C4F8208000F08FFE4F
S1131810D7F80803002804D1002117F5427000F01E
S113182051FF210017F5427000F052FF00F090FEC6
S1131830DFF87802A0602000BDE8F2832DE9F843C8
S11318400400DFF86C0200680500002C04D10120BC
S113185000F0A7FA012099E0B4F10C0006007068CA
S11318608046D8F80800DFF84412884204D03820B3
S113187000F097FA382089E03089E969C96889B2AB
S1131880884209D030894FF6FF71884204D0032082
S113189000F087FA032079E000F049FED8F814003C
S11318A00700D8F81400002803D0D8F814008642A2
S11318B018D2D8F81400070030688019B8420BD148
S11318C03068396808183060B868B0600C220021AC
S11318D03800FFF7BFFD00E0B760C8F814600020CF
S11318E0814613E0B868864202D3B868002802D162
S11318F0012081460AE0BF68C8F81C7000F028FE89
S113190000F015FED8F81C000700CAE7B9F1000F73
S113191025D030688019B96888420DD13068B9681B
S1131920096808183060B8688068B0600C2200212B
S1131930B868FFF78FFD01E0B868B0603868C01977
S1131940B0420BD13868316808183860B068B860A4
S11319500C2200213000FFF77DFD00E0BE60D8F8C6
S11319601400C8F81800D8F81400C8F81C00D8F8F7
S11319701400C8F82000D8F80C00C8F82400D8F8DF
S11319800C00C8F8280000F0E3FD0020BDE8F28355
S113199070B504004648006805000023D5F81423F8
S11319A015F150012000FFF7A3FD0600300070BDC3
S11319B070B53F480068040014F551700600350006
S11319C0C4F814533036D4F8B001821B3100280017
S11319D0FFF7F2FE002070BD2DE9F84304000D006E
S11319E0A846334800680600B8F1000F05D1D6F8C0
S11319F014030700F868804609E0B5F10C0080463E
S1131A00D8F804000700D8F8000010EB080800F02C
S1131A108EFD786981463869804519D2B8F8080086
S1131A20E16889B288420ED1B9F1000F04D0C145F2
S1131A3002D2D9F80890F7E7C14504D000F088FD38
S1131A4018F10C000EE0D8F8000010EB0808E2E7EB
S1131A503F68F8688046D6F814038742D9D100F06D
S1131A6077FD0020BDE8F2830200002A05D0B2F120
S1131A700C0003005981012000E000207047B0F100
S1131A800C031A00CB681381704770B50400084832
S1131A90006805000123D5F8142315F15001200036
S1131AA0FFF726FD0600300070BD000070656D6C08
S1131AB00000FF1F2DE9F34F83B0DFF840030068F7
S1131AC08246039800280CD00398000CADF802005D
S1131AD0BDF80200DAF8A81189B2884201D01220B8
S1131AE02AE1039800F032F98346BBF1000F03D0DA
S1131AF01AF15000834501D112201DE11AF5A67098
S1131B0000F0F4FB00F013FDDBF80800092807D10E
S1131B1000F01EFD1AF5A67000F0AAFB00200BE1F0
S1131B20DBF8080002280CD1DAF81C0083453DD00C
S1131B30DBF804100800DBF800100C00046060609F
S1131B4034E0DBF80800C0051DD5DBF80800C0054B
S1131B502CD5DBF804100800DBF800100D0005603C
S1131B606860BAF88801401EAAF88801DBF808000A
S1131B7030F48070CBF80800DBF8080050F0030064
S1131B80CBF8080012E0DBF8080080050ED5DBF87E
S1131B9004100800DBF800100E0006607060DBF82B
S1131BA038000089401EDBF838100881DBF8080093
S1131BB040050ED5DBF840100800DBF83C100F00A0
S1131BC007607860DBF838000089401EDBF83810C5
S1131BD008810920CBF8080000F0BAFC00200400BA
S1131BE0102C0DD21AEB8400D0F83402002805D052
S1131BF058461AEB8401D1F834128847641CEFE785
S1131C00DBF80C00ADF80000DAF81C0001909BF83A
S1131C10280080061ED400215846FFF7DDFE04008C
S1131C20002C17D021005846FFF7D6FE0500019876
S1131C30584504D01AF150012000FFF720FF5C45FD
S1131C4006D0DBF88C00844202D02000FFF7F6FDBA
S1131C502C00E5E75FF00040CBF80C00BAF828014F
S1131C60012806D10120CAF82C010020CAF830014D
S1131C700EE0BDF80000DAF82C11884208D2BDF855
S1131C800000CAF82C01DBF870006C38CAF8300187
S1131C90DBF870100800DBF86C108846C0F8008090
S1131CA0C8F80400BAF82801401EAAF828011AF559
S1131CB0A67000F0DDFA019883452AD100F037FCC4
S1131CC0DBF804100800DBF800108946C0F8009027
S1131CD0C9F80400584600F0A2FD9BF828008006CD
S1131CE015D4DBF88C00002809D01AF15001DBF878
S1131CF08C00FFF7C4FEDBF88C00FFF79FFD1AF1A0
S1131D0050015846FFF7BBFE5846FFF797FD03F016
S1131D1059FA584600F083FD9BF8280080060AD43F
S1131D20DBF88C00002803D0DBF88C00FFF786FD7D
S1131D305846FFF783FD002005B0BDE8F08F10B5CD
S1131D40040000212000FFF7B5FE10BDF8B5040023
S1131D502A4800680700002C01D1F86920E0F86DDA
S1131D60844202D117F150001AE000F0E0FBD7F8EA
S1131D7020016C380500B7F8280106003000461E23
S1131D8000280AD0E868A04203D100F0E1FB280053
S1131D9006E0E86EB0F16C05F0E700F0D9FB002036
S1131DA0F2BD0100154B1B681A00138B002B03D0E6
S1131DB0536BDB68180002E0D369DB6D180000295F
S1131DC001D0002807D1138B002B02D0536BD960AC
S1131DD001E0D369D965704738B5CA480068040082
S1131DE0E0690500D5F88400002802D0D5F8840005
S1131DF080470020FFF7A3FF31BD00000000FF1F54
S1131E002DE9F64F85B004009B46DDF840907B48F1
S1131E1000688046D8F81801E168884208D218F5AD
S1131E203670844204D00E20FFF7BBFF0020B9E0D7
S1131E30B9F1000F17D011980700B7F5CA7F04D87D
S1131E400220FFF7AEFF0020ACE000234A4602A9BF
S1131E50380000F0D5F8050002983F1ABBF1000FD6
S1131E6018D0203F16E0A0680700D92F01D2D8204F
S1131E70070017F10F0007093F01BBF1000F02D063
S1131E8017F1200000E038000023002202A900F02E
S1131E90B7F80500002D04D10A20FFF782FF0020C7
S1131EA080E00320A860D5F88C00002803D0D5F882
S1131EB08C00060002E0029840190600BBF1000FF6
S1131EC00CD003962036039821002022FFF7E4FA71
S1131ED003980400206850F000402060390030006E
S1131EE000F063F8E0687FF00F01D8F8202001FBD0
S1131EF000208246C5F81CA0C5F820A0BAF80C0042
S1131F00A8846069A862B9F1000F03D0A86A50F0F0
S1131F102000A86206980190BAF80C0000902300F3
S1131F203A003100280000F07BFC002801D1002099
S1131F3038E0AC6620686866E069002808D0D5E916
S1131F402923E069002110185941C5E9290109E054
S1131F5015F1A40018F53F71B1E80C10A0E80C10BD
S1131F600C390C38D8F8F802022803D1A86A50F0CA
S1131F700400A862D8F89C026867D8F8A002A86791
S1131F80D8F8A402E86705982866B9F1000F08D1CB
S1131F9029002800FFF773FD2900D5F88C00FFF70E
S1131FA06EFD280007B0BDE8F08F8908491C491E62
S1131FB0002903D0544A0260001DF8E7704710B4AA
S1131FC0504C24682100C4692200546823004C6AE0
S1131FD0944200D24A620224846043601C68046014
S1131FE0186050600024C0F8B0400024C0F8B44029
S1131FF00024C0F8B84010BC704700000000FF1F68
S11320002DE9FB4F82B014005FF0BC093D48006825
S11320100500B5F828014FF6FE71884201D300206F
S11320206CE00398C0F80090002C06D0A3464A4602
S113203000215846FFF70EFA22E04846FFF7ACFBB2
S11320408346BBF1000F04D00298FFF782FBCBF864
S11320508C00BBF1000F01D158464FE0DBF88C0037
S1132060002804D15846FFF7E9FB002046E024216C
S11320705846FFF7F9FC2521DBF88C00FFF7F4FC48
S1132080D5F82C018246D5F830010600D5F8A80110
S11320901FFA8AFA5AEA0040CBF80C00002E03D14A
S11320A015F59070009002E016F16C0000901BF1A1
S11320B06C02009915F5907000F044FBD846464632
S11320C0F06E6C380700B8461AF1010A1FFA8AFA52
S11320D0BAF1000F01D10120824615F590708742B4
S11320E005D0F86880B21FFA8AFA5045E7D0C5F8DF
S11320F030611FFA8AFAC5F82CA1584605B0BDE82C
S1132100F08F00000000FF1F6B6174730200D36D39
S11321101800002901D0002800D1D16570470000C3
S113212030B4324C2468200010F5D47421004C697A
S11321302200082A04D30724220007244C6105E066
S1132140002A03D10124220001244C61540114F01B
S1132150E004C482002423006A2B04D2244CC0254A
S11321601D555B1CF8E7234C00252B00042B05D2DE
S11321705FF0FF3544F823505B1CF7E730BC704731
S1132180F8B51A480068040000202062D4F8180149
S1132190801C06003001FFF7FFFA0500002D01D175
S11321A0042022E005212800FFF75EFC37003800F8
S11321B0471E002816D02D606D60EF81D4F8BC0155
S11321C0C019072807D2D4F8BC01C019400110F087
S11321D0E000A88101E0C020A881206AA8602562EF
S11321E01035E4E7206A60620020F2BD0000FF1FA2
S11321F000E400E080E100E02DE9F84304000D0074
S113220016001F00DFF85C0100688046A56100210C
S113221014F1080000F056FA00F089F9002E15D1E7
S1132220D8F84001814618F5A070814509D0A14530
S113223004D100F08DF94FF482600DE0D9F80090DC
S1132240F1E7210018F5A07000F042FADFF8180158
S1132250606100F07DF90020BDE8F28338B5040028
S11322600D000023002229002000FFF7C5FF32BD26
S1132270F8B505003B480068060068693A49884299
S113228001D01F2031E000F052F9A869002826D4BB
S1132290288A002823D015F1080000F039FA070035
S11322A03C3FB868C00512D57968080039680C004D
S11322B004606060B6F88801401EA6F88801B8681A
S11322C030F48070B860B86850F00300B860002043
S11322D0B8633800FFF773FE02F076FF02E0A869E6
S11322E0401CA86100F034F90020F2BDF8B50400E8
S11322F01C4800680500288B002801D00D202FE021
S113230060691949884201D01F2029E000F00FF9C3
S1132310A069012816DAE869060040F22B40B06093
S113232014F10800B0637168080031680F00076099
S1132330786016F13C0114F1080000F0C9F902F0CC
S113234051FF02E0A069401EA0616069064988420D
S113235003D000F0FDF81F2002E000F0F9F800209F
S1132360F2BD00000000FF1F6D73776CB0FBF1F24B
S1132370521E554B1A60704710B500F00FFA002139
S1132380C0B200F00FFA04004FF47A712000FFF796
S1132390EDFF4E48072101604D48006850F0805021
S11323A04B4908604B48006850F080404949086038
S11323B010BD70B548480068040042F26200FEF7A0
S11323C038FA5FF000510020FFF7D3F9FA2100201A
S11323D000F066FA0500002D01D028004DE03F48CA
S11323E000F06CFA06000F2000F028FB00220FF228
S11323F08D010F2000F0C7F8002801D126203CE011
S1132400FEF7FCFEFFF7B8FF0120FEF766FE00288A
S113241001D0262031E0FEF7D9FE002801D0262085
S11324202BE00020FEF759FE002801D0262024E0EE
S11324302948006804002A48C4F898014FF47A70C7
S113244000F0F6FAD4F8980100F006FB00210FF230
S1132450390000F0F9FA00F007FB00F00FFB05006B
S1132460002D01D0280008E01E4802681D491E48BE
S113247000F052FB00F014FE002070BD10B5040003
S113248000F026FA10BD000010B40100002423005F
S11324900D4C24682402240A641C2000134C246874
S11324A02402240A2200124C2468640105D50F4C2E
S11324B024682402240A22000300002A00D1020016
S11324C0801A181810BC704714E000E010E000E017
S11324D01CED00E020ED00E00000FF1F0000000004
S11324E00077010050560000B455000018E000E0E9
S11324F004ED00E0F8B50500DFF8BC010068060053
S1132500F069070000F013F8B8680B280CD00B2012
S1132510B860BD6341213800FFF7F8FD7968080011
S113252039680C000460606000F012F8F1BDDFF857
S1132530881109680800C169496D002902D1C18A5E
S113254081F31188C169496D491CC269516570479D
S1132550DFF8641109680800C169496D002911D0C8
S1132560C169496D491EC269516500290AD1018BAF
S1132570002904D0416B896881F3118802E0418B02
S113258081F3118870472DE9F84304000D0016000B
S1132590494800680700B86B002804D11820FFF7E9
S11325A000FC00204FE0F86A844202D3386BA0425A
S11325B004D21420FFF7F5FB002044E0FFF7B7FF37
S11325C0F86A201AC008B96B51F820008046B8F1A7
S11325D0000F06D0D8F80000A04202D0D8F810802E
S11325E0F5E7B8F1000F22D11420FFF7D1F98046A6
S11325F0B8F1000F06D1FFF7ABFF0420FFF7D1FBC2
S1132600002020E023214046FFF72EFAF86A201A22
S1132610C008B96B51F82000C8F81000F86A201AF5
S1132620C008B96B41F820802448814602E0D8F8FC
S113263004008146C8F80040C8F80450C8F80C608B
S1132640FFF786FF4846BDE8F2832DE9F041040018
S11326500D00A54201D20C202BE0174800680600AB
S11326601748C6F80C011548B062281B401CC00866
S1132670401C80465FEA8800FFF707FA0700002F36
S113268001D1042015E003213800FFF7EDF9B76309
S1132690F4623563A6F840830320A6F8420340465B
S11326A0B0F10108002803D0002047F82800F6E71D
S11326B00020BDE8F08100000000FF1FF5240000A9
S11326C0C7520000006040600022028141817047CF
S11326D038B504000D00FFF72AFF6089002807D0F1
S11326E020896189884203D3FFF732FF00200EE07E
S11326F0616809680800286061680D606168696044
S113270045602089401C2081FFF722FF012032BD53
S113271070B50400FFF70BFF2089002803D1FFF7F1
S113272017FF00200DE0206805006968080029688B
S11327300E00066070602089401E2081FFF708FFAC
S1132740280070BD70B504000D001600002D00D1E6
S11327502500FFF7ECFE6089002807D020896189F5
S1132760884203D3FFF7F4FE00200BE02968080039
S113277030602E60756046602089401C2081FFF720
S1132780E7FE012070BD0000C046C046024A1100A9
S11327901820ABBEFBE700BF2600020080B5FEF7A1
S11327A0B7FC02BD38B504000D002900C9B22000F1
S11327B0C0B2FEF7B1FC32BD62F30F2262F31F42D6
S11327C0401810F0030308D0C91A1FD3DB0748BF11
S11327D000F8012D28BF20F8022D130030B4144650
S11327E01546103928BF20E93C00FAD8490728BF0C
S11327F020E90C0048BF40F8042D890028BF20F8C8
S1132800022D48BF00F8012D30BC7047C91818BF0D
S113281000F8012DCB0728BF00F8012D7047704741
S11328202DE9F44F04000D001E000A9FDDF82C80F2
S11328305FF0010B00984019401E00090001814619
S1132840B9F164008246C4F8109015F10F00000934
S11328500001A061C4F814A0642200215046FEF7D0
S1132860F9FD0E48CAF84000CAF82C80706850F090
S11328700100CAF844005FF08070CAF84800CAF842
S113288058800020CAF80000CAF804707FF00200E3
S1132890CAF828005846BDE8F28F00BFD91D0000D1
S11328A070B504000D0029002000FFF7CEFE0600DD
S11328B0002E01D100F010FC300070BD0100034A6D
S11328C012681000014A11607047000008ED00E032
S11328D02DE9F84FDFF88C0100680400D4E95A01AF
S11328E0401C51F10001C4E95A01FFF720FED4F85D
S11328F0A001002806D0D4F8A401D4F8A011884778
S1132900C4F8700114F5B47000F0F0FBB4F8880159
S11329100600002E4CD0D4F880010500761C761EEB
S1132920002E45D028688346D5E91123D4E95A01FD
S11329308B4204D801D3824201D201270CE0D4E9AE
S11329405A23D5E911018B4205D801D3824202D220
S11329505FF0FF3700E00027002F29D4B4F8880186
S1132960401EA4F888016968080029688A46C0F8EE
S113297000A0CAF80400A86830F48070A860A868B1
S1132980400510D5A86830F48060A860296C080060
S1132990E96B8946C0F80090C9F80400A86B008967
S11329A0401EA96B08812800FFF709FB5D46B6E7C6
S11329B0E069050095F8280040072ED5D5E92C01DB
S11329C0401C51F10001C5E92C01A86AC00424D4BB
S11329D0D5E92923D5E92C018B4204D801D38242BD
S11329E001D201270CE0D5E92C23D5E929018B423A
S11329F005D801D3824202D25FF0FF3700E00027FE
S1132A00002F0AD46968080029688846C0F8008045
S1132A10C8F804002800FFF7D2FAFFF799FDD4F8AC
S1132A203C03002802D0D4F83C038047BDE8F18F72
S1132A300C4A12681100C1F894017047094A1268DF
S1132A401100C1F88C017047064B1B681A00C2F8CC
S1132A50A001C2F8A4117047024A12681100C1F81B
S1132A609C0170470000FF1F0348006840084000B5
S1132A70014908600020704700D0004010B50748A5
S1132A8000680400002114F52470FFF71BFE0121E7
S1132A9014F51D70FFF7E2FB10BD00BF0000FF1F1F
S1132AA070B403000025002400291AD0002A18D08D
S1132AB01001B1FBF0F00500002D0DD0280100FB42
S1132AC01210560816EB4000B0FBF2F00400202C64
S1132AD002D36D1C00200400B5F5005F01D316205D
S1132AE00EE0280A10F01F0018705D70987A10F03C
S1132AF0E0009872987A14F01F0630439872002010
S1132B0070BC7047C17851F00C01C1707047C17836
S1132B1011F0F301C170704770B586B004000D0068
S1132B201600049603950FF2E11002900FF279104B
S1132B3001900FF2611000900FF245130FF2111281
S1132B400FF20D01200000F0EDFA06B070BD000098
S1132B502DE9F84F04000D001600606881464846D0
S1132B60C0B200F0B1FD0700002F01D12B206CE0B2
S1132B705820FEF78AFF8046B8F1000F01D10420E7
S1132B8063E0C5F80080C8F8207040462100202288
S1132B90FEF782FC0120C8F83000D8F8080082460D
S1132BA0152083465946C9B24846C0B2FEF72EFBEB
S1132BB004214846C0B2FEF729FBD8F80C20514640
S1132BC03800FFF76DFF0020B870F87810F0FD00B2
S1132BD0F870B87A10F03F00B87200203872002004
S1132BE078720020B871387CC0F30210C0B200289B
S1132BF002D10020F87407E00120397CC1F30211EE
S1132C00491C8840401EF87401207875F87810F04B
S1132C10F300F870387C50F088003874787C50F0F9
S1132C20C00078745FEACB6003D53800FFF76AFF11
S1132C3002E03800FFF76BFF5FEA0B7004D5082150
S1132C404846C0B2FEF7E2FA0020BDE8F28F000069
S1132C5070B504000D00042604216068C0B2FEF7BC
S1132C60D5FA286A0021C170300704D508216068AC
S1132C70C0B2FEF7CBFA2800FEF7E0FD002070BDDD
S1132C800100086A02799206FCD58A6B521C8A6399
S1132C90C0797047026A13791B06FCD5D171C36BE6
S1132CA05B1CC3637047000030B401000A000B6A68
S1132CB01C79200702D5D06C401CD064E00702D5F3
S1132CC0506C401C5064600702D5506D401C506528
S1132CD0A00702D5906C401C90640A2004420BD0DB
S1132CE0D8799D7CED0707D5587C50F04000587486
S1132CF0987C50F001009874987C400601D401201F
S1132D0000E0002030BC70472DE9F04104000D00C4
S1132D101600276A2800C01E00F0708140F6FF41AB
S1132D20401A00F03781401E70D0401E71D0401E02
S1132D3000F07F80401E00F09580801F2ED0401E42
S1132D4018D0401E00F06B81401E00F05E81401ED2
S1132D5000F0B780401E00F0A480001F00F09380B4
S1132D60401E00F09780401E00F03481401E00F0A9
S1132D703E818FE108208046B878C0060BD594F8D0
S1132D803000C00707D5B878800702D5B87A800626
S1132D9001D518F10108C6F800807EE130680828E2
S1132DA004D03068092801D00C2077E13068082865
S1132DB014D194F83000C00727D5B87A10F0DF009A
S1132DC0B872B878800704D5B87850F01000B8709D
S1132DD01BE0B87810F0EF00B87016E094F83000FB
S1132DE0C00710D5B87850F01000B870B8788007D4
S1132DF004D5B87A50F02000B87206E0B87A10F022
S1132E00DF00B87201E0162048E146E1E068306076
S1132E1043E1A0688046326841463800FFF740FE2F
S1132E208046B8F1000F01D0404637E13068E060D9
S1132E3033E1606B3060361DA06B3060361DE06B93
S1132E403060361D206C3060361D606C3060361D7D
S1132E50A06C3060361DE06C3060361D206D306033
S1132E60361D1AE1002060630020A0630020E063A7
S1132E7000202064002060640020A0640020E0643E
S1132E800020206509E13879C0F3C01010F001007A
S1132E90306002E13879C0F3401010F00100306076
S1132EA0FBE001208046B878800707D5B878C007D2
S1132EB002D50220804601E003208046C6F8008047
S1132EC0EBE03068012804D061D3032838D014D350
S1132ED05DE0B87880070FD5B87810F0FC00B870C2
S1132EE0B87A800604D5B87A10F0DF00B87203E02F
S1132EF0B87810F0EF00B8704BE094F83000C007D9
S1132F0001D41620CAE0B878800704D5B87850F008
S1132F100100B87013E0B87850F00300B870B878C6
S1132F20C00604D5B87A50F02000B87207E0B87A29
S1132F3010F0DF00B872B87850F01000B87028E0D4
S1132F4094F83000C00701D41620A7E0B8788007B1
S1132F5004D5B87810F0FE00B87017E0B87850F0D7
S1132F600200B870B87810F0FE00B870B878C006E7
S1132F7004D5B87A50F02000B87207E0B87A10F09F
S1132F80DF00B872B87850F01000B87001E00C207F
S1132F9084E082E0307880060BD56068FEF73AFA68
S1132FA0787B10F0F6007873787B50F00200787329
S1132FB00FE03078000708D5787B10F0FD007873B7
S1132FC0787B50F00900787303E0787B10F0F4000C
S1132FD0787362E03068012804D1F87810F0FB00BF
S1132FE0F87003E0F87850F00400F87055E0387990
S1132FF0002801D1012000E000204EE0B87C00064A
S1133000FCD538794006FCD547E094F83000C00779
S113301002D50120306001E0032030603DE03068DB
S1133020012814D194F83000C00732D4B87A10F0D3
S1133030DF00B872B87810F0EF00B870B87910F00B
S1133040BF00B871206B50F00100206321E03068AC
S113305003281CD194F83000C0071AD5B878C006EC
S113306002D4B878800701D5162017E0B87A10F09A
S1133070DF00B872B87850F01000B870B87950F02A
S11330804000B871206B40084000206301E00C2030
S113309004E002E040F6092000E00020BDE8F081F1
S11330A010B50C4800680400D4F8C80100280FD0FB
S11330B0D4F8CC11D4F8C80100F034FBC4F89C0255
S11330C0D4F89C02C4F8A002D4F89C02C4F8A40268
S11330D010BD00BF0000FF1F034909680800C16B51
S11330E081F30888704700BF0000FF1FD0B40C4A6A
S11330F012681100D1F89C2114008268A2420DD3F9
S11331008268B2FBF4F2D0E900670023B6185F418D
S1133110C0E90067836804FB12328260D0BC704748
S11331200000FF1F2DE9F74F84B01C00109D119E75
S1133130129FDDF84C80DDF850903020FEF7A5FC9E
S11331408246BAF1000F01D1042029E040F2F9319E
S11331505046FEF789FC0598CAF800000698CAF89C
S11331600400CAF80840CAF80C50CAF81060CAF83B
S11331701470CAF81880CAF82090CDF808A00FF28D
S1133180994001900FF2513000900FF255130FF255
S113319019120FF21501049800F028FB83465846D3
S11331A007B0BDE8F08F00002DE9F84304000D00DE
S11331B016005FF0000920680700786A8046D8F896
S11331C02400002809D0D8F82400401CC8F82400A2
S11331D0D8F82800A060484663E0D8F820001030F2
S11331E0FEF7D6FBC8F82C00D8F82C00002801D133
S11331F0042056E04FF47F71D8F82C00FEF734FC1D
S1133200D8F82C00D8F820100160D8F82C00002140
S11332104160D8F82C0000218160D8F82C000021EE
S1133220C160C8F82860A6602A0018F11C01D8F80B
S11332301800D8F8003098478146B9F1000F23D11F
S1133240D8F81400002808D0009600AA40F60251CD
S1133250D8F81C00D8F8143098473000C00613D5AD
S113326016F00700002802D00C2081460CE0D8F8A4
S11332701400002808D000AA40F61551D8F81C0004
S1133280D8F8143098478146B9F1000F05D0D8F822
S11332902C00FEF7D3FA484603E00120C8F82400C6
S11332A04846BDE8F2830000F8B504000027206812
S11332B00500686A0600706A401E706200280CD11E
S11332C07068002804D0F169B069726890470700FB
S11332D0F06AFEF7B3FA0020F0623800F2BD000095
S11332E02DE9F84F04000D001600B2462068009046
S11332F00098406A0700B86A8146F8698346BAF1C3
S1133300000F00F0E5805FEAC9705FD5F86A406895
S1133310F96A0968884280F0868058463969884786
S1133320002800F080805846B968884780465FFAD4
S113333088F8B8F1130F2BD15FFA88F8B8F1110FA0
S1133340E4D05846B968884780465FFA88F8B8F1EF
S1133350110FF1D0F86A4068F96A09688842EBD223
S1133360F86AC068F96A421CCA60F96A401880F8B1
S11333701080F86AC068F96A0968884202D1F86A5C
S11333800021C160F86A4068401CF96A4860D3E7CC
S1133390F86A4068F96A09688842B7D2F86AC0686E
S11333A0F96A421CCA60F96A401880F81080F86A09
S11333B0C068F96A0968884202D1F86A0021C160CC
S11333C0F86A4068401CF96A48609FE7F86A4068F8
S11333D0F96A0968884226D258463969884700281C
S11333E021D05846B96888478046F86A4068F96A27
S11333F009688842EAD2F86AC068F96A421CCA605D
S1133400F96A401880F81080F86AC068F96A096897
S1133410884202D1F86A0021C160F86A4068401C01
S1133420F96A4860D2E7F86A406800284AD0F86A26
S11334304068002816D0F86A4068401EF96A48605F
S1133440F86A8068F96A421C8A60F96A4018007C4C
S11334508046F86A8068F96A0968884202D1F86A85
S1133460002181605FEA89701ED55FFA88F8B8F19F
S11334700D0F09D15FEA497003D50D215846FA684A
S113348090470A2080460FE05FFA88F8B8F1080FE9
S11334900AD15FEA497007D508215846FA6890476F
S11334A020215846FA6890475FEA497004D541469E
S11334B0C9B25846FA68904785F800806D1CBAF185
S11334C0010A1CE75FEAC9607FF519AFB6EB0A068B
S11334D03000BDE8F28F00002DE9F04F83B0040006
S11334E00D00160016F1010A206801900198406A47
S11334F00700B86A8146F8698346BAF1010ABAF14D
S1133500000F00F085805FEAC9705DD5F86A4068F5
S1133510F96A0968884257D25846396988470028A9
S113352052D05846B968884780465FFA88F8B8F19F
S1133530130F2BD15FFA88F8B8F1110FE6D0584673
S1133540B968884780465FFA88F8B8F1110FF1D05E
S1133550F86A4068F96A09688842EBD2F86AC06878
S1133560F96A421CCA60F96A401880F81080F86A47
S1133570C068F96A0968884202D1F86A0021C1600A
S1133580F86A4068401CF96A4860D3E7F86A406802
S1133590F96A09688842B9D2F86AC068F96A421CB3
S11335A0CA60F96A401880F81080F86AC068F96A3D
S11335B00968884202D1F86A0021C160F86A40684B
S11335C0401CF96A4860A1E75FEA897006D528784B
S11335D00A2803D10D215846FA6890475FEAC9606A
S11335E010D5786900280DD000AA40F61551F86965
S11335F07B699847002805D10098002802D1B6EBD2
S11336000A0605E02978F869FA6890476D1C74E7A2
S11336103000BDE8FE8F00002DE9F84F04000D00D6
S113362016005FF00008B346206800900098406AD6
S113363007002800801F09D0C01E01282BD940F69E
S1133640F841401A11D0401E14D030E0B146F86A57
S11336504068002803D00120C9F8000004E0F8699C
S113366039698847C9F800002AE0B246B86ACAF83E
S1133670000025E0B246DAF80000B862DAF800008B
S1133680A0607869002805D032002900F8697B69B8
S11336909847804614E00F20CBF800000020CBF8B8
S11336A004004C20CBF808000020804608E078692C
S11336B0002805D032002900F8697B6998478046C4
S11336C04046BDE8F28F00000100C9B2002908D0CD
S11336D002290CD008D304290FD00BD305290FD00D
S11336E011E00A4A100010E0094A10000DE0094AEE
S11336F010000AE0084A100007E0084A100004E03D
S1133700074A100001E000221000704700A00640A4
S113371000B0064000C0064000D0064000A00E40A5
S113372000B00E402DE9F84F04000D002E4800684B
S1133730060016F51D70FEF7D9FDD6F890028046F6
S113374016F5247080451DD0D8F808008146A2469D
S11337509AF8000000280ED099F8000000280AD03A
S11337609AF8000099F80010884204D11AF1010A6D
S113377019F10109ECE799F80000002802D0D8F803
S11337800080DDE716F51D70FEF772FD16F5247056
S1133790804501D1002024E02020FEF776F90700BF
S11337A0002F01D100201CE010213800FEF75CF945
S11337B0C7F80080D8F80C00002811D02A00210096
S11337C03800D8F80C3098478346BBF1000F07D077
S11337D05846FEF7E6FA3800FEF730F8002000E01D
S11337E03800BDE8F28F00BF0000FF1F2DE9FF473E
S11337F004000D0016001F00DDF83080DDF8349061
S1133800DDF838A0CDF80CA000200290CDF804908B
S1133810CDF800803B0032002900200000F004F8BD
S113382004B0BDE8F08700002DE9F84F04000D0056
S113383016000D9F5FF0000B3A4800688046280090
S1133840002802D03000002801D10C2067E00020BD
S11338508246BAF5806F0DD21AF804003A2802D1D4
S11338601BF1010B03E01AF80400002802D01AF13E
S1133870010AEEE7BBF1010F02D1BAF1010F01D148
S11338800C204CE018F51D70FEF730FDD8F89002BE
S1133890814618F52470814512D04FF48062D9F81E
S11338A00810200000F040F8002806D118F51D701B
S11338B0FEF7DEFC4FF4206031E0D9F80090E8E731
S11338C02C20FEF7E2F88146B9F1000F05D118F576
S11338D01D70FEF7CDFC042021E00F214846FEF7C1
S11338E0C3F8C9F80840C9F80C50C9F8106000982A
S11338F0C9F814000A98C9F818000B98C9F81C00F4
S11339000C98C9F82000C9F82470494618F52470A9
S1133910FEF7DEFE18F51D70FEF7AAFC0020BDE8D8
S1133920F28F00BF0000FF1F01E0491C521E72B15C
S11339300B7890F800C09C4505D002D24FF0FF30C0
S113394070470120704710F8013B002BEDD1002097
S11339507047000038B504000D000D4800F020F851
S1133960002032BD38B504000D000A4800F018F8F4
S1133970002032BD38B504000D00074800F010F8EF
S1133980002032BD04000021044800F01FF8FAE7CB
S1133990345400003C540000445400008C54000093
S11339A00EB478B5040005A80500012000F028F93C
S11339B0009523005FF0FF32034900F09CF90600F4
S11339C0300072BC5DF810FB795100002DE9F04124
S11339D004000D0083498448FFF7E2FF8348FFF7A2
S11339E0DFFF4FF4FE70FDF7D7FE0600002E02D174
S11339F05FF0FF30E9E045F201013000FEF734F8F2
S1133A00C6F8DC40002D0FD02878272806D1502294
S1133A10691C16F13C0000F0CFFF05E06CA1280002
S1133A20FFF780FEC6F8E000D6F8E000002804D1D5
S1133A30002000F0E5F8C6F8E0000021300001F0B5
S1133A402FF816F13C00002805D016F13C01684817
S1133A50FFF7A6FF02E06748FFF7A2FF012000F08E
S1133A60CFF801F049F8D6F8E400002840F0A68029
S1133A70D6F8E400002861D196F83C0000285DD017
S1133A80D6F8E080002000F0BBF8804504D016F1A1
S1133A903C0150A0FFF784FF96F83C0023284DD04A
S1133AA04DA116F13C0001F045F8002807D1502241
S1133AB016F18C0116F13C0000F07EFF15E047A1E1
S1133AC016F13C0001F036F8002807D1502216F117
S1133AD08C0116F13C0000F06FFF06E0502216F155
S1133AE03C0116F18C0000F067FF310016F13C0038
S1133AF000F098FFB063B06B01281FDB306801F061
S1133B003BF80020070054F8370000280FD054F881
S1133B103710306801F00EF8002806D13100B06B80
S1133B2014EBC7025268904701E07F1CEBE754F89E
S1133B303700002802D13048FFF732FFD6F8E400FE
S1133B40002890D12B48FFF72BFF012000F058F8F4
S1133B5000F0D2FFD6F8E020502116F13C0001F02D
S1133B6067F800281DD1D6F8E080002000F048F85E
S1133B70804512D0D6F8E00001F074F8002000F07F
S1133B803FF8C6F8E000002086F88C00002086F894
S1133B903C0013A0FFF704FF03E00120C6F8E40093
S1133BA061E796F83C0000287FF45DAFD6F8E0802A
S1133BB0002000F025F88045CCD154E70F48FFF7EA
S1133BC0EFFE3000FDF73AFE0020BDE8F08100BFB3
S1133BD07200000025730A0021000000E048000084
S1133BE00A000000C0540000AC540000CC54000093
S1133BF0FC54000008550000105500004855000012
S1133C000100124800680200080080B2002811D0A8
S1133C10022815D011D3042806D002D3052806D0D3
S1133C2011E0D2F89C020FE0D2F8A0020CE0D2F826
S1133C30A40209E0D069406F06E0D069806F03E018
S1133C40D069C06F00E00020704700BF0000FF1F74
S1133C502DE9F84304000D0016001F00DDF8208054
S1133C605FF00009B8F1000F01D500208046C1457E
S1133C700DDA19F10100B04206DAFFB22100FFB2F9
S1133C803800A847874202D119F10109EFE74846F5
S1133C90BDE8F2832DE9F04704000D0016001F0073
S1133CA05FF000085FF00109387800281BD0B9F1F3
S1133CB0000F18D018F10100B0420EDA97F800A0F6
S1133CC021003878A847824502D15FF0010901E05C
S1133CD05FF000095FFA89F901E00120814618F1DB
S1133CE001087F1CE0E73878002801D0B8F101080A
S1133CF04046BDE8F0872DE9F74F96B01D00229F9E
S1133D000020099000200400189810F1010F02D13E
S1133D107FF00040189028786D1C8DF81800C0B210
S1133D20252819D09DF8180000280AD1099810F107
S1133D30010F03D15FF0FF3000F05ABD200000F006
S1133D4057BD641C18988442E5DA16999DF818004A
S1133D50179A90470990DEE7287825280AD1641C31
S1133D601898844205DA16992878179A904709908A
S1133D706D1CD0E720208DF80A0000208DF8040087
S1133D800420049000200C9000208DF808000020EE
S1133D908DF80B0000208DF8070000208DF814002A
S1133DA000208DF8090000208DF8060000208DF811
S1133DB0050000208DF8170000208DF816002878E3
S1133DC000282BD09DF81600002827D12878202819
S1133DD016D0232819D02B280DD02D2802D0302816
S1133DE004D017E001200C906D1CE8E730208DF81A
S1133DF00A006D1CE3E701208DF814006D1CDEE75A
S1133E0001208DF80B006D1CD9E701208DF8070007
S1133E106D1CD4E701208DF81600D0E7002008902F
S1133E2028782A2804D1386808903F1D6D1C0EE0BC
S1133E30287830280BD328783A2808D208980A2101
S1133E402A7801FB0020303808906D1CF0E75FF001
S1133E50FF30824628782E2818D1002082466D1C17
S1133E6028782A2804D1386882463F1D6D1C0DE04D
S1133E70287830280AD328783A2807D20A202978C3
S1133E8000FB0A10B0F1300A6D1CF1E70EA8039094
S1133E9028786D1C0790002813D1641C189884425C
S1133EA004DA16992520179A90470990099810F179
S1133EB0010F03D15FF0FF3000F09ABC200000F046
S1133EC097BC07984C2820D0682802D06C280ED0C4
S1133ED021E000200490287807906D1C079868283A
S1133EE004D101200490287807906D1C13E002206F
S1133EF00490287807906D1C07986C2804D103203F
S1133F000490287807906D1C05E00420049028781C
S1133F1007906D1CFFE700208DF8080000208DF845
S1133F20150000200600079843282AD044284AD0C8
S1133F30492848D04E2800F025824F2800F0688197
S1133F40502800F0B681532833D055283ED0582845
S1133F5000F0BF81632814D0642834D0692832D09B
S1133F606E2800F00F826F2800F05281702800F054
S1133F70A38173281DD0752828D0782800F0AF813C
S1133F8006E238688DF838003F1D9DF83800002897
S1133F9003D1761C01208DF8170000208DF839001C
S1133FA00020824620208DF80A0000208DF80700AA
S1133FB000E2386803903F1D20208DF80A0000209D
S1133FC08DF80700F6E101208DF81500BAF1010F14
S1133FD002DB01208DF809009DF81500002873D03C
S1133FE00498032835D1FF1D37F00707D7E90001EE
S1133FF0CDE90A010837DDE90A01002903D10028C7
S113400001D1012000E000208DF80500DDE90A015E
S113401000290DDC01DB00280AD22D208DF80400D4
S1134020DDE90A01404271EB4101CDE90A019AE060
S11340309DF81400002803D02B208DF8040092E092
S11340409DF80B00002800F08E8020208DF80400DD
S113405089E00498002804D1B7F9000080463F1D88
S113406011E00498012804D197F9000080463F1D0F
S113407009E00498022803D1386880463F1D02E015
S1134080386880463F1DB8F1000F01D1012000E0DF
S113409000208DF80500B8F1000F05D52D208DF80E
S11340A00400D8F100085EE09DF81400002803D055
S11340B02B208DF8040056E09DF80B00002852D008
S11340C020208DF804004EE0049800280BD1388895
S11340D080463F1DB8F1000F01D1012000E000200F
S11340E08DF805003FE0049801280BD1387880460C
S11340F03F1DB8F1000F01D1012000E000208DF830
S1134100050030E0049802280BD1386880463F1D32
S1134110B8F1000F01D1012000E000208DF8050066
S113412021E00498032813D1FF1D37F00707D7E9CE
S11341300001CDE90A010837DDE90A01002903D1AC
S1134140002801D1012000E000208DF805000AE0DC
S1134150386880463F1DB8F1000F01D1012000E00E
S113416000208DF80500002083460498032834D1EC
S1134170DDE90A0100290FDC01DB00280CD2DDE9AE
S11341800A23DFF82008DFF8201810185941CDE978
S11341900A011BF1010BEBE79DF8080000901423C2
S11341A00398421CDDE90A0100F07EFB0398407885
S11341B01BEB000003994870039840783A2808D311
S11341C0039840780A3803994870039831210170A4
S11341D01AE00398401C039016E0B8F1000F06D5CE
S11341E0DFF8C80710EB08081BF1010BF5E79DF891
S11341F008300A220399404600F002FB0398007835
S11342001BEB00000399087000208DF80700D1E033
S1134210BAF1010F02DB01208DF80900049803288C
S11342201CD1FF1D37F00707D7E90001CDE90A01CA
S11342300837DDE90A01002903D1002801D1012052
S113424000E000208DF805009DF80800009016237A
S1134250039ADDE90A0100F027FB26E00498002810
S113426003D1388880463F1D10E00498012803D10B
S1134270387880463F1D09E00498022803D1386845
S113428080463F1D02E0386880463F1DB8F1000FAC
S113429001D1012000E000208DF805009DF80830D0
S11342A00B220399404600F0ABFA03208DF8060078
S11342B080E001208DF808000020814638680D90C8
S11342C03F1D9DF80830082203990D9800F098FAD4
S11342D070E001208DF8080001208DF80600BAF185
S11342E0010F02DB01208DF809009DF80600401C37
S11342F08DF80600049803281CD1FF1D37F007072A
S1134300D7E90001CDE90A010837DDE90A010029EE
S113431003D1002801D1012000E000208DF8050020
S11343209DF8080000901023039ADDE90A0100F0CB
S1134330BBFA26E00498002803D1388880463F1D44
S113434010E00498012803D1387880463F1D09E025
S11343500498022803D1386880463F1D02E038687B
S113436080463F1DB8F1000F01D1012000E000207C
S11343708DF805009DF8083008220399404600F0A6
S11343803FFA17E0386803903F1D03980460C2E4C5
S1134390641C1898844204DA16990798179A90476F
S11343A00990099810F1010F02D15FF0FF301FE26C
S11343B020001DE20398305C002801D0761CF9E748
S11343C00898002801D500200890BAF1000F02D502
S11343D00020824608E00798732802D007985328E3
S11343E002D1B24500DA564600208146089850EAC8
S11343F00A00002852D09DF8090000280ED1BAF115
S1134400000F0BD0B24509DA03980EA9884204D1F3
S1134410B6EB0A0003994018039056469DF809002C
S113442000281FD00898824519DA564503DA0898FF
S1134430B0EB0A0902E00898B0EB06099DF8050004
S1134440002815D19DF80700002811D09DF806001A
S113445003280DD156450BDA19F1010908E00020B3
S1134460814605E00898002802D00898801B814600
S11344709DF80400002801D0B9F101099DF8070056
S113448000280BD09DF80500002807D1B9F10109D7
S11344909DF80600032801D2B9F10109B9F1000F12
S11344A001D5002081460C98002840F012819DF827
S11344B00900002861D0CDF8009020231898021B31
S11344C017991698FFF7C4FB001904009DF804001F
S11344D02B2807D09DF804002D2803D09DF8040054
S11344E020280BD1012000909DF804301898021B5D
S11344F017991698FFF7ACFB001904009DF8070004
S113450000282DD09DF80500002829D19DF806002B
S1134510012802D002280AD013E0B7A31898021B7E
S113452017991698FFF7B6FB0019040018E0B3A317
S11345301898021B17991698FFF7ACFB0019040092
S11345400EE0BAEB060001280ADA012000903023BD
S11345501898021B17991698FFF77AFB00190400A4
S1134560BAEB0600009030231898021B179916988E
S1134570FFF76EFB0019040009E19DF80A003028DA
S113458052D19DF804002B2807D09DF804002D2853
S113459003D09DF8040020280BD1012000909DF841
S11345A004301898021B17991698FFF751FB00194D
S11345B004009DF80700002829D09DF80500002874
S11345C025D19DF80600012802D002280AD013E064
S11345D089A31898021B17991698FFF75BFB00191B
S11345E0040014E085A31898021B17991698FFF786
S11345F051FB001904000AE00120009030231898B0
S1134600021B17991698FFF723FB00190400CDF835
S113461000909DF80A301898021B17991698FFF716
S113462017FB00190400B2E0CDF800909DF80A30A1
S11346301898021B17991698FFF70AFB0019040033
S11346409DF804002B2807D09DF804002D2803D0E2
S11346509DF8040020280BD1012000909DF804301F
S11346601898021B17991698FFF7F2FA001904001C
S11346709DF80700002800F08A809DF805000028B6
S113468040F085809DF80600012802D002280AD057
S113469013E059A31898021B17991698FFF7FAFA12
S11346A00019040073E055A31898021B1799169873
S11346B0FFF7F0FA0019040069E0012000903023AC
S11346C01898021B17991698FFF7C2FA00190400EC
S11346D05DE09DF804002B2807D09DF804002D28E8
S11346E003D09DF8040020280BD1012000909DF8F0
S11346F004301898021B17991698FFF7A9FA0019A5
S113470004009DF80700002831D09DF8050000281A
S11347102DD19DF80600012802D002280AD013E00A
S113472035A31898021B17991698FFF7B3FA0019C6
S113473004001CE031A31898021B17991698FFF780
S1134740A9FA0019040012E09DF80900002803D01A
S1134750BAEB060000280AD50120009030231898EF
S1134760021B17991698FFF773FA001904009DF8B5
S1134770090000280BD0BAEB0600009030231898EB
S1134780021B17991698FFF763FA00190400761CA8
S11347901898001BB04202DA1898001B06009DF816
S11347A0170000280BD001200090039803783200F2
S11347B017991698FFF74CFA0019040007E0039BB9
S11347C0320017991698FFF765FA001904000C983F
S11347D000283FF4A0AACDF8009020231898021BCB
S11347E017991698FFF734FA00190400FFF793BAE3
S11347F019B0BDE8F08F0000307800003058000098
S11348007FB400258DF800500B2A12D101252C000D
S1134810A24207DB10F00705303500AEA555C010E5
S1134820641CF5E79DF80B5015F033058DF80B501B
S113483026E00A2A10D101252C00A24220DB0A25F9
S113484090FBF5F605FB1605303500AEA5550A2597
S113485090FBF5F0641CF0E701252C00A2420FDB6D
S1134860002B04D010F00F05514EAD5D03E010F0A5
S11348700F05504EAD5D00AEA5550011641CEDE76B
S1134880140000AD655D302D01D1641EF9E7002CE4
S113489000D1641C002C05D400AD655D0D70641E50
S11348A0491CF7E77FBC70472DE9F04F88B004003E
S11348B00D0016001F00DDF844A000208DF8000054
S11348C0162F17D1012083465F450CDB14F0070037
S11348D0303000A90BF80100E40844EA4574ED10F7
S11348E01BF1010BF0E79DF8160010F031008DF874
S11348F016003BE0142F1FD1012083465F4535DBB2
S1134900200029005FF00A085FF000090400424615
S11349104B4600F0C3F908FB1040303000A90BF8F7
S11349200100200029000A22002300F0B7F9040046
S11349300D001BF1010BE1E7012083465F4515DB08
S1134940BAF1000F04D014F00F001949405C03E0E1
S113495014F00F001749405C00A90BF8010024096A
S113496044EA05742D111BF1010BE7E7BB4600A8CF
S11349701BF80000302802D1BBF1010BF7E7BBF1B3
S1134980000F01D11BF1010BBBF1000F07D400A8EC
S11349901BF800003070BBF1010B761CF4E708B083
S11349A0BDE8F08F00009C584C491FF2003665C4E6
S11349B05C5500007055000001B58B0718D1121F1B
S11349C021D351F8043BA3F1013C2CEA030C1CF065
S11349D0803C04BF40F8043BF1E79CFA8CFCBCFA31
S11349E08CF1C1F118018B40CB4040F8043B13E03B
S11349F0042A09D311F8013B521E00F8013B5BB1B4
S1134A008B07F7D1DBE7121D5AB111F8013B521E97
S1134A1000F8013B03B1F8D111001CBF0022FDF7DF
S1134A20CFFE01BD2DE9F04104000D00A046002099
S1134A300700002006000E2E2FD298F80000002850
S1134A4008D098F8000000F0C2F9002802D118F14B
S1134A500108F2E798F80000002803D1002045F887
S1134A60260018E07F1C45F8268098F800000028EE
S1134A7008D098F8000000F0AAF9002802D018F134
S1134A800108F2E798F80000002804D0002088F814
S1134A90000018F10108761CCDE73800BDE8F0816C
S1134AA070B504000D002600002D0BD10020C6F8BF
S1134AB0F000002086F8E8000EA116F1F40000F0E2
S1134AC095F914E0280000F06EF800280DD00822B3
S1134AD016F1E801280000F07CF8C6F8F05005A1B2
S1134AE016F1F40000F082F901E0012000E000205A
S1134AF070BD00005C00000070B504000026002CAE
S1134B0002D15FF0FF3013E020680500E869002857
S1134B1005D0002203212000EB6998470600A06914
S1134B20002804D002220021200000F081F9300086
S1134B3070BD0000820707D010F8012B11F8013B6B
S1134B40BAB19A42F6D014E002680B689A42A2F114
S1134B50013301BF934313F0803F50F8042F51F801
S1134B60043FF3D010F8012B11F8013B0AB19A422B
S1134B70F8D0D01A7047000038B504000025002C86
S1134B8001D100200EE0285D00280AD0285D00F045
S1134B90AFF9002803D0285D00F0B0F928556D1C4A
S1134BA0F1E7002032BD0100002901D100200FE00F
S1134BB000200200042A0ADA0C201C4B00FB0230FD
S1134BC08068884201D1012002E0521CF2E70020F3
S1134BD07047F8B504000D001600002C01D0002D1C
S1134BE001D1012020E000200700042F1BDA0C2053
S1134BF00E4900FB07108068A04212D10C200B491B
S1134C0000FB071000F080F9B04208D20C200749DD
S1134C1000FB0711280000F0E9F8002004E002205E
S1134C2002E07F1CE1E70120F2BD00000400FF1F49
S1134C30F8B504000D001600002E01D1002010E08C
S1134C40002020702A002100300000F078F90700CD
S1134C5017F1010F04D12078002801D1002000E0D1
S1134C602000F2BD70B50400002C02D15FF0FF30CB
S1134C7012E0206805002869002805D12000FCF70F
S1134C80DDFD5FF0FF3007E020002969884706005A
S1134C902000FCF7D3FD300070BD000013F0004C81
S1134CA003D55B42524263F100039CEA210C00F0FD
S1134CB0178010B5644603D34942404261F10001B4
S1134CC000F00EF8640004D34942404261F100014F
S1134CD0244203D55B42524263F1000310BD00003D
S1134CE01B4213D1094236D12AB18446B0FBF2F0FB
S1134CF002FB10C2704700F073B9FCD300220023FA
S1134D0070470B000200002100207047904271EBB5
S1134D10030CF6D370B5B1FA81F4B3FA83F52C1B06
S1134D20A340C4F1200532FA05F63343A2405FF0F4
S1134D300046E64002E05B085FEA3202841A71EB47
S1134D40030524BF204629467641F4D302000B0014
S1134D503000002170BD012ACFD970B5140C20D0C9
S1134D60B1FA81F4B2FA82F5C4F120046419B4F101
S1134D702006D6D3B2405FF00044F440002502E0A0
S1134D8052085FEA3303C61A71EB020E24BF3046A1
S1134D90714664416D41F3D302000B0020002900E9
S1134DA070BD0C46B1FBF2F102FB11452D0445EA3E
S1134DB01045B5FBF2F402FB145580B240EA0545F8
S1134DC0B5FBF2F002FB105240EA044070BD10B58E
S1134DD00400202C06D0200000F003F9002801D0A4
S1134DE0012000E00020C0B210BD00005FEA000C0A
S1134DF0830706D011F8013B00F8013BB3B18307E8
S1134E00F8D10A68B2F1013323EA020313F0803FB8
S1134E1002BF40F8042B51F8042FF3E711F8013BCB
S1134E2000F8013B13B111F8013BF9E76046704704
S1134E302DE9F041040088461500002C02D15FF0F2
S1134E40FF3053E0012D04D032D3032D21D009D3F8
S1134E502EE0B8F1000F02D55FF0FF3046E0C4F851
S1134E60108028E0A069002804D02069002801D01F
S1134E70B8F10108B8F1000F06D5206910EB080F4E
S1134E8002D25FF0FF3031E0206918EB00002061AE
S1134E9011E0B8F1000F06D5606910EB080F02D2DB
S1134EA05FF0FF3022E0606918EB0000206102E04F
S1134EB05FF0FF301AE0A069002801D00020A06153
S1134EC0A06830F00800A06020680600F06900289F
S1134ED00BD0002207212000F3699847070040F611
S1134EE00920874201D0380000E00020BDE8F081AD
S1134EF010B50400200000F089F810BD10B50400BE
S1134F00200000F08CF810BD00F10103810704D0EB
S1134F1010F8011B89B18107FAD10268B2F101319D
S1134F20914311F0803F04BF50F8042FF6E710F8C6
S1134F30011B11B110F8011BFBE7C01A70472DE9E2
S1134F40F84304000D009146002C04D10020287081
S1134F505FF0FF3042E0B9F1000F02D0B9F101096E
S1134F6002E07FF000408146200000F063F8060074
S1134F7016F1010F04D1002028705FF0FF302DE0FE
S1134F80A0688046002007000A2E1ED00D2E1CD0DB
S1134F904F451ADA5FEA487008D5082E06D1002F6B
S1134FA007D06D1E202028707F1E02E02E706D1C1D
S1134FB07F1C200000F03EF8060016F1010FE3D13B
S1134FC0002028705FF0FF3008E04F4503DB21002C
S1134FD0300000F057F8002028703800BDE8F28354
S1134FE0704710B50400202C01DB7F2C09DB200066
S1134FF000F060F8002804D1200000F061F80028D7
S113500001D0012000E00020C0B210BD412803DB24
S11350105B2801DA012000E00020C0B2704710B51F
S113502004002000FFF7F2FF002801D02034FFE73E
S1135030200010BD70B582B00400002C02D15FF0D6
S1135040FF301EE0A069002805D0E06906000020BA
S1135050A061300015E0206805006869002804D1CB
S11350602C20E0605FF0FF300BE0012200A920005B
S11350706B699847012802D19DF8000001E05FF0B8
S1135080FF3076BD0200002902D15FF0FF3010E04E
S11350908869002802D05FF0FF300AE012F1010FA6
S11350A006D0CA6101208861886830F008008860F1
S11350B01000704710B50400200000F007F810BD80
S11350C010B50400200000F012F810BD10B5040063
S11350D0200000F021F8002804D12000FFF796FFFB
S11350E0002801D0012000E00020C0B210BD21281A
S11350F001DB30280BDB3A2801DB412807DB5B2886
S113510001DB612803DB7B2803DB7F2801DA012034
S113511000E00020C0B27047612803DB7B2801DA7D
S1135120012000E00020C0B27047000081B01149A6
S1135130096800910099D1F8C822521CC1F8C8220C
S1135140002AF7D10099D1F8CC22521CC1F8CC2204
S1135150002AEFD10099D1F8D022521CC1F8D022F4
S1135160002AE7D10099D1F8D422521CC1F8D422E4
S1135170E0E700BF0000FF1F70B582B004000D001F
S1135180002D02D15FF0FF3017E028680600B069F7
S1135190002804D12C20E8605FF0FF300DE02000EF
S11351A08DF80000012200A92800B369984701285E
S11351B002D05FF0FF3000E0200076BD0000000068
S11351C001DF704701DFFEE77E48006872B6018B9D
S11351D031B9416AC269D369994201D062B603DF29
S11351E062B6704703DF7047FEE702DF704772B6AE
S11351F01EF0040F0CBFEFF30881EFF309818969F6
S113520011F8021C032905D100B500F01CF85DF863
S113521004EB16E0012902D16A48006830E0022953
S11352200FD168480068C1698A6842F001028A6047
S113523000B54A680B6813605A6000F004F85DF822
S113524004EB62B6704707B55F48416811F0805FB0
S113525007D1EFF31182A2F1100280F822205B49FA
S1135260416007BD72B6EFF3098C59498A78EFF3B0
S113527011832CE9FC4F53480068C369C3F814C078
S113528072B6416A0A688A420CD189680900F9D168
S113529081F311884E49FF228A7062B630BF72B61C
S11352A0016AEFE74162C261938C4383D2F814C070
S11352B0BCE8FC4F83F311888CF3098842484549C4
S11352C0416062B6704772B600B53E4B1B68198BDD
S11352D001F101011983002001B4EFF31182EFF30E
S11352E00581586B07B4EFF30880586308461A6BBE
S11352F002B92FE090422DD8DA6A811A2ADB9A6B20
S11353004FEAD1014FEA8101515801B922E00A68FC
S113531022B1824203D009690942F8D11AE0C8686F
S11353204A6862B608B4904708BC72B607BC5863B2
S113533001BC198B491E1983DA69906A10F4805FE5
S113534006D129B9596A0968914218BFFFF77BFF52
S113535062B600BD9A6AE4E772B6F1B4194B1B68F1
S1135360D3F834C00CF1100C5CF804EB1A4820F0AC
S11353700100CCF818009CE8FF005DF804CBACF108
S1135380040C2CE9FF00F0BC8CF3088862B670476B
S113539070474FF08002D0E84F1F00290CBFC0E8CF
S11353A0432F01E0002BF6D108467047EFF3098044
S11353B07047EFF30880704780F308887047EFF375
S11353C0038070470000FF1F00ED00E000000010A4
S11353D020ED00E0000000082953000067B5FFFF3E
S11353E0380000000400FF1F000000007FC0FFFF22
S11353F004000000B40200000000FF1F00000000D1
S11354006BC0FFFF04000000A40200004000FF1F67
S1135410000000007368656C6C00000061746D6FBF
S11354206465000061746C6F67696E00617465780F
S1135430697400002030200A000000002031200A96
S1135440000000002032200A0000000001000000DB
S113545085390000A00F000008000000145400006B
S11354600100000000000000000000000000000037
S11354700000000000000000000000000000000028
S11354800000000000000000000000001C540000A8
S11354905539000024540000653900002C540000E4
S11354A07539000000000000000000000A53686520
S11354B06C6C20286275696C643A202573290A0093
S11354C04A756C203330203230313300436F7079A9
S11354D0726967687420286329203230313320468A
S11354E07265657363616C652053656D69636F6E86
S11354F0647563746F723B0A000000007368656C26
S11355006C3E2025730A00007368656C6C3E2000B5
S1135510496E76616C696420636F6D6D616E642E93
S1135520202054797065202768656C702720666F89
S1135530722061206C697374206F6620636F6D6DD7
S1135540616E64732E0A00005465726D696E617435
S1135550696E67207368656C6C2E0A0030313233D3
S1135560343536373839414243444546000000005B
S113557030313233343536373839616263646566C5
S113558000000000467265657363616C652F4672A6
S113559065657363616C65204D5158005F6D71786A
S11355A05F69646C655F7461736B000001000004E3
S11355B084550000747479643A000000000102020A
S11355C002000100000000000203030202020304BF
S11355D0030303030400000000D8B805006CDC02D8
S11355E0006CDC0200366E01006CDC0200D8B805E9
S11355F00000000080F0FA02008000005E5F0000FE
S1135600001BB700001BB700001BB700001BB7004E
S1135610006CDC0200D8B8050000000080F0FA023B
S1135620008000005E5F000080841E0080841E00F5
S113563080841E0020A1070000000000000000007C
S113564080841E0000000000008000000040000074
S11356500001000003000000006CDC0200C2010035
S113566043000000440000000300000004000000A8
S1135670747479643A000000010000004000FF1FC8
S1135680F0FF0020000400004C5400000200000061
S11356900200000010000000705600000700000027
S11356A00000000000000000FFFFFFFF00000000FA
S11356B000000000000000000000000000000000E6
S11356C000000000000000000000000000000000D6
S11356D000000000000000000000000000000000C6
S11356E000000000000000000000000000000000B6
S11356F000000000000000000000000000000000A6
S11357000000000000000000000000000000000095
S11357100000000000000000000000000000000085
S11357200000000000000000000000000000000075
S11357300000000000000000000000000000000065
S11357400000000000000000000000000000000055
S11357500000000000000000000000000000000045
S11357600000000000000000000000000000000035
S11357700000000000000000000000000000000025
S11357800000000000000000000000000000000015
S11357900000000000000000000000000000000005
S11357A000000000000000000000000000000000F5
S11357B000000000000000000000000000000000E5
S11357C000000000000000000000000000000000D5
S11357D000000000000000000000000000000000C5
S11357E000000000000000000000000000000000B5
S11357F000000000000000000000000000000000A5
S107580000000000A0
S90304698F
